{
	"test/fundMe.sol": {
		"FundMe": {
			"abi": [
				{
					"inputs": [],
					"stateMutability": "nonpayable",
					"type": "constructor"
				},
				{
					"inputs": [],
					"name": "fund",
					"outputs": [],
					"stateMutability": "payable",
					"type": "function"
				},
				{
					"inputs": [
						{
							"internalType": "address",
							"name": "",
							"type": "address"
						}
					],
					"name": "fundersToAmount",
					"outputs": [
						{
							"internalType": "uint256",
							"name": "",
							"type": "uint256"
						}
					],
					"stateMutability": "view",
					"type": "function"
				},
				{
					"inputs": [],
					"name": "getChainlinkDataFeedLatestAnswer",
					"outputs": [
						{
							"internalType": "int256",
							"name": "",
							"type": "int256"
						}
					],
					"stateMutability": "view",
					"type": "function"
				},
				{
					"inputs": [],
					"name": "getFund",
					"outputs": [],
					"stateMutability": "view",
					"type": "function"
				}
			],
			"devdoc": {
				"kind": "dev",
				"methods": {},
				"version": 1
			},
			"evm": {
				"assembly": "    /* \"test/fundMe.sol\":390:2017  contract FundMe{... */\n  mstore(0x40, 0x80)\n    /* \"test/fundMe.sol\":493:507  100 * 10 ** 18 */\n  0x056bc75e2d63100000\n    /* \"test/fundMe.sol\":469:507  uint256 MINIMUM_VALUE = 100 * 10 ** 18 */\n  0x01\n  sstore\n    /* \"test/fundMe.sol\":687:886  constructor() {... */\n  callvalue\n  dup1\n  iszero\n  tag_1\n  jumpi\n  0x00\n  dup1\n  revert\ntag_1:\n  pop\n    /* \"test/fundMe.sol\":825:867  0x694AA1769357215DE4FAC081bf1f309aDC325306 */\n  0x694aa1769357215de4fac081bf1f309adc325306\n    /* \"test/fundMe.sol\":778:786  dataFeed */\n  0x02\n  0x00\n    /* \"test/fundMe.sol\":778:878  dataFeed = AggregatorV3Interface(... */\n  0x0100\n  exp\n  dup2\n  sload\n  dup2\n  0xffffffffffffffffffffffffffffffffffffffff\n  mul\n  not\n  and\n  swap1\n  dup4\n  0xffffffffffffffffffffffffffffffffffffffff\n  and\n  mul\n  or\n  swap1\n  sstore\n  pop\n    /* \"test/fundMe.sol\":390:2017  contract FundMe{... */\n  dataSize(sub_0)\n  dup1\n  dataOffset(sub_0)\n  0x00\n  codecopy\n  0x00\n  return\nstop\n\nsub_0: assembly {\n        /* \"test/fundMe.sol\":390:2017  contract FundMe{... */\n      mstore(0x40, 0x80)\n      jumpi(tag_1, lt(calldatasize, 0x04))\n      shr(0xe0, calldataload(0x00))\n      dup1\n      0x8edd6eb6\n      eq\n      tag_2\n      jumpi\n      dup1\n      0x9f883a05\n      eq\n      tag_3\n      jumpi\n      dup1\n      0xb60d4288\n      eq\n      tag_4\n      jumpi\n      dup1\n      0xbea4dfb5\n      eq\n      tag_5\n      jumpi\n    tag_1:\n      0x00\n      dup1\n      revert\n        /* \"test/fundMe.sol\":1871:2014  function getFund() external view {... */\n    tag_2:\n      callvalue\n      dup1\n      iszero\n      tag_6\n      jumpi\n      0x00\n      dup1\n      revert\n    tag_6:\n      pop\n      tag_7\n      tag_8\n      jump\t// in\n    tag_7:\n      stop\n        /* \"test/fundMe.sol\":412:462  mapping(address => uint256) public fundersToAmount */\n    tag_3:\n      callvalue\n      dup1\n      iszero\n      tag_9\n      jumpi\n      0x00\n      dup1\n      revert\n    tag_9:\n      pop\n      tag_10\n      0x04\n      dup1\n      calldatasize\n      sub\n      dup2\n      add\n      swap1\n      tag_11\n      swap2\n      swap1\n      tag_12\n      jump\t// in\n    tag_11:\n      tag_13\n      jump\t// in\n    tag_10:\n      mload(0x40)\n      tag_14\n      swap2\n      swap1\n      tag_15\n      jump\t// in\n    tag_14:\n      mload(0x40)\n      dup1\n      swap2\n      sub\n      swap1\n      return\n        /* \"test/fundMe.sol\":892:1062  function fund() external payable{... */\n    tag_4:\n      tag_16\n      tag_17\n      jump\t// in\n    tag_16:\n      stop\n        /* \"test/fundMe.sol\":1144:1492  function getChainlinkDataFeedLatestAnswer() public view returns (int) {... */\n    tag_5:\n      callvalue\n      dup1\n      iszero\n      tag_18\n      jumpi\n      0x00\n      dup1\n      revert\n    tag_18:\n      pop\n      tag_19\n      tag_20\n      jump\t// in\n    tag_19:\n      mload(0x40)\n      tag_21\n      swap2\n      swap1\n      tag_22\n      jump\t// in\n    tag_21:\n      mload(0x40)\n      dup1\n      swap2\n      sub\n      swap1\n      return\n        /* \"test/fundMe.sol\":1871:2014  function getFund() external view {... */\n    tag_8:\n        /* \"test/fundMe.sol\":665:678  1000 * 10**18 */\n      0x3635c9adc5dea00000\n        /* \"test/fundMe.sol\":1933:1971  convertEthToUsd(address(this).balance) */\n      tag_24\n        /* \"test/fundMe.sol\":1949:1970  address(this).balance */\n      selfbalance\n        /* \"test/fundMe.sol\":1933:1948  convertEthToUsd */\n      tag_25\n        /* \"test/fundMe.sol\":1933:1971  convertEthToUsd(address(this).balance) */\n      jump\t// in\n    tag_24:\n        /* \"test/fundMe.sol\":1933:1981  convertEthToUsd(address(this).balance) >= TARGET */\n      lt\n      iszero\n        /* \"test/fundMe.sol\":1925:2006  require(convertEthToUsd(address(this).balance) >= TARGET,\"Target is not reached\") */\n      tag_26\n      jumpi\n      mload(0x40)\n      0x08c379a000000000000000000000000000000000000000000000000000000000\n      dup2\n      mstore\n      0x04\n      add\n      tag_27\n      swap1\n      tag_28\n      jump\t// in\n    tag_27:\n      mload(0x40)\n      dup1\n      swap2\n      sub\n      swap1\n      revert\n    tag_26:\n        /* \"test/fundMe.sol\":1871:2014  function getFund() external view {... */\n      jump\t// out\n        /* \"test/fundMe.sol\":412:462  mapping(address => uint256) public fundersToAmount */\n    tag_13:\n      mstore(0x20, 0x00)\n      dup1\n      0x00\n      mstore\n      keccak256(0x00, 0x40)\n      0x00\n      swap2\n      pop\n      swap1\n      pop\n      sload\n      dup2\n      jump\t// out\n        /* \"test/fundMe.sol\":892:1062  function fund() external payable{... */\n    tag_17:\n        /* \"test/fundMe.sol\":973:986  MINIMUM_VALUE */\n      sload(0x01)\n        /* \"test/fundMe.sol\":943:969  convertEthToUsd(msg.value) */\n      tag_30\n        /* \"test/fundMe.sol\":959:968  msg.value */\n      callvalue\n        /* \"test/fundMe.sol\":943:958  convertEthToUsd */\n      tag_25\n        /* \"test/fundMe.sol\":943:969  convertEthToUsd(msg.value) */\n      jump\t// in\n    tag_30:\n        /* \"test/fundMe.sol\":943:986  convertEthToUsd(msg.value) >= MINIMUM_VALUE */\n      lt\n      iszero\n        /* \"test/fundMe.sol\":935:1004  require(convertEthToUsd(msg.value) >= MINIMUM_VALUE, \"send more ETH\") */\n      tag_31\n      jumpi\n      mload(0x40)\n      0x08c379a000000000000000000000000000000000000000000000000000000000\n      dup2\n      mstore\n      0x04\n      add\n      tag_32\n      swap1\n      tag_33\n      jump\t// in\n    tag_32:\n      mload(0x40)\n      dup1\n      swap2\n      sub\n      swap1\n      revert\n    tag_31:\n        /* \"test/fundMe.sol\":1045:1054  msg.value */\n      callvalue\n        /* \"test/fundMe.sol\":1015:1030  fundersToAmount */\n      0x00\n        /* \"test/fundMe.sol\":1015:1042  fundersToAmount[msg.sender] */\n      dup1\n        /* \"test/fundMe.sol\":1031:1041  msg.sender */\n      caller\n        /* \"test/fundMe.sol\":1015:1042  fundersToAmount[msg.sender] */\n      0xffffffffffffffffffffffffffffffffffffffff\n      and\n      0xffffffffffffffffffffffffffffffffffffffff\n      and\n      dup2\n      mstore\n      0x20\n      add\n      swap1\n      dup2\n      mstore\n      0x20\n      add\n      0x00\n      keccak256\n        /* \"test/fundMe.sol\":1015:1054  fundersToAmount[msg.sender] = msg.value */\n      dup2\n      swap1\n      sstore\n      pop\n        /* \"test/fundMe.sol\":892:1062  function fund() external payable{... */\n      jump\t// out\n        /* \"test/fundMe.sol\":1144:1492  function getChainlinkDataFeedLatestAnswer() public view returns (int) {... */\n    tag_20:\n        /* \"test/fundMe.sol\":1209:1212  int */\n      0x00\n        /* \"test/fundMe.sol\":1303:1313  int answer */\n      dup1\n        /* \"test/fundMe.sol\":1434:1442  dataFeed */\n      0x02\n      0x00\n      swap1\n      sload\n      swap1\n      0x0100\n      exp\n      swap1\n      div\n      0xffffffffffffffffffffffffffffffffffffffff\n      and\n        /* \"test/fundMe.sol\":1434:1458  dataFeed.latestRoundData */\n      0xffffffffffffffffffffffffffffffffffffffff\n      and\n      0xfeaf968c\n        /* \"test/fundMe.sol\":1434:1460  dataFeed.latestRoundData() */\n      mload(0x40)\n      dup2\n      0xffffffff\n      and\n      0xe0\n      shl\n      dup2\n      mstore\n      0x04\n      add\n      0xa0\n      mload(0x40)\n      dup1\n      dup4\n      sub\n      dup2\n      dup7\n      gas\n      staticcall\n      iszero\n      dup1\n      iszero\n      tag_36\n      jumpi\n      returndatasize\n      0x00\n      dup1\n      returndatacopy\n      revert(0x00, returndatasize)\n    tag_36:\n      pop\n      pop\n      pop\n      pop\n      mload(0x40)\n      returndatasize\n      not(0x1f)\n      0x1f\n      dup3\n      add\n      and\n      dup3\n      add\n      dup1\n      0x40\n      mstore\n      pop\n      dup2\n      add\n      swap1\n      tag_37\n      swap2\n      swap1\n      tag_38\n      jump\t// in\n    tag_37:\n        /* \"test/fundMe.sol\":1253:1460  (... */\n      pop\n      pop\n      pop\n      swap2\n      pop\n      pop\n        /* \"test/fundMe.sol\":1478:1484  answer */\n      dup1\n        /* \"test/fundMe.sol\":1471:1484  return answer */\n      swap2\n      pop\n      pop\n        /* \"test/fundMe.sol\":1144:1492  function getChainlinkDataFeedLatestAnswer() public view returns (int) {... */\n      swap1\n      jump\t// out\n        /* \"test/fundMe.sol\":1522:1820  function convertEthToUsd(uint256 ethAmount) internal view returns (uint256){... */\n    tag_25:\n        /* \"test/fundMe.sol\":1589:1596  uint256 */\n      0x00\n        /* \"test/fundMe.sol\":1704:1720  uint256 ethPrice */\n      dup1\n        /* \"test/fundMe.sol\":1731:1765  getChainlinkDataFeedLatestAnswer() */\n      tag_40\n        /* \"test/fundMe.sol\":1731:1763  getChainlinkDataFeedLatestAnswer */\n      tag_20\n        /* \"test/fundMe.sol\":1731:1765  getChainlinkDataFeedLatestAnswer() */\n      jump\t// in\n    tag_40:\n        /* \"test/fundMe.sol\":1704:1766  uint256 ethPrice = uint256(getChainlinkDataFeedLatestAnswer()) */\n      swap1\n      pop\n        /* \"test/fundMe.sol\":1806:1811  10**8 */\n      0x05f5e100\n        /* \"test/fundMe.sol\":1796:1804  ethPrice */\n      dup2\n        /* \"test/fundMe.sol\":1784:1793  ethAmount */\n      dup5\n        /* \"test/fundMe.sol\":1784:1804  ethAmount * ethPrice */\n      tag_41\n      swap2\n      swap1\n      tag_42\n      jump\t// in\n    tag_41:\n        /* \"test/fundMe.sol\":1784:1812  ethAmount * ethPrice/(10**8) */\n      tag_43\n      swap2\n      swap1\n      tag_44\n      jump\t// in\n    tag_43:\n        /* \"test/fundMe.sol\":1777:1812  return ethAmount * ethPrice/(10**8) */\n      swap2\n      pop\n      pop\n        /* \"test/fundMe.sol\":1522:1820  function convertEthToUsd(uint256 ethAmount) internal view returns (uint256){... */\n      swap2\n      swap1\n      pop\n      jump\t// out\n        /* \"#utility.yul\":88:205   */\n    tag_46:\n        /* \"#utility.yul\":197:198   */\n      0x00\n        /* \"#utility.yul\":194:195   */\n      dup1\n        /* \"#utility.yul\":187:199   */\n      revert\n        /* \"#utility.yul\":334:460   */\n    tag_48:\n        /* \"#utility.yul\":371:378   */\n      0x00\n        /* \"#utility.yul\":411:453   */\n      0xffffffffffffffffffffffffffffffffffffffff\n        /* \"#utility.yul\":404:409   */\n      dup3\n        /* \"#utility.yul\":400:454   */\n      and\n        /* \"#utility.yul\":389:454   */\n      swap1\n      pop\n        /* \"#utility.yul\":334:460   */\n      swap2\n      swap1\n      pop\n      jump\t// out\n        /* \"#utility.yul\":466:562   */\n    tag_49:\n        /* \"#utility.yul\":503:510   */\n      0x00\n        /* \"#utility.yul\":532:556   */\n      tag_76\n        /* \"#utility.yul\":550:555   */\n      dup3\n        /* \"#utility.yul\":532:556   */\n      tag_48\n      jump\t// in\n    tag_76:\n        /* \"#utility.yul\":521:556   */\n      swap1\n      pop\n        /* \"#utility.yul\":466:562   */\n      swap2\n      swap1\n      pop\n      jump\t// out\n        /* \"#utility.yul\":568:690   */\n    tag_50:\n        /* \"#utility.yul\":641:665   */\n      tag_78\n        /* \"#utility.yul\":659:664   */\n      dup2\n        /* \"#utility.yul\":641:665   */\n      tag_49\n      jump\t// in\n    tag_78:\n        /* \"#utility.yul\":634:639   */\n      dup2\n        /* \"#utility.yul\":631:666   */\n      eq\n        /* \"#utility.yul\":621:684   */\n      tag_79\n      jumpi\n        /* \"#utility.yul\":680:681   */\n      0x00\n        /* \"#utility.yul\":677:678   */\n      dup1\n        /* \"#utility.yul\":670:682   */\n      revert\n        /* \"#utility.yul\":621:684   */\n    tag_79:\n        /* \"#utility.yul\":568:690   */\n      pop\n      jump\t// out\n        /* \"#utility.yul\":696:835   */\n    tag_51:\n        /* \"#utility.yul\":742:747   */\n      0x00\n        /* \"#utility.yul\":780:786   */\n      dup2\n        /* \"#utility.yul\":767:787   */\n      calldataload\n        /* \"#utility.yul\":758:787   */\n      swap1\n      pop\n        /* \"#utility.yul\":796:829   */\n      tag_81\n        /* \"#utility.yul\":823:828   */\n      dup2\n        /* \"#utility.yul\":796:829   */\n      tag_50\n      jump\t// in\n    tag_81:\n        /* \"#utility.yul\":696:835   */\n      swap3\n      swap2\n      pop\n      pop\n      jump\t// out\n        /* \"#utility.yul\":841:1170   */\n    tag_12:\n        /* \"#utility.yul\":900:906   */\n      0x00\n        /* \"#utility.yul\":949:951   */\n      0x20\n        /* \"#utility.yul\":937:946   */\n      dup3\n        /* \"#utility.yul\":928:935   */\n      dup5\n        /* \"#utility.yul\":924:947   */\n      sub\n        /* \"#utility.yul\":920:952   */\n      slt\n        /* \"#utility.yul\":917:1036   */\n      iszero\n      tag_83\n      jumpi\n        /* \"#utility.yul\":955:1034   */\n      tag_84\n      tag_46\n      jump\t// in\n    tag_84:\n        /* \"#utility.yul\":917:1036   */\n    tag_83:\n        /* \"#utility.yul\":1075:1076   */\n      0x00\n        /* \"#utility.yul\":1100:1153   */\n      tag_85\n        /* \"#utility.yul\":1145:1152   */\n      dup5\n        /* \"#utility.yul\":1136:1142   */\n      dup3\n        /* \"#utility.yul\":1125:1134   */\n      dup6\n        /* \"#utility.yul\":1121:1143   */\n      add\n        /* \"#utility.yul\":1100:1153   */\n      tag_51\n      jump\t// in\n    tag_85:\n        /* \"#utility.yul\":1090:1153   */\n      swap2\n      pop\n        /* \"#utility.yul\":1046:1163   */\n      pop\n        /* \"#utility.yul\":841:1170   */\n      swap3\n      swap2\n      pop\n      pop\n      jump\t// out\n        /* \"#utility.yul\":1176:1253   */\n    tag_52:\n        /* \"#utility.yul\":1213:1220   */\n      0x00\n        /* \"#utility.yul\":1242:1247   */\n      dup2\n        /* \"#utility.yul\":1231:1247   */\n      swap1\n      pop\n        /* \"#utility.yul\":1176:1253   */\n      swap2\n      swap1\n      pop\n      jump\t// out\n        /* \"#utility.yul\":1259:1377   */\n    tag_53:\n        /* \"#utility.yul\":1346:1370   */\n      tag_88\n        /* \"#utility.yul\":1364:1369   */\n      dup2\n        /* \"#utility.yul\":1346:1370   */\n      tag_52\n      jump\t// in\n    tag_88:\n        /* \"#utility.yul\":1341:1344   */\n      dup3\n        /* \"#utility.yul\":1334:1371   */\n      mstore\n        /* \"#utility.yul\":1259:1377   */\n      pop\n      pop\n      jump\t// out\n        /* \"#utility.yul\":1383:1605   */\n    tag_15:\n        /* \"#utility.yul\":1476:1480   */\n      0x00\n        /* \"#utility.yul\":1514:1516   */\n      0x20\n        /* \"#utility.yul\":1503:1512   */\n      dup3\n        /* \"#utility.yul\":1499:1517   */\n      add\n        /* \"#utility.yul\":1491:1517   */\n      swap1\n      pop\n        /* \"#utility.yul\":1527:1598   */\n      tag_90\n        /* \"#utility.yul\":1595:1596   */\n      0x00\n        /* \"#utility.yul\":1584:1593   */\n      dup4\n        /* \"#utility.yul\":1580:1597   */\n      add\n        /* \"#utility.yul\":1571:1577   */\n      dup5\n        /* \"#utility.yul\":1527:1598   */\n      tag_53\n      jump\t// in\n    tag_90:\n        /* \"#utility.yul\":1383:1605   */\n      swap3\n      swap2\n      pop\n      pop\n      jump\t// out\n        /* \"#utility.yul\":1611:1687   */\n    tag_54:\n        /* \"#utility.yul\":1647:1654   */\n      0x00\n        /* \"#utility.yul\":1676:1681   */\n      dup2\n        /* \"#utility.yul\":1665:1681   */\n      swap1\n      pop\n        /* \"#utility.yul\":1611:1687   */\n      swap2\n      swap1\n      pop\n      jump\t// out\n        /* \"#utility.yul\":1693:1808   */\n    tag_55:\n        /* \"#utility.yul\":1778:1801   */\n      tag_93\n        /* \"#utility.yul\":1795:1800   */\n      dup2\n        /* \"#utility.yul\":1778:1801   */\n      tag_54\n      jump\t// in\n    tag_93:\n        /* \"#utility.yul\":1773:1776   */\n      dup3\n        /* \"#utility.yul\":1766:1802   */\n      mstore\n        /* \"#utility.yul\":1693:1808   */\n      pop\n      pop\n      jump\t// out\n        /* \"#utility.yul\":1814:2032   */\n    tag_22:\n        /* \"#utility.yul\":1905:1909   */\n      0x00\n        /* \"#utility.yul\":1943:1945   */\n      0x20\n        /* \"#utility.yul\":1932:1941   */\n      dup3\n        /* \"#utility.yul\":1928:1946   */\n      add\n        /* \"#utility.yul\":1920:1946   */\n      swap1\n      pop\n        /* \"#utility.yul\":1956:2025   */\n      tag_95\n        /* \"#utility.yul\":2022:2023   */\n      0x00\n        /* \"#utility.yul\":2011:2020   */\n      dup4\n        /* \"#utility.yul\":2007:2024   */\n      add\n        /* \"#utility.yul\":1998:2004   */\n      dup5\n        /* \"#utility.yul\":1956:2025   */\n      tag_55\n      jump\t// in\n    tag_95:\n        /* \"#utility.yul\":1814:2032   */\n      swap3\n      swap2\n      pop\n      pop\n      jump\t// out\n        /* \"#utility.yul\":2038:2207   */\n    tag_56:\n        /* \"#utility.yul\":2122:2133   */\n      0x00\n        /* \"#utility.yul\":2156:2162   */\n      dup3\n        /* \"#utility.yul\":2151:2154   */\n      dup3\n        /* \"#utility.yul\":2144:2163   */\n      mstore\n        /* \"#utility.yul\":2196:2200   */\n      0x20\n        /* \"#utility.yul\":2191:2194   */\n      dup3\n        /* \"#utility.yul\":2187:2201   */\n      add\n        /* \"#utility.yul\":2172:2201   */\n      swap1\n      pop\n        /* \"#utility.yul\":2038:2207   */\n      swap3\n      swap2\n      pop\n      pop\n      jump\t// out\n        /* \"#utility.yul\":2213:2384   */\n    tag_57:\n        /* \"#utility.yul\":2353:2376   */\n      0x546172676574206973206e6f7420726561636865640000000000000000000000\n        /* \"#utility.yul\":2349:2350   */\n      0x00\n        /* \"#utility.yul\":2341:2347   */\n      dup3\n        /* \"#utility.yul\":2337:2351   */\n      add\n        /* \"#utility.yul\":2330:2377   */\n      mstore\n        /* \"#utility.yul\":2213:2384   */\n      pop\n      jump\t// out\n        /* \"#utility.yul\":2390:2756   */\n    tag_58:\n        /* \"#utility.yul\":2532:2535   */\n      0x00\n        /* \"#utility.yul\":2553:2620   */\n      tag_99\n        /* \"#utility.yul\":2617:2619   */\n      0x15\n        /* \"#utility.yul\":2612:2615   */\n      dup4\n        /* \"#utility.yul\":2553:2620   */\n      tag_56\n      jump\t// in\n    tag_99:\n        /* \"#utility.yul\":2546:2620   */\n      swap2\n      pop\n        /* \"#utility.yul\":2629:2722   */\n      tag_100\n        /* \"#utility.yul\":2718:2721   */\n      dup3\n        /* \"#utility.yul\":2629:2722   */\n      tag_57\n      jump\t// in\n    tag_100:\n        /* \"#utility.yul\":2747:2749   */\n      0x20\n        /* \"#utility.yul\":2742:2745   */\n      dup3\n        /* \"#utility.yul\":2738:2750   */\n      add\n        /* \"#utility.yul\":2731:2750   */\n      swap1\n      pop\n        /* \"#utility.yul\":2390:2756   */\n      swap2\n      swap1\n      pop\n      jump\t// out\n        /* \"#utility.yul\":2762:3181   */\n    tag_28:\n        /* \"#utility.yul\":2928:2932   */\n      0x00\n        /* \"#utility.yul\":2966:2968   */\n      0x20\n        /* \"#utility.yul\":2955:2964   */\n      dup3\n        /* \"#utility.yul\":2951:2969   */\n      add\n        /* \"#utility.yul\":2943:2969   */\n      swap1\n      pop\n        /* \"#utility.yul\":3015:3024   */\n      dup2\n        /* \"#utility.yul\":3009:3013   */\n      dup2\n        /* \"#utility.yul\":3005:3025   */\n      sub\n        /* \"#utility.yul\":3001:3002   */\n      0x00\n        /* \"#utility.yul\":2990:2999   */\n      dup4\n        /* \"#utility.yul\":2986:3003   */\n      add\n        /* \"#utility.yul\":2979:3026   */\n      mstore\n        /* \"#utility.yul\":3043:3174   */\n      tag_102\n        /* \"#utility.yul\":3169:3173   */\n      dup2\n        /* \"#utility.yul\":3043:3174   */\n      tag_58\n      jump\t// in\n    tag_102:\n        /* \"#utility.yul\":3035:3174   */\n      swap1\n      pop\n        /* \"#utility.yul\":2762:3181   */\n      swap2\n      swap1\n      pop\n      jump\t// out\n        /* \"#utility.yul\":3187:3350   */\n    tag_59:\n        /* \"#utility.yul\":3327:3342   */\n      0x73656e64206d6f72652045544800000000000000000000000000000000000000\n        /* \"#utility.yul\":3323:3324   */\n      0x00\n        /* \"#utility.yul\":3315:3321   */\n      dup3\n        /* \"#utility.yul\":3311:3325   */\n      add\n        /* \"#utility.yul\":3304:3343   */\n      mstore\n        /* \"#utility.yul\":3187:3350   */\n      pop\n      jump\t// out\n        /* \"#utility.yul\":3356:3722   */\n    tag_60:\n        /* \"#utility.yul\":3498:3501   */\n      0x00\n        /* \"#utility.yul\":3519:3586   */\n      tag_105\n        /* \"#utility.yul\":3583:3585   */\n      0x0d\n        /* \"#utility.yul\":3578:3581   */\n      dup4\n        /* \"#utility.yul\":3519:3586   */\n      tag_56\n      jump\t// in\n    tag_105:\n        /* \"#utility.yul\":3512:3586   */\n      swap2\n      pop\n        /* \"#utility.yul\":3595:3688   */\n      tag_106\n        /* \"#utility.yul\":3684:3687   */\n      dup3\n        /* \"#utility.yul\":3595:3688   */\n      tag_59\n      jump\t// in\n    tag_106:\n        /* \"#utility.yul\":3713:3715   */\n      0x20\n        /* \"#utility.yul\":3708:3711   */\n      dup3\n        /* \"#utility.yul\":3704:3716   */\n      add\n        /* \"#utility.yul\":3697:3716   */\n      swap1\n      pop\n        /* \"#utility.yul\":3356:3722   */\n      swap2\n      swap1\n      pop\n      jump\t// out\n        /* \"#utility.yul\":3728:4147   */\n    tag_33:\n        /* \"#utility.yul\":3894:3898   */\n      0x00\n        /* \"#utility.yul\":3932:3934   */\n      0x20\n        /* \"#utility.yul\":3921:3930   */\n      dup3\n        /* \"#utility.yul\":3917:3935   */\n      add\n        /* \"#utility.yul\":3909:3935   */\n      swap1\n      pop\n        /* \"#utility.yul\":3981:3990   */\n      dup2\n        /* \"#utility.yul\":3975:3979   */\n      dup2\n        /* \"#utility.yul\":3971:3991   */\n      sub\n        /* \"#utility.yul\":3967:3968   */\n      0x00\n        /* \"#utility.yul\":3956:3965   */\n      dup4\n        /* \"#utility.yul\":3952:3969   */\n      add\n        /* \"#utility.yul\":3945:3992   */\n      mstore\n        /* \"#utility.yul\":4009:4140   */\n      tag_108\n        /* \"#utility.yul\":4135:4139   */\n      dup2\n        /* \"#utility.yul\":4009:4140   */\n      tag_60\n      jump\t// in\n    tag_108:\n        /* \"#utility.yul\":4001:4140   */\n      swap1\n      pop\n        /* \"#utility.yul\":3728:4147   */\n      swap2\n      swap1\n      pop\n      jump\t// out\n        /* \"#utility.yul\":4153:4258   */\n    tag_61:\n        /* \"#utility.yul\":4189:4196   */\n      0x00\n        /* \"#utility.yul\":4229:4251   */\n      0xffffffffffffffffffff\n        /* \"#utility.yul\":4222:4227   */\n      dup3\n        /* \"#utility.yul\":4218:4252   */\n      and\n        /* \"#utility.yul\":4207:4252   */\n      swap1\n      pop\n        /* \"#utility.yul\":4153:4258   */\n      swap2\n      swap1\n      pop\n      jump\t// out\n        /* \"#utility.yul\":4264:4384   */\n    tag_62:\n        /* \"#utility.yul\":4336:4359   */\n      tag_111\n        /* \"#utility.yul\":4353:4358   */\n      dup2\n        /* \"#utility.yul\":4336:4359   */\n      tag_61\n      jump\t// in\n    tag_111:\n        /* \"#utility.yul\":4329:4334   */\n      dup2\n        /* \"#utility.yul\":4326:4360   */\n      eq\n        /* \"#utility.yul\":4316:4378   */\n      tag_112\n      jumpi\n        /* \"#utility.yul\":4374:4375   */\n      0x00\n        /* \"#utility.yul\":4371:4372   */\n      dup1\n        /* \"#utility.yul\":4364:4376   */\n      revert\n        /* \"#utility.yul\":4316:4378   */\n    tag_112:\n        /* \"#utility.yul\":4264:4384   */\n      pop\n      jump\t// out\n        /* \"#utility.yul\":4390:4531   */\n    tag_63:\n        /* \"#utility.yul\":4446:4451   */\n      0x00\n        /* \"#utility.yul\":4477:4483   */\n      dup2\n        /* \"#utility.yul\":4471:4484   */\n      mload\n        /* \"#utility.yul\":4462:4484   */\n      swap1\n      pop\n        /* \"#utility.yul\":4493:4525   */\n      tag_114\n        /* \"#utility.yul\":4519:4524   */\n      dup2\n        /* \"#utility.yul\":4493:4525   */\n      tag_62\n      jump\t// in\n    tag_114:\n        /* \"#utility.yul\":4390:4531   */\n      swap3\n      swap2\n      pop\n      pop\n      jump\t// out\n        /* \"#utility.yul\":4537:4657   */\n    tag_64:\n        /* \"#utility.yul\":4609:4632   */\n      tag_116\n        /* \"#utility.yul\":4626:4631   */\n      dup2\n        /* \"#utility.yul\":4609:4632   */\n      tag_54\n      jump\t// in\n    tag_116:\n        /* \"#utility.yul\":4602:4607   */\n      dup2\n        /* \"#utility.yul\":4599:4633   */\n      eq\n        /* \"#utility.yul\":4589:4651   */\n      tag_117\n      jumpi\n        /* \"#utility.yul\":4647:4648   */\n      0x00\n        /* \"#utility.yul\":4644:4645   */\n      dup1\n        /* \"#utility.yul\":4637:4649   */\n      revert\n        /* \"#utility.yul\":4589:4651   */\n    tag_117:\n        /* \"#utility.yul\":4537:4657   */\n      pop\n      jump\t// out\n        /* \"#utility.yul\":4663:4804   */\n    tag_65:\n        /* \"#utility.yul\":4719:4724   */\n      0x00\n        /* \"#utility.yul\":4750:4756   */\n      dup2\n        /* \"#utility.yul\":4744:4757   */\n      mload\n        /* \"#utility.yul\":4735:4757   */\n      swap1\n      pop\n        /* \"#utility.yul\":4766:4798   */\n      tag_119\n        /* \"#utility.yul\":4792:4797   */\n      dup2\n        /* \"#utility.yul\":4766:4798   */\n      tag_64\n      jump\t// in\n    tag_119:\n        /* \"#utility.yul\":4663:4804   */\n      swap3\n      swap2\n      pop\n      pop\n      jump\t// out\n        /* \"#utility.yul\":4810:4932   */\n    tag_66:\n        /* \"#utility.yul\":4883:4907   */\n      tag_121\n        /* \"#utility.yul\":4901:4906   */\n      dup2\n        /* \"#utility.yul\":4883:4907   */\n      tag_52\n      jump\t// in\n    tag_121:\n        /* \"#utility.yul\":4876:4881   */\n      dup2\n        /* \"#utility.yul\":4873:4908   */\n      eq\n        /* \"#utility.yul\":4863:4926   */\n      tag_122\n      jumpi\n        /* \"#utility.yul\":4922:4923   */\n      0x00\n        /* \"#utility.yul\":4919:4920   */\n      dup1\n        /* \"#utility.yul\":4912:4924   */\n      revert\n        /* \"#utility.yul\":4863:4926   */\n    tag_122:\n        /* \"#utility.yul\":4810:4932   */\n      pop\n      jump\t// out\n        /* \"#utility.yul\":4938:5081   */\n    tag_67:\n        /* \"#utility.yul\":4995:5000   */\n      0x00\n        /* \"#utility.yul\":5026:5032   */\n      dup2\n        /* \"#utility.yul\":5020:5033   */\n      mload\n        /* \"#utility.yul\":5011:5033   */\n      swap1\n      pop\n        /* \"#utility.yul\":5042:5075   */\n      tag_124\n        /* \"#utility.yul\":5069:5074   */\n      dup2\n        /* \"#utility.yul\":5042:5075   */\n      tag_66\n      jump\t// in\n    tag_124:\n        /* \"#utility.yul\":4938:5081   */\n      swap3\n      swap2\n      pop\n      pop\n      jump\t// out\n        /* \"#utility.yul\":5087:6058   */\n    tag_38:\n        /* \"#utility.yul\":5190:5196   */\n      0x00\n        /* \"#utility.yul\":5198:5204   */\n      dup1\n        /* \"#utility.yul\":5206:5212   */\n      0x00\n        /* \"#utility.yul\":5214:5220   */\n      dup1\n        /* \"#utility.yul\":5222:5228   */\n      0x00\n        /* \"#utility.yul\":5271:5274   */\n      0xa0\n        /* \"#utility.yul\":5259:5268   */\n      dup7\n        /* \"#utility.yul\":5250:5257   */\n      dup9\n        /* \"#utility.yul\":5246:5269   */\n      sub\n        /* \"#utility.yul\":5242:5275   */\n      slt\n        /* \"#utility.yul\":5239:5359   */\n      iszero\n      tag_126\n      jumpi\n        /* \"#utility.yul\":5278:5357   */\n      tag_127\n      tag_46\n      jump\t// in\n    tag_127:\n        /* \"#utility.yul\":5239:5359   */\n    tag_126:\n        /* \"#utility.yul\":5398:5399   */\n      0x00\n        /* \"#utility.yul\":5423:5486   */\n      tag_128\n        /* \"#utility.yul\":5478:5485   */\n      dup9\n        /* \"#utility.yul\":5469:5475   */\n      dup3\n        /* \"#utility.yul\":5458:5467   */\n      dup10\n        /* \"#utility.yul\":5454:5476   */\n      add\n        /* \"#utility.yul\":5423:5486   */\n      tag_63\n      jump\t// in\n    tag_128:\n        /* \"#utility.yul\":5413:5486   */\n      swap6\n      pop\n        /* \"#utility.yul\":5369:5496   */\n      pop\n        /* \"#utility.yul\":5535:5537   */\n      0x20\n        /* \"#utility.yul\":5561:5624   */\n      tag_129\n        /* \"#utility.yul\":5616:5623   */\n      dup9\n        /* \"#utility.yul\":5607:5613   */\n      dup3\n        /* \"#utility.yul\":5596:5605   */\n      dup10\n        /* \"#utility.yul\":5592:5614   */\n      add\n        /* \"#utility.yul\":5561:5624   */\n      tag_65\n      jump\t// in\n    tag_129:\n        /* \"#utility.yul\":5551:5624   */\n      swap5\n      pop\n        /* \"#utility.yul\":5506:5634   */\n      pop\n        /* \"#utility.yul\":5673:5675   */\n      0x40\n        /* \"#utility.yul\":5699:5763   */\n      tag_130\n        /* \"#utility.yul\":5755:5762   */\n      dup9\n        /* \"#utility.yul\":5746:5752   */\n      dup3\n        /* \"#utility.yul\":5735:5744   */\n      dup10\n        /* \"#utility.yul\":5731:5753   */\n      add\n        /* \"#utility.yul\":5699:5763   */\n      tag_67\n      jump\t// in\n    tag_130:\n        /* \"#utility.yul\":5689:5763   */\n      swap4\n      pop\n        /* \"#utility.yul\":5644:5773   */\n      pop\n        /* \"#utility.yul\":5812:5814   */\n      0x60\n        /* \"#utility.yul\":5838:5902   */\n      tag_131\n        /* \"#utility.yul\":5894:5901   */\n      dup9\n        /* \"#utility.yul\":5885:5891   */\n      dup3\n        /* \"#utility.yul\":5874:5883   */\n      dup10\n        /* \"#utility.yul\":5870:5892   */\n      add\n        /* \"#utility.yul\":5838:5902   */\n      tag_67\n      jump\t// in\n    tag_131:\n        /* \"#utility.yul\":5828:5902   */\n      swap3\n      pop\n        /* \"#utility.yul\":5783:5912   */\n      pop\n        /* \"#utility.yul\":5951:5954   */\n      0x80\n        /* \"#utility.yul\":5978:6041   */\n      tag_132\n        /* \"#utility.yul\":6033:6040   */\n      dup9\n        /* \"#utility.yul\":6024:6030   */\n      dup3\n        /* \"#utility.yul\":6013:6022   */\n      dup10\n        /* \"#utility.yul\":6009:6031   */\n      add\n        /* \"#utility.yul\":5978:6041   */\n      tag_63\n      jump\t// in\n    tag_132:\n        /* \"#utility.yul\":5968:6041   */\n      swap2\n      pop\n        /* \"#utility.yul\":5922:6051   */\n      pop\n        /* \"#utility.yul\":5087:6058   */\n      swap3\n      swap6\n      pop\n      swap3\n      swap6\n      swap1\n      swap4\n      pop\n      jump\t// out\n        /* \"#utility.yul\":6064:6244   */\n    tag_68:\n        /* \"#utility.yul\":6112:6189   */\n      0x4e487b7100000000000000000000000000000000000000000000000000000000\n        /* \"#utility.yul\":6109:6110   */\n      0x00\n        /* \"#utility.yul\":6102:6190   */\n      mstore\n        /* \"#utility.yul\":6209:6213   */\n      0x11\n        /* \"#utility.yul\":6206:6207   */\n      0x04\n        /* \"#utility.yul\":6199:6214   */\n      mstore\n        /* \"#utility.yul\":6233:6237   */\n      0x24\n        /* \"#utility.yul\":6230:6231   */\n      0x00\n        /* \"#utility.yul\":6223:6238   */\n      revert\n        /* \"#utility.yul\":6250:6660   */\n    tag_42:\n        /* \"#utility.yul\":6290:6297   */\n      0x00\n        /* \"#utility.yul\":6313:6333   */\n      tag_135\n        /* \"#utility.yul\":6331:6332   */\n      dup3\n        /* \"#utility.yul\":6313:6333   */\n      tag_52\n      jump\t// in\n    tag_135:\n        /* \"#utility.yul\":6308:6333   */\n      swap2\n      pop\n        /* \"#utility.yul\":6347:6367   */\n      tag_136\n        /* \"#utility.yul\":6365:6366   */\n      dup4\n        /* \"#utility.yul\":6347:6367   */\n      tag_52\n      jump\t// in\n    tag_136:\n        /* \"#utility.yul\":6342:6367   */\n      swap3\n      pop\n        /* \"#utility.yul\":6402:6403   */\n      dup3\n        /* \"#utility.yul\":6399:6400   */\n      dup3\n        /* \"#utility.yul\":6395:6404   */\n      mul\n        /* \"#utility.yul\":6424:6454   */\n      tag_137\n        /* \"#utility.yul\":6442:6453   */\n      dup2\n        /* \"#utility.yul\":6424:6454   */\n      tag_52\n      jump\t// in\n    tag_137:\n        /* \"#utility.yul\":6413:6454   */\n      swap2\n      pop\n        /* \"#utility.yul\":6603:6604   */\n      dup3\n        /* \"#utility.yul\":6594:6601   */\n      dup3\n        /* \"#utility.yul\":6590:6605   */\n      div\n        /* \"#utility.yul\":6587:6588   */\n      dup5\n        /* \"#utility.yul\":6584:6606   */\n      eq\n        /* \"#utility.yul\":6564:6565   */\n      dup4\n        /* \"#utility.yul\":6557:6566   */\n      iszero\n        /* \"#utility.yul\":6537:6620   */\n      or\n        /* \"#utility.yul\":6514:6653   */\n      tag_138\n      jumpi\n        /* \"#utility.yul\":6633:6651   */\n      tag_139\n      tag_68\n      jump\t// in\n    tag_139:\n        /* \"#utility.yul\":6514:6653   */\n    tag_138:\n        /* \"#utility.yul\":6298:6660   */\n      pop\n        /* \"#utility.yul\":6250:6660   */\n      swap3\n      swap2\n      pop\n      pop\n      jump\t// out\n        /* \"#utility.yul\":6666:6846   */\n    tag_69:\n        /* \"#utility.yul\":6714:6791   */\n      0x4e487b7100000000000000000000000000000000000000000000000000000000\n        /* \"#utility.yul\":6711:6712   */\n      0x00\n        /* \"#utility.yul\":6704:6792   */\n      mstore\n        /* \"#utility.yul\":6811:6815   */\n      0x12\n        /* \"#utility.yul\":6808:6809   */\n      0x04\n        /* \"#utility.yul\":6801:6816   */\n      mstore\n        /* \"#utility.yul\":6835:6839   */\n      0x24\n        /* \"#utility.yul\":6832:6833   */\n      0x00\n        /* \"#utility.yul\":6825:6840   */\n      revert\n        /* \"#utility.yul\":6852:7037   */\n    tag_44:\n        /* \"#utility.yul\":6892:6893   */\n      0x00\n        /* \"#utility.yul\":6909:6929   */\n      tag_142\n        /* \"#utility.yul\":6927:6928   */\n      dup3\n        /* \"#utility.yul\":6909:6929   */\n      tag_52\n      jump\t// in\n    tag_142:\n        /* \"#utility.yul\":6904:6929   */\n      swap2\n      pop\n        /* \"#utility.yul\":6943:6963   */\n      tag_143\n        /* \"#utility.yul\":6961:6962   */\n      dup4\n        /* \"#utility.yul\":6943:6963   */\n      tag_52\n      jump\t// in\n    tag_143:\n        /* \"#utility.yul\":6938:6963   */\n      swap3\n      pop\n        /* \"#utility.yul\":6982:6983   */\n      dup3\n        /* \"#utility.yul\":6972:7007   */\n      tag_144\n      jumpi\n        /* \"#utility.yul\":6987:7005   */\n      tag_145\n      tag_69\n      jump\t// in\n    tag_145:\n        /* \"#utility.yul\":6972:7007   */\n    tag_144:\n        /* \"#utility.yul\":7029:7030   */\n      dup3\n        /* \"#utility.yul\":7026:7027   */\n      dup3\n        /* \"#utility.yul\":7022:7031   */\n      div\n        /* \"#utility.yul\":7017:7031   */\n      swap1\n      pop\n        /* \"#utility.yul\":6852:7037   */\n      swap3\n      swap2\n      pop\n      pop\n      jump\t// out\n\n    auxdata: 0xa26469706673582212206bb3ce9d73537b9ea06f7a7002a5bc9b950bc269403ab740da215af79a4285fb64736f6c634300081a0033\n}\n",
				"bytecode": {
					"linkReferences": {},
					"object": "608060405268056bc75e2d63100000600155348015601b575f80fd5b5073694aa1769357215de4fac081bf1f309adc32530660025f6101000a81548173ffffffffffffffffffffffffffffffffffffffff021916908373ffffffffffffffffffffffffffffffffffffffff1602179055506106648061007d5f395ff3fe60806040526004361061003e575f3560e01c80638edd6eb6146100425780639f883a0514610058578063b60d428814610094578063bea4dfb51461009e575b5f80fd5b34801561004d575f80fd5b506100566100c8565b005b348015610063575f80fd5b5061007e600480360381019061007991906102ec565b61011e565b60405161008b919061032f565b60405180910390f35b61009c610132565b005b3480156100a9575f80fd5b506100b26101c2565b6040516100bf9190610360565b60405180910390f35b683635c9adc5dea000006100db4761025f565b101561011c576040517f08c379a0000000000000000000000000000000000000000000000000000000008152600401610113906103d3565b60405180910390fd5b565b5f602052805f5260405f205f915090505481565b60015461013e3461025f565b101561017f576040517f08c379a00000000000000000000000000000000000000000000000000000000081526004016101769061043b565b60405180910390fd5b345f803373ffffffffffffffffffffffffffffffffffffffff1673ffffffffffffffffffffffffffffffffffffffff1681526020019081526020015f2081905550565b5f8060025f9054906101000a900473ffffffffffffffffffffffffffffffffffffffff1673ffffffffffffffffffffffffffffffffffffffff1663feaf968c6040518163ffffffff1660e01b815260040160a060405180830381865afa15801561022e573d5f803e3d5ffd5b505050506040513d601f19601f8201168201806040525081019061025291906104ec565b5050509150508091505090565b5f806102696101c2565b90506305f5e100818461027c9190610590565b61028691906105fe565b915050919050565b5f80fd5b5f73ffffffffffffffffffffffffffffffffffffffff82169050919050565b5f6102bb82610292565b9050919050565b6102cb816102b1565b81146102d5575f80fd5b50565b5f813590506102e6816102c2565b92915050565b5f602082840312156103015761030061028e565b5b5f61030e848285016102d8565b91505092915050565b5f819050919050565b61032981610317565b82525050565b5f6020820190506103425f830184610320565b92915050565b5f819050919050565b61035a81610348565b82525050565b5f6020820190506103735f830184610351565b92915050565b5f82825260208201905092915050565b7f546172676574206973206e6f74207265616368656400000000000000000000005f82015250565b5f6103bd601583610379565b91506103c882610389565b602082019050919050565b5f6020820190508181035f8301526103ea816103b1565b9050919050565b7f73656e64206d6f726520455448000000000000000000000000000000000000005f82015250565b5f610425600d83610379565b9150610430826103f1565b602082019050919050565b5f6020820190508181035f83015261045281610419565b9050919050565b5f69ffffffffffffffffffff82169050919050565b61047781610459565b8114610481575f80fd5b50565b5f815190506104928161046e565b92915050565b6104a181610348565b81146104ab575f80fd5b50565b5f815190506104bc81610498565b92915050565b6104cb81610317565b81146104d5575f80fd5b50565b5f815190506104e6816104c2565b92915050565b5f805f805f60a086880312156105055761050461028e565b5b5f61051288828901610484565b9550506020610523888289016104ae565b9450506040610534888289016104d8565b9350506060610545888289016104d8565b925050608061055688828901610484565b9150509295509295909350565b7f4e487b71000000000000000000000000000000000000000000000000000000005f52601160045260245ffd5b5f61059a82610317565b91506105a583610317565b92508282026105b381610317565b915082820484148315176105ca576105c9610563565b5b5092915050565b7f4e487b71000000000000000000000000000000000000000000000000000000005f52601260045260245ffd5b5f61060882610317565b915061061383610317565b925082610623576106226105d1565b5b82820490509291505056fea26469706673582212206bb3ce9d73537b9ea06f7a7002a5bc9b950bc269403ab740da215af79a4285fb64736f6c634300081a0033",
					"opcodes": "PUSH1 0x80 PUSH1 0x40 MSTORE PUSH9 0x56BC75E2D63100000 PUSH1 0x1 SSTORE CALLVALUE DUP1 ISZERO PUSH1 0x1B JUMPI PUSH0 DUP1 REVERT JUMPDEST POP PUSH20 0x694AA1769357215DE4FAC081BF1F309ADC325306 PUSH1 0x2 PUSH0 PUSH2 0x100 EXP DUP2 SLOAD DUP2 PUSH20 0xFFFFFFFFFFFFFFFFFFFFFFFFFFFFFFFFFFFFFFFF MUL NOT AND SWAP1 DUP4 PUSH20 0xFFFFFFFFFFFFFFFFFFFFFFFFFFFFFFFFFFFFFFFF AND MUL OR SWAP1 SSTORE POP PUSH2 0x664 DUP1 PUSH2 0x7D PUSH0 CODECOPY PUSH0 RETURN INVALID PUSH1 0x80 PUSH1 0x40 MSTORE PUSH1 0x4 CALLDATASIZE LT PUSH2 0x3E JUMPI PUSH0 CALLDATALOAD PUSH1 0xE0 SHR DUP1 PUSH4 0x8EDD6EB6 EQ PUSH2 0x42 JUMPI DUP1 PUSH4 0x9F883A05 EQ PUSH2 0x58 JUMPI DUP1 PUSH4 0xB60D4288 EQ PUSH2 0x94 JUMPI DUP1 PUSH4 0xBEA4DFB5 EQ PUSH2 0x9E JUMPI JUMPDEST PUSH0 DUP1 REVERT JUMPDEST CALLVALUE DUP1 ISZERO PUSH2 0x4D JUMPI PUSH0 DUP1 REVERT JUMPDEST POP PUSH2 0x56 PUSH2 0xC8 JUMP JUMPDEST STOP JUMPDEST CALLVALUE DUP1 ISZERO PUSH2 0x63 JUMPI PUSH0 DUP1 REVERT JUMPDEST POP PUSH2 0x7E PUSH1 0x4 DUP1 CALLDATASIZE SUB DUP2 ADD SWAP1 PUSH2 0x79 SWAP2 SWAP1 PUSH2 0x2EC JUMP JUMPDEST PUSH2 0x11E JUMP JUMPDEST PUSH1 0x40 MLOAD PUSH2 0x8B SWAP2 SWAP1 PUSH2 0x32F JUMP JUMPDEST PUSH1 0x40 MLOAD DUP1 SWAP2 SUB SWAP1 RETURN JUMPDEST PUSH2 0x9C PUSH2 0x132 JUMP JUMPDEST STOP JUMPDEST CALLVALUE DUP1 ISZERO PUSH2 0xA9 JUMPI PUSH0 DUP1 REVERT JUMPDEST POP PUSH2 0xB2 PUSH2 0x1C2 JUMP JUMPDEST PUSH1 0x40 MLOAD PUSH2 0xBF SWAP2 SWAP1 PUSH2 0x360 JUMP JUMPDEST PUSH1 0x40 MLOAD DUP1 SWAP2 SUB SWAP1 RETURN JUMPDEST PUSH9 0x3635C9ADC5DEA00000 PUSH2 0xDB SELFBALANCE PUSH2 0x25F JUMP JUMPDEST LT ISZERO PUSH2 0x11C JUMPI PUSH1 0x40 MLOAD PUSH32 0x8C379A000000000000000000000000000000000000000000000000000000000 DUP2 MSTORE PUSH1 0x4 ADD PUSH2 0x113 SWAP1 PUSH2 0x3D3 JUMP JUMPDEST PUSH1 0x40 MLOAD DUP1 SWAP2 SUB SWAP1 REVERT JUMPDEST JUMP JUMPDEST PUSH0 PUSH1 0x20 MSTORE DUP1 PUSH0 MSTORE PUSH1 0x40 PUSH0 KECCAK256 PUSH0 SWAP2 POP SWAP1 POP SLOAD DUP2 JUMP JUMPDEST PUSH1 0x1 SLOAD PUSH2 0x13E CALLVALUE PUSH2 0x25F JUMP JUMPDEST LT ISZERO PUSH2 0x17F JUMPI PUSH1 0x40 MLOAD PUSH32 0x8C379A000000000000000000000000000000000000000000000000000000000 DUP2 MSTORE PUSH1 0x4 ADD PUSH2 0x176 SWAP1 PUSH2 0x43B JUMP JUMPDEST PUSH1 0x40 MLOAD DUP1 SWAP2 SUB SWAP1 REVERT JUMPDEST CALLVALUE PUSH0 DUP1 CALLER PUSH20 0xFFFFFFFFFFFFFFFFFFFFFFFFFFFFFFFFFFFFFFFF AND PUSH20 0xFFFFFFFFFFFFFFFFFFFFFFFFFFFFFFFFFFFFFFFF AND DUP2 MSTORE PUSH1 0x20 ADD SWAP1 DUP2 MSTORE PUSH1 0x20 ADD PUSH0 KECCAK256 DUP2 SWAP1 SSTORE POP JUMP JUMPDEST PUSH0 DUP1 PUSH1 0x2 PUSH0 SWAP1 SLOAD SWAP1 PUSH2 0x100 EXP SWAP1 DIV PUSH20 0xFFFFFFFFFFFFFFFFFFFFFFFFFFFFFFFFFFFFFFFF AND PUSH20 0xFFFFFFFFFFFFFFFFFFFFFFFFFFFFFFFFFFFFFFFF AND PUSH4 0xFEAF968C PUSH1 0x40 MLOAD DUP2 PUSH4 0xFFFFFFFF AND PUSH1 0xE0 SHL DUP2 MSTORE PUSH1 0x4 ADD PUSH1 0xA0 PUSH1 0x40 MLOAD DUP1 DUP4 SUB DUP2 DUP7 GAS STATICCALL ISZERO DUP1 ISZERO PUSH2 0x22E JUMPI RETURNDATASIZE PUSH0 DUP1 RETURNDATACOPY RETURNDATASIZE PUSH0 REVERT JUMPDEST POP POP POP POP PUSH1 0x40 MLOAD RETURNDATASIZE PUSH1 0x1F NOT PUSH1 0x1F DUP3 ADD AND DUP3 ADD DUP1 PUSH1 0x40 MSTORE POP DUP2 ADD SWAP1 PUSH2 0x252 SWAP2 SWAP1 PUSH2 0x4EC JUMP JUMPDEST POP POP POP SWAP2 POP POP DUP1 SWAP2 POP POP SWAP1 JUMP JUMPDEST PUSH0 DUP1 PUSH2 0x269 PUSH2 0x1C2 JUMP JUMPDEST SWAP1 POP PUSH4 0x5F5E100 DUP2 DUP5 PUSH2 0x27C SWAP2 SWAP1 PUSH2 0x590 JUMP JUMPDEST PUSH2 0x286 SWAP2 SWAP1 PUSH2 0x5FE JUMP JUMPDEST SWAP2 POP POP SWAP2 SWAP1 POP JUMP JUMPDEST PUSH0 DUP1 REVERT JUMPDEST PUSH0 PUSH20 0xFFFFFFFFFFFFFFFFFFFFFFFFFFFFFFFFFFFFFFFF DUP3 AND SWAP1 POP SWAP2 SWAP1 POP JUMP JUMPDEST PUSH0 PUSH2 0x2BB DUP3 PUSH2 0x292 JUMP JUMPDEST SWAP1 POP SWAP2 SWAP1 POP JUMP JUMPDEST PUSH2 0x2CB DUP2 PUSH2 0x2B1 JUMP JUMPDEST DUP2 EQ PUSH2 0x2D5 JUMPI PUSH0 DUP1 REVERT JUMPDEST POP JUMP JUMPDEST PUSH0 DUP2 CALLDATALOAD SWAP1 POP PUSH2 0x2E6 DUP2 PUSH2 0x2C2 JUMP JUMPDEST SWAP3 SWAP2 POP POP JUMP JUMPDEST PUSH0 PUSH1 0x20 DUP3 DUP5 SUB SLT ISZERO PUSH2 0x301 JUMPI PUSH2 0x300 PUSH2 0x28E JUMP JUMPDEST JUMPDEST PUSH0 PUSH2 0x30E DUP5 DUP3 DUP6 ADD PUSH2 0x2D8 JUMP JUMPDEST SWAP2 POP POP SWAP3 SWAP2 POP POP JUMP JUMPDEST PUSH0 DUP2 SWAP1 POP SWAP2 SWAP1 POP JUMP JUMPDEST PUSH2 0x329 DUP2 PUSH2 0x317 JUMP JUMPDEST DUP3 MSTORE POP POP JUMP JUMPDEST PUSH0 PUSH1 0x20 DUP3 ADD SWAP1 POP PUSH2 0x342 PUSH0 DUP4 ADD DUP5 PUSH2 0x320 JUMP JUMPDEST SWAP3 SWAP2 POP POP JUMP JUMPDEST PUSH0 DUP2 SWAP1 POP SWAP2 SWAP1 POP JUMP JUMPDEST PUSH2 0x35A DUP2 PUSH2 0x348 JUMP JUMPDEST DUP3 MSTORE POP POP JUMP JUMPDEST PUSH0 PUSH1 0x20 DUP3 ADD SWAP1 POP PUSH2 0x373 PUSH0 DUP4 ADD DUP5 PUSH2 0x351 JUMP JUMPDEST SWAP3 SWAP2 POP POP JUMP JUMPDEST PUSH0 DUP3 DUP3 MSTORE PUSH1 0x20 DUP3 ADD SWAP1 POP SWAP3 SWAP2 POP POP JUMP JUMPDEST PUSH32 0x546172676574206973206E6F7420726561636865640000000000000000000000 PUSH0 DUP3 ADD MSTORE POP JUMP JUMPDEST PUSH0 PUSH2 0x3BD PUSH1 0x15 DUP4 PUSH2 0x379 JUMP JUMPDEST SWAP2 POP PUSH2 0x3C8 DUP3 PUSH2 0x389 JUMP JUMPDEST PUSH1 0x20 DUP3 ADD SWAP1 POP SWAP2 SWAP1 POP JUMP JUMPDEST PUSH0 PUSH1 0x20 DUP3 ADD SWAP1 POP DUP2 DUP2 SUB PUSH0 DUP4 ADD MSTORE PUSH2 0x3EA DUP2 PUSH2 0x3B1 JUMP JUMPDEST SWAP1 POP SWAP2 SWAP1 POP JUMP JUMPDEST PUSH32 0x73656E64206D6F72652045544800000000000000000000000000000000000000 PUSH0 DUP3 ADD MSTORE POP JUMP JUMPDEST PUSH0 PUSH2 0x425 PUSH1 0xD DUP4 PUSH2 0x379 JUMP JUMPDEST SWAP2 POP PUSH2 0x430 DUP3 PUSH2 0x3F1 JUMP JUMPDEST PUSH1 0x20 DUP3 ADD SWAP1 POP SWAP2 SWAP1 POP JUMP JUMPDEST PUSH0 PUSH1 0x20 DUP3 ADD SWAP1 POP DUP2 DUP2 SUB PUSH0 DUP4 ADD MSTORE PUSH2 0x452 DUP2 PUSH2 0x419 JUMP JUMPDEST SWAP1 POP SWAP2 SWAP1 POP JUMP JUMPDEST PUSH0 PUSH10 0xFFFFFFFFFFFFFFFFFFFF DUP3 AND SWAP1 POP SWAP2 SWAP1 POP JUMP JUMPDEST PUSH2 0x477 DUP2 PUSH2 0x459 JUMP JUMPDEST DUP2 EQ PUSH2 0x481 JUMPI PUSH0 DUP1 REVERT JUMPDEST POP JUMP JUMPDEST PUSH0 DUP2 MLOAD SWAP1 POP PUSH2 0x492 DUP2 PUSH2 0x46E JUMP JUMPDEST SWAP3 SWAP2 POP POP JUMP JUMPDEST PUSH2 0x4A1 DUP2 PUSH2 0x348 JUMP JUMPDEST DUP2 EQ PUSH2 0x4AB JUMPI PUSH0 DUP1 REVERT JUMPDEST POP JUMP JUMPDEST PUSH0 DUP2 MLOAD SWAP1 POP PUSH2 0x4BC DUP2 PUSH2 0x498 JUMP JUMPDEST SWAP3 SWAP2 POP POP JUMP JUMPDEST PUSH2 0x4CB DUP2 PUSH2 0x317 JUMP JUMPDEST DUP2 EQ PUSH2 0x4D5 JUMPI PUSH0 DUP1 REVERT JUMPDEST POP JUMP JUMPDEST PUSH0 DUP2 MLOAD SWAP1 POP PUSH2 0x4E6 DUP2 PUSH2 0x4C2 JUMP JUMPDEST SWAP3 SWAP2 POP POP JUMP JUMPDEST PUSH0 DUP1 PUSH0 DUP1 PUSH0 PUSH1 0xA0 DUP7 DUP9 SUB SLT ISZERO PUSH2 0x505 JUMPI PUSH2 0x504 PUSH2 0x28E JUMP JUMPDEST JUMPDEST PUSH0 PUSH2 0x512 DUP9 DUP3 DUP10 ADD PUSH2 0x484 JUMP JUMPDEST SWAP6 POP POP PUSH1 0x20 PUSH2 0x523 DUP9 DUP3 DUP10 ADD PUSH2 0x4AE JUMP JUMPDEST SWAP5 POP POP PUSH1 0x40 PUSH2 0x534 DUP9 DUP3 DUP10 ADD PUSH2 0x4D8 JUMP JUMPDEST SWAP4 POP POP PUSH1 0x60 PUSH2 0x545 DUP9 DUP3 DUP10 ADD PUSH2 0x4D8 JUMP JUMPDEST SWAP3 POP POP PUSH1 0x80 PUSH2 0x556 DUP9 DUP3 DUP10 ADD PUSH2 0x484 JUMP JUMPDEST SWAP2 POP POP SWAP3 SWAP6 POP SWAP3 SWAP6 SWAP1 SWAP4 POP JUMP JUMPDEST PUSH32 0x4E487B7100000000000000000000000000000000000000000000000000000000 PUSH0 MSTORE PUSH1 0x11 PUSH1 0x4 MSTORE PUSH1 0x24 PUSH0 REVERT JUMPDEST PUSH0 PUSH2 0x59A DUP3 PUSH2 0x317 JUMP JUMPDEST SWAP2 POP PUSH2 0x5A5 DUP4 PUSH2 0x317 JUMP JUMPDEST SWAP3 POP DUP3 DUP3 MUL PUSH2 0x5B3 DUP2 PUSH2 0x317 JUMP JUMPDEST SWAP2 POP DUP3 DUP3 DIV DUP5 EQ DUP4 ISZERO OR PUSH2 0x5CA JUMPI PUSH2 0x5C9 PUSH2 0x563 JUMP JUMPDEST JUMPDEST POP SWAP3 SWAP2 POP POP JUMP JUMPDEST PUSH32 0x4E487B7100000000000000000000000000000000000000000000000000000000 PUSH0 MSTORE PUSH1 0x12 PUSH1 0x4 MSTORE PUSH1 0x24 PUSH0 REVERT JUMPDEST PUSH0 PUSH2 0x608 DUP3 PUSH2 0x317 JUMP JUMPDEST SWAP2 POP PUSH2 0x613 DUP4 PUSH2 0x317 JUMP JUMPDEST SWAP3 POP DUP3 PUSH2 0x623 JUMPI PUSH2 0x622 PUSH2 0x5D1 JUMP JUMPDEST JUMPDEST DUP3 DUP3 DIV SWAP1 POP SWAP3 SWAP2 POP POP JUMP INVALID LOG2 PUSH5 0x6970667358 0x22 SLT KECCAK256 PUSH12 0xB3CE9D73537B9EA06F7A7002 0xA5 0xBC SWAP12 SWAP6 SIGNEXTEND 0xC2 PUSH10 0x403AB740DA215AF79A42 DUP6 0xFB PUSH5 0x736F6C6343 STOP ADDMOD BYTE STOP CALLER "
				},
				"gasEstimates": {
					"creation": {
						"codeDepositCost": "327200",
						"executionCost": "46738",
						"totalCost": "373938"
					},
					"external": {
						"fund()": "infinite",
						"fundersToAmount(address)": "2801",
						"getChainlinkDataFeedLatestAnswer()": "infinite",
						"getFund()": "infinite"
					},
					"internal": {
						"convertEthToUsd(uint256)": "infinite"
					}
				},
				"methodIdentifiers": {
					"fund()": "b60d4288",
					"fundersToAmount(address)": "9f883a05",
					"getChainlinkDataFeedLatestAnswer()": "bea4dfb5",
					"getFund()": "8edd6eb6"
				}
			},
			"storageLayout": {
				"storage": [
					{
						"astId": 53,
						"contract": "test/fundMe.sol:FundMe",
						"label": "fundersToAmount",
						"offset": 0,
						"slot": "0",
						"type": "t_mapping(t_address,t_uint256)"
					},
					{
						"astId": 60,
						"contract": "test/fundMe.sol:FundMe",
						"label": "MINIMUM_VALUE",
						"offset": 0,
						"slot": "1",
						"type": "t_uint256"
					},
					{
						"astId": 63,
						"contract": "test/fundMe.sol:FundMe",
						"label": "dataFeed",
						"offset": 0,
						"slot": "2",
						"type": "t_contract(AggregatorV3Interface)45"
					}
				],
				"types": {
					"t_address": {
						"encoding": "inplace",
						"label": "address",
						"numberOfBytes": "20"
					},
					"t_contract(AggregatorV3Interface)45": {
						"encoding": "inplace",
						"label": "contract AggregatorV3Interface",
						"numberOfBytes": "20"
					},
					"t_mapping(t_address,t_uint256)": {
						"encoding": "mapping",
						"key": "t_address",
						"label": "mapping(address => uint256)",
						"numberOfBytes": "32",
						"value": "t_uint256"
					},
					"t_uint256": {
						"encoding": "inplace",
						"label": "uint256",
						"numberOfBytes": "32"
					}
				}
			},
			"userdoc": {
				"kind": "user",
				"methods": {},
				"version": 1
			}
		}
	}
}