{
	"test/helloFactory.sol": {
		"HelloWorldFactory": {
			"abi": [
				{
					"inputs": [
						{
							"internalType": "uint256",
							"name": "_id",
							"type": "uint256"
						},
						{
							"internalType": "uint256",
							"name": "_index",
							"type": "uint256"
						}
					],
					"name": "callSayHelloFromFactory",
					"outputs": [
						{
							"internalType": "string",
							"name": "",
							"type": "string"
						}
					],
					"stateMutability": "view",
					"type": "function"
				},
				{
					"inputs": [
						{
							"internalType": "uint256",
							"name": "_id",
							"type": "uint256"
						},
						{
							"internalType": "uint256",
							"name": "_index",
							"type": "uint256"
						},
						{
							"internalType": "string",
							"name": "str",
							"type": "string"
						}
					],
					"name": "callSetHelloFromFactory",
					"outputs": [],
					"stateMutability": "nonpayable",
					"type": "function"
				},
				{
					"inputs": [],
					"name": "createHelloword",
					"outputs": [],
					"stateMutability": "nonpayable",
					"type": "function"
				}
			],
			"devdoc": {
				"kind": "dev",
				"methods": {},
				"version": 1
			},
			"evm": {
				"assembly": "    /* \"test/helloFactory.sol\":136:737  contract HelloWorldFactory {... */\n  mstore(0x40, 0x80)\n  callvalue\n  dup1\n  iszero\n  tag_1\n  jumpi\n  0x00\n  dup1\n  revert\ntag_1:\n  pop\n  dataSize(sub_0)\n  dup1\n  dataOffset(sub_0)\n  0x00\n  codecopy\n  0x00\n  return\nstop\n\nsub_0: assembly {\n        /* \"test/helloFactory.sol\":136:737  contract HelloWorldFactory {... */\n      mstore(0x40, 0x80)\n      callvalue\n      dup1\n      iszero\n      tag_1\n      jumpi\n      0x00\n      dup1\n      revert\n    tag_1:\n      pop\n      jumpi(tag_2, lt(calldatasize, 0x04))\n      shr(0xe0, calldataload(0x00))\n      dup1\n      0x0aa48b74\n      eq\n      tag_3\n      jumpi\n      dup1\n      0x53bf97dd\n      eq\n      tag_4\n      jumpi\n      dup1\n      0x91ad6ccb\n      eq\n      tag_5\n      jumpi\n    tag_2:\n      0x00\n      dup1\n      revert\n        /* \"test/helloFactory.sol\":213:310  function createHelloword() public {... */\n    tag_3:\n      tag_6\n      tag_7\n      jump\t// in\n    tag_6:\n      stop\n        /* \"test/helloFactory.sol\":446:593  function callSayHelloFromFactory(uint256 _id, uint256 _index) public view returns(string memory){... */\n    tag_4:\n      tag_8\n      0x04\n      dup1\n      calldatasize\n      sub\n      dup2\n      add\n      swap1\n      tag_9\n      swap2\n      swap1\n      tag_10\n      jump\t// in\n    tag_9:\n      tag_11\n      jump\t// in\n    tag_8:\n      mload(0x40)\n      tag_12\n      swap2\n      swap1\n      tag_13\n      jump\t// in\n    tag_12:\n      mload(0x40)\n      dup1\n      swap2\n      sub\n      swap1\n      return\n        /* \"test/helloFactory.sol\":599:734  function callSetHelloFromFactory(uint256 _id, uint256 _index,string memory str) public {... */\n    tag_5:\n      tag_14\n      0x04\n      dup1\n      calldatasize\n      sub\n      dup2\n      add\n      swap1\n      tag_15\n      swap2\n      swap1\n      tag_16\n      jump\t// in\n    tag_15:\n      tag_17\n      jump\t// in\n    tag_14:\n      stop\n        /* \"test/helloFactory.sol\":213:310  function createHelloword() public {... */\n    tag_7:\n        /* \"test/helloFactory.sol\":263:279  new HelloWorld() */\n      mload(0x40)\n      tag_19\n      swap1\n      tag_20\n      jump\t// in\n    tag_19:\n      mload(0x40)\n      dup1\n      swap2\n      sub\n      swap1\n      0x00\n      create\n      dup1\n      iszero\n      dup1\n      iszero\n      tag_21\n      jumpi\n      returndatasize\n      0x00\n      dup1\n      returndatacopy\n      revert(0x00, returndatasize)\n    tag_21:\n      pop\n        /* \"test/helloFactory.sol\":258:260  hw */\n      0x00\n      dup1\n        /* \"test/helloFactory.sol\":258:279  hw = new HelloWorld() */\n      0x0100\n      exp\n      dup2\n      sload\n      dup2\n      0xffffffffffffffffffffffffffffffffffffffff\n      mul\n      not\n      and\n      swap1\n      dup4\n      0xffffffffffffffffffffffffffffffffffffffff\n      and\n      mul\n      or\n      swap1\n      sstore\n      pop\n        /* \"test/helloFactory.sol\":290:293  hws */\n      0x01\n        /* \"test/helloFactory.sol\":299:301  hw */\n      0x00\n      dup1\n      sload\n      swap1\n      0x0100\n      exp\n      swap1\n      div\n      0xffffffffffffffffffffffffffffffffffffffff\n      and\n        /* \"test/helloFactory.sol\":290:302  hws.push(hw) */\n      swap1\n      dup1\n      0x01\n      dup2\n      sload\n      add\n      dup1\n      dup3\n      sstore\n      dup1\n      swap2\n      pop\n      pop\n      0x01\n      swap1\n      sub\n      swap1\n      0x00\n      mstore\n      keccak256(0x00, 0x20)\n      add\n      0x00\n      swap1\n      swap2\n      swap1\n      swap2\n      swap1\n      swap2\n      0x0100\n      exp\n      dup2\n      sload\n      dup2\n      0xffffffffffffffffffffffffffffffffffffffff\n      mul\n      not\n      and\n      swap1\n      dup4\n      0xffffffffffffffffffffffffffffffffffffffff\n      and\n      mul\n      or\n      swap1\n      sstore\n      pop\n        /* \"test/helloFactory.sol\":213:310  function createHelloword() public {... */\n      jump\t// out\n        /* \"test/helloFactory.sol\":446:593  function callSayHelloFromFactory(uint256 _id, uint256 _index) public view returns(string memory){... */\n    tag_11:\n        /* \"test/helloFactory.sol\":528:541  string memory */\n      0x60\n        /* \"test/helloFactory.sol\":560:563  hws */\n      0x01\n        /* \"test/helloFactory.sol\":564:570  _index */\n      dup3\n        /* \"test/helloFactory.sol\":560:571  hws[_index] */\n      dup2\n      sload\n      dup2\n      lt\n      tag_24\n      jumpi\n      tag_25\n      tag_26\n      jump\t// in\n    tag_25:\n    tag_24:\n      swap1\n      0x00\n      mstore\n      keccak256(0x00, 0x20)\n      add\n      0x00\n      swap1\n      sload\n      swap1\n      0x0100\n      exp\n      swap1\n      div\n      0xffffffffffffffffffffffffffffffffffffffff\n      and\n        /* \"test/helloFactory.sol\":560:580  hws[_index].sayHello */\n      0xffffffffffffffffffffffffffffffffffffffff\n      and\n      0x42257b31\n        /* \"test/helloFactory.sol\":581:584  _id */\n      dup5\n        /* \"test/helloFactory.sol\":560:585  hws[_index].sayHello(_id) */\n      mload(0x40)\n      dup3\n      0xffffffff\n      and\n      0xe0\n      shl\n      dup2\n      mstore\n      0x04\n      add\n      tag_28\n      swap2\n      swap1\n      tag_29\n      jump\t// in\n    tag_28:\n      0x00\n      mload(0x40)\n      dup1\n      dup4\n      sub\n      dup2\n      dup7\n      gas\n      staticcall\n      iszero\n      dup1\n      iszero\n      tag_31\n      jumpi\n      returndatasize\n      0x00\n      dup1\n      returndatacopy\n      revert(0x00, returndatasize)\n    tag_31:\n      pop\n      pop\n      pop\n      pop\n      mload(0x40)\n      returndatasize\n      0x00\n      dup3\n      returndatacopy\n      returndatasize\n      not(0x1f)\n      0x1f\n      dup3\n      add\n      and\n      dup3\n      add\n      dup1\n      0x40\n      mstore\n      pop\n      dup2\n      add\n      swap1\n      tag_32\n      swap2\n      swap1\n      tag_33\n      jump\t// in\n    tag_32:\n        /* \"test/helloFactory.sol\":553:585  return hws[_index].sayHello(_id) */\n      swap1\n      pop\n        /* \"test/helloFactory.sol\":446:593  function callSayHelloFromFactory(uint256 _id, uint256 _index) public view returns(string memory){... */\n      swap3\n      swap2\n      pop\n      pop\n      jump\t// out\n        /* \"test/helloFactory.sol\":599:734  function callSetHelloFromFactory(uint256 _id, uint256 _index,string memory str) public {... */\n    tag_17:\n        /* \"test/helloFactory.sol\":697:700  hws */\n      0x01\n        /* \"test/helloFactory.sol\":701:707  _index */\n      dup3\n        /* \"test/helloFactory.sol\":697:708  hws[_index] */\n      dup2\n      sload\n      dup2\n      lt\n      tag_35\n      jumpi\n      tag_36\n      tag_26\n      jump\t// in\n    tag_36:\n    tag_35:\n      swap1\n      0x00\n      mstore\n      keccak256(0x00, 0x20)\n      add\n      0x00\n      swap1\n      sload\n      swap1\n      0x0100\n      exp\n      swap1\n      div\n      0xffffffffffffffffffffffffffffffffffffffff\n      and\n        /* \"test/helloFactory.sol\":697:717  hws[_index].setHello */\n      0xffffffffffffffffffffffffffffffffffffffff\n      and\n      0xfc0574e4\n        /* \"test/helloFactory.sol\":718:721  _id */\n      dup5\n        /* \"test/helloFactory.sol\":722:725  str */\n      dup4\n        /* \"test/helloFactory.sol\":697:726  hws[_index].setHello(_id,str) */\n      mload(0x40)\n      dup4\n      0xffffffff\n      and\n      0xe0\n      shl\n      dup2\n      mstore\n      0x04\n      add\n      tag_38\n      swap3\n      swap2\n      swap1\n      tag_39\n      jump\t// in\n    tag_38:\n      0x00\n      mload(0x40)\n      dup1\n      dup4\n      sub\n      dup2\n      0x00\n      dup8\n      dup1\n      extcodesize\n      iszero\n      dup1\n      iszero\n      tag_40\n      jumpi\n      0x00\n      dup1\n      revert\n    tag_40:\n      pop\n      gas\n      call\n      iszero\n      dup1\n      iszero\n      tag_42\n      jumpi\n      returndatasize\n      0x00\n      dup1\n      returndatacopy\n      revert(0x00, returndatasize)\n    tag_42:\n      pop\n      pop\n      pop\n      pop\n        /* \"test/helloFactory.sol\":599:734  function callSetHelloFromFactory(uint256 _id, uint256 _index,string memory str) public {... */\n      pop\n      pop\n      pop\n      jump\t// out\n    tag_20:\n      dataSize(sub_0)\n      dup1\n      dataOffset(sub_0)\n      dup4\n      codecopy\n      add\n      swap1\n      jump\t// out\n        /* \"#utility.yul\":7:82   */\n    tag_43:\n        /* \"#utility.yul\":40:46   */\n      0x00\n        /* \"#utility.yul\":73:75   */\n      0x40\n        /* \"#utility.yul\":67:76   */\n      mload\n        /* \"#utility.yul\":57:76   */\n      swap1\n      pop\n        /* \"#utility.yul\":7:82   */\n      swap1\n      jump\t// out\n        /* \"#utility.yul\":88:205   */\n    tag_44:\n        /* \"#utility.yul\":197:198   */\n      0x00\n        /* \"#utility.yul\":194:195   */\n      dup1\n        /* \"#utility.yul\":187:199   */\n      revert\n        /* \"#utility.yul\":211:328   */\n    tag_45:\n        /* \"#utility.yul\":320:321   */\n      0x00\n        /* \"#utility.yul\":317:318   */\n      dup1\n        /* \"#utility.yul\":310:322   */\n      revert\n        /* \"#utility.yul\":334:411   */\n    tag_46:\n        /* \"#utility.yul\":371:378   */\n      0x00\n        /* \"#utility.yul\":400:405   */\n      dup2\n        /* \"#utility.yul\":389:405   */\n      swap1\n      pop\n        /* \"#utility.yul\":334:411   */\n      swap2\n      swap1\n      pop\n      jump\t// out\n        /* \"#utility.yul\":417:539   */\n    tag_47:\n        /* \"#utility.yul\":490:514   */\n      tag_72\n        /* \"#utility.yul\":508:513   */\n      dup2\n        /* \"#utility.yul\":490:514   */\n      tag_46\n      jump\t// in\n    tag_72:\n        /* \"#utility.yul\":483:488   */\n      dup2\n        /* \"#utility.yul\":480:515   */\n      eq\n        /* \"#utility.yul\":470:533   */\n      tag_73\n      jumpi\n        /* \"#utility.yul\":529:530   */\n      0x00\n        /* \"#utility.yul\":526:527   */\n      dup1\n        /* \"#utility.yul\":519:531   */\n      revert\n        /* \"#utility.yul\":470:533   */\n    tag_73:\n        /* \"#utility.yul\":417:539   */\n      pop\n      jump\t// out\n        /* \"#utility.yul\":545:684   */\n    tag_48:\n        /* \"#utility.yul\":591:596   */\n      0x00\n        /* \"#utility.yul\":629:635   */\n      dup2\n        /* \"#utility.yul\":616:636   */\n      calldataload\n        /* \"#utility.yul\":607:636   */\n      swap1\n      pop\n        /* \"#utility.yul\":645:678   */\n      tag_75\n        /* \"#utility.yul\":672:677   */\n      dup2\n        /* \"#utility.yul\":645:678   */\n      tag_47\n      jump\t// in\n    tag_75:\n        /* \"#utility.yul\":545:684   */\n      swap3\n      swap2\n      pop\n      pop\n      jump\t// out\n        /* \"#utility.yul\":690:1164   */\n    tag_10:\n        /* \"#utility.yul\":758:764   */\n      0x00\n        /* \"#utility.yul\":766:772   */\n      dup1\n        /* \"#utility.yul\":815:817   */\n      0x40\n        /* \"#utility.yul\":803:812   */\n      dup4\n        /* \"#utility.yul\":794:801   */\n      dup6\n        /* \"#utility.yul\":790:813   */\n      sub\n        /* \"#utility.yul\":786:818   */\n      slt\n        /* \"#utility.yul\":783:902   */\n      iszero\n      tag_77\n      jumpi\n        /* \"#utility.yul\":821:900   */\n      tag_78\n      tag_44\n      jump\t// in\n    tag_78:\n        /* \"#utility.yul\":783:902   */\n    tag_77:\n        /* \"#utility.yul\":941:942   */\n      0x00\n        /* \"#utility.yul\":966:1019   */\n      tag_79\n        /* \"#utility.yul\":1011:1018   */\n      dup6\n        /* \"#utility.yul\":1002:1008   */\n      dup3\n        /* \"#utility.yul\":991:1000   */\n      dup7\n        /* \"#utility.yul\":987:1009   */\n      add\n        /* \"#utility.yul\":966:1019   */\n      tag_48\n      jump\t// in\n    tag_79:\n        /* \"#utility.yul\":956:1019   */\n      swap3\n      pop\n        /* \"#utility.yul\":912:1029   */\n      pop\n        /* \"#utility.yul\":1068:1070   */\n      0x20\n        /* \"#utility.yul\":1094:1147   */\n      tag_80\n        /* \"#utility.yul\":1139:1146   */\n      dup6\n        /* \"#utility.yul\":1130:1136   */\n      dup3\n        /* \"#utility.yul\":1119:1128   */\n      dup7\n        /* \"#utility.yul\":1115:1137   */\n      add\n        /* \"#utility.yul\":1094:1147   */\n      tag_48\n      jump\t// in\n    tag_80:\n        /* \"#utility.yul\":1084:1147   */\n      swap2\n      pop\n        /* \"#utility.yul\":1039:1157   */\n      pop\n        /* \"#utility.yul\":690:1164   */\n      swap3\n      pop\n      swap3\n      swap1\n      pop\n      jump\t// out\n        /* \"#utility.yul\":1170:1269   */\n    tag_49:\n        /* \"#utility.yul\":1222:1228   */\n      0x00\n        /* \"#utility.yul\":1256:1261   */\n      dup2\n        /* \"#utility.yul\":1250:1262   */\n      mload\n        /* \"#utility.yul\":1240:1262   */\n      swap1\n      pop\n        /* \"#utility.yul\":1170:1269   */\n      swap2\n      swap1\n      pop\n      jump\t// out\n        /* \"#utility.yul\":1275:1444   */\n    tag_50:\n        /* \"#utility.yul\":1359:1370   */\n      0x00\n        /* \"#utility.yul\":1393:1399   */\n      dup3\n        /* \"#utility.yul\":1388:1391   */\n      dup3\n        /* \"#utility.yul\":1381:1400   */\n      mstore\n        /* \"#utility.yul\":1433:1437   */\n      0x20\n        /* \"#utility.yul\":1428:1431   */\n      dup3\n        /* \"#utility.yul\":1424:1438   */\n      add\n        /* \"#utility.yul\":1409:1438   */\n      swap1\n      pop\n        /* \"#utility.yul\":1275:1444   */\n      swap3\n      swap2\n      pop\n      pop\n      jump\t// out\n        /* \"#utility.yul\":1450:1698   */\n    tag_51:\n        /* \"#utility.yul\":1532:1533   */\n      0x00\n        /* \"#utility.yul\":1542:1655   */\n    tag_84:\n        /* \"#utility.yul\":1556:1562   */\n      dup4\n        /* \"#utility.yul\":1553:1554   */\n      dup2\n        /* \"#utility.yul\":1550:1563   */\n      lt\n        /* \"#utility.yul\":1542:1655   */\n      iszero\n      tag_86\n      jumpi\n        /* \"#utility.yul\":1641:1642   */\n      dup1\n        /* \"#utility.yul\":1636:1639   */\n      dup3\n        /* \"#utility.yul\":1632:1643   */\n      add\n        /* \"#utility.yul\":1626:1644   */\n      mload\n        /* \"#utility.yul\":1622:1623   */\n      dup2\n        /* \"#utility.yul\":1617:1620   */\n      dup5\n        /* \"#utility.yul\":1613:1624   */\n      add\n        /* \"#utility.yul\":1606:1645   */\n      mstore\n        /* \"#utility.yul\":1578:1580   */\n      0x20\n        /* \"#utility.yul\":1575:1576   */\n      dup2\n        /* \"#utility.yul\":1571:1581   */\n      add\n        /* \"#utility.yul\":1566:1581   */\n      swap1\n      pop\n        /* \"#utility.yul\":1542:1655   */\n      jump(tag_84)\n    tag_86:\n        /* \"#utility.yul\":1689:1690   */\n      0x00\n        /* \"#utility.yul\":1680:1686   */\n      dup5\n        /* \"#utility.yul\":1675:1678   */\n      dup5\n        /* \"#utility.yul\":1671:1687   */\n      add\n        /* \"#utility.yul\":1664:1691   */\n      mstore\n        /* \"#utility.yul\":1512:1698   */\n      pop\n        /* \"#utility.yul\":1450:1698   */\n      pop\n      pop\n      pop\n      jump\t// out\n        /* \"#utility.yul\":1704:1806   */\n    tag_52:\n        /* \"#utility.yul\":1745:1751   */\n      0x00\n        /* \"#utility.yul\":1796:1798   */\n      0x1f\n        /* \"#utility.yul\":1792:1799   */\n      not\n        /* \"#utility.yul\":1787:1789   */\n      0x1f\n        /* \"#utility.yul\":1780:1785   */\n      dup4\n        /* \"#utility.yul\":1776:1790   */\n      add\n        /* \"#utility.yul\":1772:1800   */\n      and\n        /* \"#utility.yul\":1762:1800   */\n      swap1\n      pop\n        /* \"#utility.yul\":1704:1806   */\n      swap2\n      swap1\n      pop\n      jump\t// out\n        /* \"#utility.yul\":1812:2189   */\n    tag_53:\n        /* \"#utility.yul\":1900:1903   */\n      0x00\n        /* \"#utility.yul\":1928:1967   */\n      tag_89\n        /* \"#utility.yul\":1961:1966   */\n      dup3\n        /* \"#utility.yul\":1928:1967   */\n      tag_49\n      jump\t// in\n    tag_89:\n        /* \"#utility.yul\":1983:2054   */\n      tag_90\n        /* \"#utility.yul\":2047:2053   */\n      dup2\n        /* \"#utility.yul\":2042:2045   */\n      dup6\n        /* \"#utility.yul\":1983:2054   */\n      tag_50\n      jump\t// in\n    tag_90:\n        /* \"#utility.yul\":1976:2054   */\n      swap4\n      pop\n        /* \"#utility.yul\":2063:2128   */\n      tag_91\n        /* \"#utility.yul\":2121:2127   */\n      dup2\n        /* \"#utility.yul\":2116:2119   */\n      dup6\n        /* \"#utility.yul\":2109:2113   */\n      0x20\n        /* \"#utility.yul\":2102:2107   */\n      dup7\n        /* \"#utility.yul\":2098:2114   */\n      add\n        /* \"#utility.yul\":2063:2128   */\n      tag_51\n      jump\t// in\n    tag_91:\n        /* \"#utility.yul\":2153:2182   */\n      tag_92\n        /* \"#utility.yul\":2175:2181   */\n      dup2\n        /* \"#utility.yul\":2153:2182   */\n      tag_52\n      jump\t// in\n    tag_92:\n        /* \"#utility.yul\":2148:2151   */\n      dup5\n        /* \"#utility.yul\":2144:2183   */\n      add\n        /* \"#utility.yul\":2137:2183   */\n      swap2\n      pop\n        /* \"#utility.yul\":1904:2189   */\n      pop\n        /* \"#utility.yul\":1812:2189   */\n      swap3\n      swap2\n      pop\n      pop\n      jump\t// out\n        /* \"#utility.yul\":2195:2508   */\n    tag_13:\n        /* \"#utility.yul\":2308:2312   */\n      0x00\n        /* \"#utility.yul\":2346:2348   */\n      0x20\n        /* \"#utility.yul\":2335:2344   */\n      dup3\n        /* \"#utility.yul\":2331:2349   */\n      add\n        /* \"#utility.yul\":2323:2349   */\n      swap1\n      pop\n        /* \"#utility.yul\":2395:2404   */\n      dup2\n        /* \"#utility.yul\":2389:2393   */\n      dup2\n        /* \"#utility.yul\":2385:2405   */\n      sub\n        /* \"#utility.yul\":2381:2382   */\n      0x00\n        /* \"#utility.yul\":2370:2379   */\n      dup4\n        /* \"#utility.yul\":2366:2383   */\n      add\n        /* \"#utility.yul\":2359:2406   */\n      mstore\n        /* \"#utility.yul\":2423:2501   */\n      tag_94\n        /* \"#utility.yul\":2496:2500   */\n      dup2\n        /* \"#utility.yul\":2487:2493   */\n      dup5\n        /* \"#utility.yul\":2423:2501   */\n      tag_53\n      jump\t// in\n    tag_94:\n        /* \"#utility.yul\":2415:2501   */\n      swap1\n      pop\n        /* \"#utility.yul\":2195:2508   */\n      swap3\n      swap2\n      pop\n      pop\n      jump\t// out\n        /* \"#utility.yul\":2514:2631   */\n    tag_54:\n        /* \"#utility.yul\":2623:2624   */\n      0x00\n        /* \"#utility.yul\":2620:2621   */\n      dup1\n        /* \"#utility.yul\":2613:2625   */\n      revert\n        /* \"#utility.yul\":2637:2754   */\n    tag_55:\n        /* \"#utility.yul\":2746:2747   */\n      0x00\n        /* \"#utility.yul\":2743:2744   */\n      dup1\n        /* \"#utility.yul\":2736:2748   */\n      revert\n        /* \"#utility.yul\":2760:2940   */\n    tag_56:\n        /* \"#utility.yul\":2808:2885   */\n      0x4e487b7100000000000000000000000000000000000000000000000000000000\n        /* \"#utility.yul\":2805:2806   */\n      0x00\n        /* \"#utility.yul\":2798:2886   */\n      mstore\n        /* \"#utility.yul\":2905:2909   */\n      0x41\n        /* \"#utility.yul\":2902:2903   */\n      0x04\n        /* \"#utility.yul\":2895:2910   */\n      mstore\n        /* \"#utility.yul\":2929:2933   */\n      0x24\n        /* \"#utility.yul\":2926:2927   */\n      0x00\n        /* \"#utility.yul\":2919:2934   */\n      revert\n        /* \"#utility.yul\":2946:3227   */\n    tag_57:\n        /* \"#utility.yul\":3029:3056   */\n      tag_99\n        /* \"#utility.yul\":3051:3055   */\n      dup3\n        /* \"#utility.yul\":3029:3056   */\n      tag_52\n      jump\t// in\n    tag_99:\n        /* \"#utility.yul\":3021:3027   */\n      dup2\n        /* \"#utility.yul\":3017:3057   */\n      add\n        /* \"#utility.yul\":3159:3165   */\n      dup2\n        /* \"#utility.yul\":3147:3157   */\n      dup2\n        /* \"#utility.yul\":3144:3166   */\n      lt\n        /* \"#utility.yul\":3123:3141   */\n      0xffffffffffffffff\n        /* \"#utility.yul\":3111:3121   */\n      dup3\n        /* \"#utility.yul\":3108:3142   */\n      gt\n        /* \"#utility.yul\":3105:3167   */\n      or\n        /* \"#utility.yul\":3102:3190   */\n      iszero\n      tag_100\n      jumpi\n        /* \"#utility.yul\":3170:3188   */\n      tag_101\n      tag_56\n      jump\t// in\n    tag_101:\n        /* \"#utility.yul\":3102:3190   */\n    tag_100:\n        /* \"#utility.yul\":3210:3220   */\n      dup1\n        /* \"#utility.yul\":3206:3208   */\n      0x40\n        /* \"#utility.yul\":3199:3221   */\n      mstore\n        /* \"#utility.yul\":2989:3227   */\n      pop\n        /* \"#utility.yul\":2946:3227   */\n      pop\n      pop\n      jump\t// out\n        /* \"#utility.yul\":3233:3362   */\n    tag_58:\n        /* \"#utility.yul\":3267:3273   */\n      0x00\n        /* \"#utility.yul\":3294:3314   */\n      tag_103\n      tag_43\n      jump\t// in\n    tag_103:\n        /* \"#utility.yul\":3284:3314   */\n      swap1\n      pop\n        /* \"#utility.yul\":3323:3356   */\n      tag_104\n        /* \"#utility.yul\":3351:3355   */\n      dup3\n        /* \"#utility.yul\":3343:3349   */\n      dup3\n        /* \"#utility.yul\":3323:3356   */\n      tag_57\n      jump\t// in\n    tag_104:\n        /* \"#utility.yul\":3233:3362   */\n      swap2\n      swap1\n      pop\n      jump\t// out\n        /* \"#utility.yul\":3368:3676   */\n    tag_59:\n        /* \"#utility.yul\":3430:3434   */\n      0x00\n        /* \"#utility.yul\":3520:3538   */\n      0xffffffffffffffff\n        /* \"#utility.yul\":3512:3518   */\n      dup3\n        /* \"#utility.yul\":3509:3539   */\n      gt\n        /* \"#utility.yul\":3506:3562   */\n      iszero\n      tag_106\n      jumpi\n        /* \"#utility.yul\":3542:3560   */\n      tag_107\n      tag_56\n      jump\t// in\n    tag_107:\n        /* \"#utility.yul\":3506:3562   */\n    tag_106:\n        /* \"#utility.yul\":3580:3609   */\n      tag_108\n        /* \"#utility.yul\":3602:3608   */\n      dup3\n        /* \"#utility.yul\":3580:3609   */\n      tag_52\n      jump\t// in\n    tag_108:\n        /* \"#utility.yul\":3572:3609   */\n      swap1\n      pop\n        /* \"#utility.yul\":3664:3668   */\n      0x20\n        /* \"#utility.yul\":3658:3662   */\n      dup2\n        /* \"#utility.yul\":3654:3669   */\n      add\n        /* \"#utility.yul\":3646:3669   */\n      swap1\n      pop\n        /* \"#utility.yul\":3368:3676   */\n      swap2\n      swap1\n      pop\n      jump\t// out\n        /* \"#utility.yul\":3682:3830   */\n    tag_60:\n        /* \"#utility.yul\":3780:3786   */\n      dup3\n        /* \"#utility.yul\":3775:3778   */\n      dup2\n        /* \"#utility.yul\":3770:3773   */\n      dup4\n        /* \"#utility.yul\":3757:3787   */\n      calldatacopy\n        /* \"#utility.yul\":3821:3822   */\n      0x00\n        /* \"#utility.yul\":3812:3818   */\n      dup4\n        /* \"#utility.yul\":3807:3810   */\n      dup4\n        /* \"#utility.yul\":3803:3819   */\n      add\n        /* \"#utility.yul\":3796:3823   */\n      mstore\n        /* \"#utility.yul\":3682:3830   */\n      pop\n      pop\n      pop\n      jump\t// out\n        /* \"#utility.yul\":3836:4261   */\n    tag_61:\n        /* \"#utility.yul\":3914:3919   */\n      0x00\n        /* \"#utility.yul\":3939:4005   */\n      tag_111\n        /* \"#utility.yul\":3955:4004   */\n      tag_112\n        /* \"#utility.yul\":3997:4003   */\n      dup5\n        /* \"#utility.yul\":3955:4004   */\n      tag_59\n      jump\t// in\n    tag_112:\n        /* \"#utility.yul\":3939:4005   */\n      tag_58\n      jump\t// in\n    tag_111:\n        /* \"#utility.yul\":3930:4005   */\n      swap1\n      pop\n        /* \"#utility.yul\":4028:4034   */\n      dup3\n        /* \"#utility.yul\":4021:4026   */\n      dup2\n        /* \"#utility.yul\":4014:4035   */\n      mstore\n        /* \"#utility.yul\":4066:4070   */\n      0x20\n        /* \"#utility.yul\":4059:4064   */\n      dup2\n        /* \"#utility.yul\":4055:4071   */\n      add\n        /* \"#utility.yul\":4104:4107   */\n      dup5\n        /* \"#utility.yul\":4095:4101   */\n      dup5\n        /* \"#utility.yul\":4090:4093   */\n      dup5\n        /* \"#utility.yul\":4086:4102   */\n      add\n        /* \"#utility.yul\":4083:4108   */\n      gt\n        /* \"#utility.yul\":4080:4192   */\n      iszero\n      tag_113\n      jumpi\n        /* \"#utility.yul\":4111:4190   */\n      tag_114\n      tag_55\n      jump\t// in\n    tag_114:\n        /* \"#utility.yul\":4080:4192   */\n    tag_113:\n        /* \"#utility.yul\":4201:4255   */\n      tag_115\n        /* \"#utility.yul\":4248:4254   */\n      dup5\n        /* \"#utility.yul\":4243:4246   */\n      dup3\n        /* \"#utility.yul\":4238:4241   */\n      dup6\n        /* \"#utility.yul\":4201:4255   */\n      tag_60\n      jump\t// in\n    tag_115:\n        /* \"#utility.yul\":3920:4261   */\n      pop\n        /* \"#utility.yul\":3836:4261   */\n      swap4\n      swap3\n      pop\n      pop\n      pop\n      jump\t// out\n        /* \"#utility.yul\":4281:4621   */\n    tag_62:\n        /* \"#utility.yul\":4337:4342   */\n      0x00\n        /* \"#utility.yul\":4386:4389   */\n      dup3\n        /* \"#utility.yul\":4379:4383   */\n      0x1f\n        /* \"#utility.yul\":4371:4377   */\n      dup4\n        /* \"#utility.yul\":4367:4384   */\n      add\n        /* \"#utility.yul\":4363:4390   */\n      slt\n        /* \"#utility.yul\":4353:4475   */\n      tag_117\n      jumpi\n        /* \"#utility.yul\":4394:4473   */\n      tag_118\n      tag_54\n      jump\t// in\n    tag_118:\n        /* \"#utility.yul\":4353:4475   */\n    tag_117:\n        /* \"#utility.yul\":4511:4517   */\n      dup2\n        /* \"#utility.yul\":4498:4518   */\n      calldataload\n        /* \"#utility.yul\":4536:4615   */\n      tag_119\n        /* \"#utility.yul\":4611:4614   */\n      dup5\n        /* \"#utility.yul\":4603:4609   */\n      dup3\n        /* \"#utility.yul\":4596:4600   */\n      0x20\n        /* \"#utility.yul\":4588:4594   */\n      dup7\n        /* \"#utility.yul\":4584:4601   */\n      add\n        /* \"#utility.yul\":4536:4615   */\n      tag_61\n      jump\t// in\n    tag_119:\n        /* \"#utility.yul\":4527:4615   */\n      swap2\n      pop\n        /* \"#utility.yul\":4343:4621   */\n      pop\n        /* \"#utility.yul\":4281:4621   */\n      swap3\n      swap2\n      pop\n      pop\n      jump\t// out\n        /* \"#utility.yul\":4627:5426   */\n    tag_16:\n        /* \"#utility.yul\":4714:4720   */\n      0x00\n        /* \"#utility.yul\":4722:4728   */\n      dup1\n        /* \"#utility.yul\":4730:4736   */\n      0x00\n        /* \"#utility.yul\":4779:4781   */\n      0x60\n        /* \"#utility.yul\":4767:4776   */\n      dup5\n        /* \"#utility.yul\":4758:4765   */\n      dup7\n        /* \"#utility.yul\":4754:4777   */\n      sub\n        /* \"#utility.yul\":4750:4782   */\n      slt\n        /* \"#utility.yul\":4747:4866   */\n      iszero\n      tag_121\n      jumpi\n        /* \"#utility.yul\":4785:4864   */\n      tag_122\n      tag_44\n      jump\t// in\n    tag_122:\n        /* \"#utility.yul\":4747:4866   */\n    tag_121:\n        /* \"#utility.yul\":4905:4906   */\n      0x00\n        /* \"#utility.yul\":4930:4983   */\n      tag_123\n        /* \"#utility.yul\":4975:4982   */\n      dup7\n        /* \"#utility.yul\":4966:4972   */\n      dup3\n        /* \"#utility.yul\":4955:4964   */\n      dup8\n        /* \"#utility.yul\":4951:4973   */\n      add\n        /* \"#utility.yul\":4930:4983   */\n      tag_48\n      jump\t// in\n    tag_123:\n        /* \"#utility.yul\":4920:4983   */\n      swap4\n      pop\n        /* \"#utility.yul\":4876:4993   */\n      pop\n        /* \"#utility.yul\":5032:5034   */\n      0x20\n        /* \"#utility.yul\":5058:5111   */\n      tag_124\n        /* \"#utility.yul\":5103:5110   */\n      dup7\n        /* \"#utility.yul\":5094:5100   */\n      dup3\n        /* \"#utility.yul\":5083:5092   */\n      dup8\n        /* \"#utility.yul\":5079:5101   */\n      add\n        /* \"#utility.yul\":5058:5111   */\n      tag_48\n      jump\t// in\n    tag_124:\n        /* \"#utility.yul\":5048:5111   */\n      swap3\n      pop\n        /* \"#utility.yul\":5003:5121   */\n      pop\n        /* \"#utility.yul\":5188:5190   */\n      0x40\n        /* \"#utility.yul\":5177:5186   */\n      dup5\n        /* \"#utility.yul\":5173:5191   */\n      add\n        /* \"#utility.yul\":5160:5192   */\n      calldataload\n        /* \"#utility.yul\":5219:5237   */\n      0xffffffffffffffff\n        /* \"#utility.yul\":5211:5217   */\n      dup2\n        /* \"#utility.yul\":5208:5238   */\n      gt\n        /* \"#utility.yul\":5205:5322   */\n      iszero\n      tag_125\n      jumpi\n        /* \"#utility.yul\":5241:5320   */\n      tag_126\n      tag_45\n      jump\t// in\n    tag_126:\n        /* \"#utility.yul\":5205:5322   */\n    tag_125:\n        /* \"#utility.yul\":5346:5409   */\n      tag_127\n        /* \"#utility.yul\":5401:5408   */\n      dup7\n        /* \"#utility.yul\":5392:5398   */\n      dup3\n        /* \"#utility.yul\":5381:5390   */\n      dup8\n        /* \"#utility.yul\":5377:5399   */\n      add\n        /* \"#utility.yul\":5346:5409   */\n      tag_62\n      jump\t// in\n    tag_127:\n        /* \"#utility.yul\":5336:5409   */\n      swap2\n      pop\n        /* \"#utility.yul\":5131:5419   */\n      pop\n        /* \"#utility.yul\":4627:5426   */\n      swap3\n      pop\n      swap3\n      pop\n      swap3\n      jump\t// out\n        /* \"#utility.yul\":5432:5612   */\n    tag_26:\n        /* \"#utility.yul\":5480:5557   */\n      0x4e487b7100000000000000000000000000000000000000000000000000000000\n        /* \"#utility.yul\":5477:5478   */\n      0x00\n        /* \"#utility.yul\":5470:5558   */\n      mstore\n        /* \"#utility.yul\":5577:5581   */\n      0x32\n        /* \"#utility.yul\":5574:5575   */\n      0x04\n        /* \"#utility.yul\":5567:5582   */\n      mstore\n        /* \"#utility.yul\":5601:5605   */\n      0x24\n        /* \"#utility.yul\":5598:5599   */\n      0x00\n        /* \"#utility.yul\":5591:5606   */\n      revert\n        /* \"#utility.yul\":5618:5736   */\n    tag_63:\n        /* \"#utility.yul\":5705:5729   */\n      tag_130\n        /* \"#utility.yul\":5723:5728   */\n      dup2\n        /* \"#utility.yul\":5705:5729   */\n      tag_46\n      jump\t// in\n    tag_130:\n        /* \"#utility.yul\":5700:5703   */\n      dup3\n        /* \"#utility.yul\":5693:5730   */\n      mstore\n        /* \"#utility.yul\":5618:5736   */\n      pop\n      pop\n      jump\t// out\n        /* \"#utility.yul\":5742:5964   */\n    tag_29:\n        /* \"#utility.yul\":5835:5839   */\n      0x00\n        /* \"#utility.yul\":5873:5875   */\n      0x20\n        /* \"#utility.yul\":5862:5871   */\n      dup3\n        /* \"#utility.yul\":5858:5876   */\n      add\n        /* \"#utility.yul\":5850:5876   */\n      swap1\n      pop\n        /* \"#utility.yul\":5886:5957   */\n      tag_132\n        /* \"#utility.yul\":5954:5955   */\n      0x00\n        /* \"#utility.yul\":5943:5952   */\n      dup4\n        /* \"#utility.yul\":5939:5956   */\n      add\n        /* \"#utility.yul\":5930:5936   */\n      dup5\n        /* \"#utility.yul\":5886:5957   */\n      tag_63\n      jump\t// in\n    tag_132:\n        /* \"#utility.yul\":5742:5964   */\n      swap3\n      swap2\n      pop\n      pop\n      jump\t// out\n        /* \"#utility.yul\":5970:6404   */\n    tag_64:\n        /* \"#utility.yul\":6059:6064   */\n      0x00\n        /* \"#utility.yul\":6084:6150   */\n      tag_134\n        /* \"#utility.yul\":6100:6149   */\n      tag_135\n        /* \"#utility.yul\":6142:6148   */\n      dup5\n        /* \"#utility.yul\":6100:6149   */\n      tag_59\n      jump\t// in\n    tag_135:\n        /* \"#utility.yul\":6084:6150   */\n      tag_58\n      jump\t// in\n    tag_134:\n        /* \"#utility.yul\":6075:6150   */\n      swap1\n      pop\n        /* \"#utility.yul\":6173:6179   */\n      dup3\n        /* \"#utility.yul\":6166:6171   */\n      dup2\n        /* \"#utility.yul\":6159:6180   */\n      mstore\n        /* \"#utility.yul\":6211:6215   */\n      0x20\n        /* \"#utility.yul\":6204:6209   */\n      dup2\n        /* \"#utility.yul\":6200:6216   */\n      add\n        /* \"#utility.yul\":6249:6252   */\n      dup5\n        /* \"#utility.yul\":6240:6246   */\n      dup5\n        /* \"#utility.yul\":6235:6238   */\n      dup5\n        /* \"#utility.yul\":6231:6247   */\n      add\n        /* \"#utility.yul\":6228:6253   */\n      gt\n        /* \"#utility.yul\":6225:6337   */\n      iszero\n      tag_136\n      jumpi\n        /* \"#utility.yul\":6256:6335   */\n      tag_137\n      tag_55\n      jump\t// in\n    tag_137:\n        /* \"#utility.yul\":6225:6337   */\n    tag_136:\n        /* \"#utility.yul\":6346:6398   */\n      tag_138\n        /* \"#utility.yul\":6391:6397   */\n      dup5\n        /* \"#utility.yul\":6386:6389   */\n      dup3\n        /* \"#utility.yul\":6381:6384   */\n      dup6\n        /* \"#utility.yul\":6346:6398   */\n      tag_51\n      jump\t// in\n    tag_138:\n        /* \"#utility.yul\":6065:6404   */\n      pop\n        /* \"#utility.yul\":5970:6404   */\n      swap4\n      swap3\n      pop\n      pop\n      pop\n      jump\t// out\n        /* \"#utility.yul\":6424:6779   */\n    tag_65:\n        /* \"#utility.yul\":6491:6496   */\n      0x00\n        /* \"#utility.yul\":6540:6543   */\n      dup3\n        /* \"#utility.yul\":6533:6537   */\n      0x1f\n        /* \"#utility.yul\":6525:6531   */\n      dup4\n        /* \"#utility.yul\":6521:6538   */\n      add\n        /* \"#utility.yul\":6517:6544   */\n      slt\n        /* \"#utility.yul\":6507:6629   */\n      tag_140\n      jumpi\n        /* \"#utility.yul\":6548:6627   */\n      tag_141\n      tag_54\n      jump\t// in\n    tag_141:\n        /* \"#utility.yul\":6507:6629   */\n    tag_140:\n        /* \"#utility.yul\":6658:6664   */\n      dup2\n        /* \"#utility.yul\":6652:6665   */\n      mload\n        /* \"#utility.yul\":6683:6773   */\n      tag_142\n        /* \"#utility.yul\":6769:6772   */\n      dup5\n        /* \"#utility.yul\":6761:6767   */\n      dup3\n        /* \"#utility.yul\":6754:6758   */\n      0x20\n        /* \"#utility.yul\":6746:6752   */\n      dup7\n        /* \"#utility.yul\":6742:6759   */\n      add\n        /* \"#utility.yul\":6683:6773   */\n      tag_64\n      jump\t// in\n    tag_142:\n        /* \"#utility.yul\":6674:6773   */\n      swap2\n      pop\n        /* \"#utility.yul\":6497:6779   */\n      pop\n        /* \"#utility.yul\":6424:6779   */\n      swap3\n      swap2\n      pop\n      pop\n      jump\t// out\n        /* \"#utility.yul\":6785:7309   */\n    tag_33:\n        /* \"#utility.yul\":6865:6871   */\n      0x00\n        /* \"#utility.yul\":6914:6916   */\n      0x20\n        /* \"#utility.yul\":6902:6911   */\n      dup3\n        /* \"#utility.yul\":6893:6900   */\n      dup5\n        /* \"#utility.yul\":6889:6912   */\n      sub\n        /* \"#utility.yul\":6885:6917   */\n      slt\n        /* \"#utility.yul\":6882:7001   */\n      iszero\n      tag_144\n      jumpi\n        /* \"#utility.yul\":6920:6999   */\n      tag_145\n      tag_44\n      jump\t// in\n    tag_145:\n        /* \"#utility.yul\":6882:7001   */\n    tag_144:\n        /* \"#utility.yul\":7061:7062   */\n      0x00\n        /* \"#utility.yul\":7050:7059   */\n      dup3\n        /* \"#utility.yul\":7046:7063   */\n      add\n        /* \"#utility.yul\":7040:7064   */\n      mload\n        /* \"#utility.yul\":7091:7109   */\n      0xffffffffffffffff\n        /* \"#utility.yul\":7083:7089   */\n      dup2\n        /* \"#utility.yul\":7080:7110   */\n      gt\n        /* \"#utility.yul\":7077:7194   */\n      iszero\n      tag_146\n      jumpi\n        /* \"#utility.yul\":7113:7192   */\n      tag_147\n      tag_45\n      jump\t// in\n    tag_147:\n        /* \"#utility.yul\":7077:7194   */\n    tag_146:\n        /* \"#utility.yul\":7218:7292   */\n      tag_148\n        /* \"#utility.yul\":7284:7291   */\n      dup5\n        /* \"#utility.yul\":7275:7281   */\n      dup3\n        /* \"#utility.yul\":7264:7273   */\n      dup6\n        /* \"#utility.yul\":7260:7282   */\n      add\n        /* \"#utility.yul\":7218:7292   */\n      tag_65\n      jump\t// in\n    tag_148:\n        /* \"#utility.yul\":7208:7292   */\n      swap2\n      pop\n        /* \"#utility.yul\":7011:7302   */\n      pop\n        /* \"#utility.yul\":6785:7309   */\n      swap3\n      swap2\n      pop\n      pop\n      jump\t// out\n        /* \"#utility.yul\":7315:7738   */\n    tag_39:\n        /* \"#utility.yul\":7456:7460   */\n      0x00\n        /* \"#utility.yul\":7494:7496   */\n      0x40\n        /* \"#utility.yul\":7483:7492   */\n      dup3\n        /* \"#utility.yul\":7479:7497   */\n      add\n        /* \"#utility.yul\":7471:7497   */\n      swap1\n      pop\n        /* \"#utility.yul\":7507:7578   */\n      tag_150\n        /* \"#utility.yul\":7575:7576   */\n      0x00\n        /* \"#utility.yul\":7564:7573   */\n      dup4\n        /* \"#utility.yul\":7560:7577   */\n      add\n        /* \"#utility.yul\":7551:7557   */\n      dup6\n        /* \"#utility.yul\":7507:7578   */\n      tag_63\n      jump\t// in\n    tag_150:\n        /* \"#utility.yul\":7625:7634   */\n      dup2\n        /* \"#utility.yul\":7619:7623   */\n      dup2\n        /* \"#utility.yul\":7615:7635   */\n      sub\n        /* \"#utility.yul\":7610:7612   */\n      0x20\n        /* \"#utility.yul\":7599:7608   */\n      dup4\n        /* \"#utility.yul\":7595:7613   */\n      add\n        /* \"#utility.yul\":7588:7636   */\n      mstore\n        /* \"#utility.yul\":7653:7731   */\n      tag_151\n        /* \"#utility.yul\":7726:7730   */\n      dup2\n        /* \"#utility.yul\":7717:7723   */\n      dup5\n        /* \"#utility.yul\":7653:7731   */\n      tag_53\n      jump\t// in\n    tag_151:\n        /* \"#utility.yul\":7645:7731   */\n      swap1\n      pop\n        /* \"#utility.yul\":7315:7738   */\n      swap4\n      swap3\n      pop\n      pop\n      pop\n      jump\t// out\n    stop\n\n    sub_0: assembly {\n            /* \"test/test.sol\":65:655  contract HelloWorld{... */\n          mstore(0x40, 0x80)\n          callvalue\n          dup1\n          iszero\n          tag_1\n          jumpi\n          0x00\n          dup1\n          revert\n        tag_1:\n          pop\n          dataSize(sub_0)\n          dup1\n          dataOffset(sub_0)\n          0x00\n          codecopy\n          0x00\n          return\n        stop\n\n        sub_0: assembly {\n                /* \"test/test.sol\":65:655  contract HelloWorld{... */\n              mstore(0x40, 0x80)\n              callvalue\n              dup1\n              iszero\n              tag_1\n              jumpi\n              0x00\n              dup1\n              revert\n            tag_1:\n              pop\n              jumpi(tag_2, lt(calldatasize, 0x04))\n              shr(0xe0, calldataload(0x00))\n              dup1\n              0x42257b31\n              eq\n              tag_3\n              jumpi\n              dup1\n              0xfc0574e4\n              eq\n              tag_4\n              jumpi\n            tag_2:\n              0x00\n              dup1\n              revert\n                /* \"test/test.sol\":246:364  function sayHello(uint256 _id) public view returns(string memory){... */\n            tag_3:\n              tag_5\n              0x04\n              dup1\n              calldatasize\n              sub\n              dup2\n              add\n              swap1\n              tag_6\n              swap2\n              swap1\n              tag_7\n              jump\t// in\n            tag_6:\n              tag_8\n              jump\t// in\n            tag_5:\n              mload(0x40)\n              tag_9\n              swap2\n              swap1\n              tag_10\n              jump\t// in\n            tag_9:\n              mload(0x40)\n              dup1\n              swap2\n              sub\n              swap1\n              return\n                /* \"test/test.sol\":369:510  function setHello(uint256 _id,string memory str) public {... */\n            tag_4:\n              tag_11\n              0x04\n              dup1\n              calldatasize\n              sub\n              dup2\n              add\n              swap1\n              tag_12\n              swap2\n              swap1\n              tag_13\n              jump\t// in\n            tag_12:\n              tag_14\n              jump\t// in\n            tag_11:\n              stop\n                /* \"test/test.sol\":246:364  function sayHello(uint256 _id) public view returns(string memory){... */\n            tag_8:\n                /* \"test/test.sol\":297:310  string memory */\n              0x60\n                /* \"test/test.sol\":325:357  addinfo(infoMapping[_id].phrase) */\n              tag_16\n                /* \"test/test.sol\":333:344  infoMapping */\n              0x00\n                /* \"test/test.sol\":333:349  infoMapping[_id] */\n              dup1\n                /* \"test/test.sol\":345:348  _id */\n              dup5\n                /* \"test/test.sol\":333:349  infoMapping[_id] */\n              dup2\n              mstore\n              0x20\n              add\n              swap1\n              dup2\n              mstore\n              0x20\n              add\n              0x00\n              keccak256\n                /* \"test/test.sol\":333:356  infoMapping[_id].phrase */\n              0x00\n              add\n                /* \"test/test.sol\":325:357  addinfo(infoMapping[_id].phrase) */\n              dup1\n              sload\n              tag_17\n              swap1\n              tag_18\n              jump\t// in\n            tag_17:\n              dup1\n              0x1f\n              add\n              0x20\n              dup1\n              swap2\n              div\n              mul\n              0x20\n              add\n              mload(0x40)\n              swap1\n              dup2\n              add\n              0x40\n              mstore\n              dup1\n              swap3\n              swap2\n              swap1\n              dup2\n              dup2\n              mstore\n              0x20\n              add\n              dup3\n              dup1\n              sload\n              tag_19\n              swap1\n              tag_18\n              jump\t// in\n            tag_19:\n              dup1\n              iszero\n              tag_20\n              jumpi\n              dup1\n              0x1f\n              lt\n              tag_21\n              jumpi\n              0x0100\n              dup1\n              dup4\n              sload\n              div\n              mul\n              dup4\n              mstore\n              swap2\n              0x20\n              add\n              swap2\n              jump(tag_20)\n            tag_21:\n              dup3\n              add\n              swap2\n              swap1\n              0x00\n              mstore\n              keccak256(0x00, 0x20)\n              swap1\n            tag_22:\n              dup2\n              sload\n              dup2\n              mstore\n              swap1\n              0x01\n              add\n              swap1\n              0x20\n              add\n              dup1\n              dup4\n              gt\n              tag_22\n              jumpi\n              dup3\n              swap1\n              sub\n              0x1f\n              and\n              dup3\n              add\n              swap2\n            tag_20:\n              pop\n              pop\n              pop\n              pop\n              pop\n                /* \"test/test.sol\":325:332  addinfo */\n              tag_23\n                /* \"test/test.sol\":325:357  addinfo(infoMapping[_id].phrase) */\n              jump\t// in\n            tag_16:\n                /* \"test/test.sol\":318:357  return addinfo(infoMapping[_id].phrase) */\n              swap1\n              pop\n                /* \"test/test.sol\":246:364  function sayHello(uint256 _id) public view returns(string memory){... */\n              swap2\n              swap1\n              pop\n              jump\t// out\n                /* \"test/test.sol\":369:510  function setHello(uint256 _id,string memory str) public {... */\n            tag_14:\n                /* \"test/test.sol\":432:448  Info memory info */\n              0x00\n                /* \"test/test.sol\":451:475  Info(str,_id,msg.sender) */\n              mload(0x40)\n              dup1\n              0x60\n              add\n              0x40\n              mstore\n              dup1\n                /* \"test/test.sol\":456:459  str */\n              dup4\n                /* \"test/test.sol\":451:475  Info(str,_id,msg.sender) */\n              dup2\n              mstore\n              0x20\n              add\n                /* \"test/test.sol\":460:463  _id */\n              dup5\n                /* \"test/test.sol\":451:475  Info(str,_id,msg.sender) */\n              dup2\n              mstore\n              0x20\n              add\n                /* \"test/test.sol\":464:474  msg.sender */\n              caller\n                /* \"test/test.sol\":451:475  Info(str,_id,msg.sender) */\n              0xffffffffffffffffffffffffffffffffffffffff\n              and\n              dup2\n              mstore\n              pop\n                /* \"test/test.sol\":432:475  Info memory info = Info(str,_id,msg.sender) */\n              swap1\n              pop\n                /* \"test/test.sol\":499:503  info */\n              dup1\n                /* \"test/test.sol\":482:493  infoMapping */\n              0x00\n                /* \"test/test.sol\":482:498  infoMapping[_id] */\n              dup1\n                /* \"test/test.sol\":494:497  _id */\n              dup6\n                /* \"test/test.sol\":482:498  infoMapping[_id] */\n              dup2\n              mstore\n              0x20\n              add\n              swap1\n              dup2\n              mstore\n              0x20\n              add\n              0x00\n              keccak256\n                /* \"test/test.sol\":482:503  infoMapping[_id]=info */\n              0x00\n              dup3\n              add\n              mload\n              dup2\n              0x00\n              add\n              swap1\n              dup2\n              tag_25\n              swap2\n              swap1\n              tag_26\n              jump\t// in\n            tag_25:\n              pop\n              0x20\n              dup3\n              add\n              mload\n              dup2\n              0x01\n              add\n              sstore\n              0x40\n              dup3\n              add\n              mload\n              dup2\n              0x02\n              add\n              exp(0x0100, 0x00)\n              dup2\n              sload\n              dup2\n              0xffffffffffffffffffffffffffffffffffffffff\n              mul\n              not\n              and\n              swap1\n              dup4\n              0xffffffffffffffffffffffffffffffffffffffff\n              and\n              mul\n              or\n              swap1\n              sstore\n              pop\n              swap1\n              pop\n              pop\n                /* \"test/test.sol\":425:510  {... */\n              pop\n                /* \"test/test.sol\":369:510  function setHello(uint256 _id,string memory str) public {... */\n              pop\n              pop\n              jump\t// out\n                /* \"test/test.sol\":515:652  function addinfo(string memory str) internal pure returns(string memory){... */\n            tag_23:\n                /* \"test/test.sol\":573:586  string memory */\n              0x60\n                /* \"test/test.sol\":615:618  str */\n              dup2\n                /* \"test/test.sol\":601:645  string.concat(str, \"from frank's contract.\") */\n              add(0x20, mload(0x40))\n              tag_28\n              swap2\n              swap1\n              tag_29\n              jump\t// in\n            tag_28:\n              mload(0x40)\n              0x20\n              dup2\n              dup4\n              sub\n              sub\n              dup2\n              mstore\n              swap1\n              0x40\n              mstore\n                /* \"test/test.sol\":594:645  return string.concat(str, \"from frank's contract.\") */\n              swap1\n              pop\n                /* \"test/test.sol\":515:652  function addinfo(string memory str) internal pure returns(string memory){... */\n              swap2\n              swap1\n              pop\n              jump\t// out\n                /* \"#utility.yul\":7:82   */\n            tag_30:\n                /* \"#utility.yul\":40:46   */\n              0x00\n                /* \"#utility.yul\":73:75   */\n              0x40\n                /* \"#utility.yul\":67:76   */\n              mload\n                /* \"#utility.yul\":57:76   */\n              swap1\n              pop\n                /* \"#utility.yul\":7:82   */\n              swap1\n              jump\t// out\n                /* \"#utility.yul\":88:205   */\n            tag_31:\n                /* \"#utility.yul\":197:198   */\n              0x00\n                /* \"#utility.yul\":194:195   */\n              dup1\n                /* \"#utility.yul\":187:199   */\n              revert\n                /* \"#utility.yul\":211:328   */\n            tag_32:\n                /* \"#utility.yul\":320:321   */\n              0x00\n                /* \"#utility.yul\":317:318   */\n              dup1\n                /* \"#utility.yul\":310:322   */\n              revert\n                /* \"#utility.yul\":334:411   */\n            tag_33:\n                /* \"#utility.yul\":371:378   */\n              0x00\n                /* \"#utility.yul\":400:405   */\n              dup2\n                /* \"#utility.yul\":389:405   */\n              swap1\n              pop\n                /* \"#utility.yul\":334:411   */\n              swap2\n              swap1\n              pop\n              jump\t// out\n                /* \"#utility.yul\":417:539   */\n            tag_34:\n                /* \"#utility.yul\":490:514   */\n              tag_75\n                /* \"#utility.yul\":508:513   */\n              dup2\n                /* \"#utility.yul\":490:514   */\n              tag_33\n              jump\t// in\n            tag_75:\n                /* \"#utility.yul\":483:488   */\n              dup2\n                /* \"#utility.yul\":480:515   */\n              eq\n                /* \"#utility.yul\":470:533   */\n              tag_76\n              jumpi\n                /* \"#utility.yul\":529:530   */\n              0x00\n                /* \"#utility.yul\":526:527   */\n              dup1\n                /* \"#utility.yul\":519:531   */\n              revert\n                /* \"#utility.yul\":470:533   */\n            tag_76:\n                /* \"#utility.yul\":417:539   */\n              pop\n              jump\t// out\n                /* \"#utility.yul\":545:684   */\n            tag_35:\n                /* \"#utility.yul\":591:596   */\n              0x00\n                /* \"#utility.yul\":629:635   */\n              dup2\n                /* \"#utility.yul\":616:636   */\n              calldataload\n                /* \"#utility.yul\":607:636   */\n              swap1\n              pop\n                /* \"#utility.yul\":645:678   */\n              tag_78\n                /* \"#utility.yul\":672:677   */\n              dup2\n                /* \"#utility.yul\":645:678   */\n              tag_34\n              jump\t// in\n            tag_78:\n                /* \"#utility.yul\":545:684   */\n              swap3\n              swap2\n              pop\n              pop\n              jump\t// out\n                /* \"#utility.yul\":690:1019   */\n            tag_7:\n                /* \"#utility.yul\":749:755   */\n              0x00\n                /* \"#utility.yul\":798:800   */\n              0x20\n                /* \"#utility.yul\":786:795   */\n              dup3\n                /* \"#utility.yul\":777:784   */\n              dup5\n                /* \"#utility.yul\":773:796   */\n              sub\n                /* \"#utility.yul\":769:801   */\n              slt\n                /* \"#utility.yul\":766:885   */\n              iszero\n              tag_80\n              jumpi\n                /* \"#utility.yul\":804:883   */\n              tag_81\n              tag_31\n              jump\t// in\n            tag_81:\n                /* \"#utility.yul\":766:885   */\n            tag_80:\n                /* \"#utility.yul\":924:925   */\n              0x00\n                /* \"#utility.yul\":949:1002   */\n              tag_82\n                /* \"#utility.yul\":994:1001   */\n              dup5\n                /* \"#utility.yul\":985:991   */\n              dup3\n                /* \"#utility.yul\":974:983   */\n              dup6\n                /* \"#utility.yul\":970:992   */\n              add\n                /* \"#utility.yul\":949:1002   */\n              tag_35\n              jump\t// in\n            tag_82:\n                /* \"#utility.yul\":939:1002   */\n              swap2\n              pop\n                /* \"#utility.yul\":895:1012   */\n              pop\n                /* \"#utility.yul\":690:1019   */\n              swap3\n              swap2\n              pop\n              pop\n              jump\t// out\n                /* \"#utility.yul\":1025:1124   */\n            tag_36:\n                /* \"#utility.yul\":1077:1083   */\n              0x00\n                /* \"#utility.yul\":1111:1116   */\n              dup2\n                /* \"#utility.yul\":1105:1117   */\n              mload\n                /* \"#utility.yul\":1095:1117   */\n              swap1\n              pop\n                /* \"#utility.yul\":1025:1124   */\n              swap2\n              swap1\n              pop\n              jump\t// out\n                /* \"#utility.yul\":1130:1299   */\n            tag_37:\n                /* \"#utility.yul\":1214:1225   */\n              0x00\n                /* \"#utility.yul\":1248:1254   */\n              dup3\n                /* \"#utility.yul\":1243:1246   */\n              dup3\n                /* \"#utility.yul\":1236:1255   */\n              mstore\n                /* \"#utility.yul\":1288:1292   */\n              0x20\n                /* \"#utility.yul\":1283:1286   */\n              dup3\n                /* \"#utility.yul\":1279:1293   */\n              add\n                /* \"#utility.yul\":1264:1293   */\n              swap1\n              pop\n                /* \"#utility.yul\":1130:1299   */\n              swap3\n              swap2\n              pop\n              pop\n              jump\t// out\n                /* \"#utility.yul\":1305:1553   */\n            tag_38:\n                /* \"#utility.yul\":1387:1388   */\n              0x00\n                /* \"#utility.yul\":1397:1510   */\n            tag_86:\n                /* \"#utility.yul\":1411:1417   */\n              dup4\n                /* \"#utility.yul\":1408:1409   */\n              dup2\n                /* \"#utility.yul\":1405:1418   */\n              lt\n                /* \"#utility.yul\":1397:1510   */\n              iszero\n              tag_88\n              jumpi\n                /* \"#utility.yul\":1496:1497   */\n              dup1\n                /* \"#utility.yul\":1491:1494   */\n              dup3\n                /* \"#utility.yul\":1487:1498   */\n              add\n                /* \"#utility.yul\":1481:1499   */\n              mload\n                /* \"#utility.yul\":1477:1478   */\n              dup2\n                /* \"#utility.yul\":1472:1475   */\n              dup5\n                /* \"#utility.yul\":1468:1479   */\n              add\n                /* \"#utility.yul\":1461:1500   */\n              mstore\n                /* \"#utility.yul\":1433:1435   */\n              0x20\n                /* \"#utility.yul\":1430:1431   */\n              dup2\n                /* \"#utility.yul\":1426:1436   */\n              add\n                /* \"#utility.yul\":1421:1436   */\n              swap1\n              pop\n                /* \"#utility.yul\":1397:1510   */\n              jump(tag_86)\n            tag_88:\n                /* \"#utility.yul\":1544:1545   */\n              0x00\n                /* \"#utility.yul\":1535:1541   */\n              dup5\n                /* \"#utility.yul\":1530:1533   */\n              dup5\n                /* \"#utility.yul\":1526:1542   */\n              add\n                /* \"#utility.yul\":1519:1546   */\n              mstore\n                /* \"#utility.yul\":1367:1553   */\n              pop\n                /* \"#utility.yul\":1305:1553   */\n              pop\n              pop\n              pop\n              jump\t// out\n                /* \"#utility.yul\":1559:1661   */\n            tag_39:\n                /* \"#utility.yul\":1600:1606   */\n              0x00\n                /* \"#utility.yul\":1651:1653   */\n              0x1f\n                /* \"#utility.yul\":1647:1654   */\n              not\n                /* \"#utility.yul\":1642:1644   */\n              0x1f\n                /* \"#utility.yul\":1635:1640   */\n              dup4\n                /* \"#utility.yul\":1631:1645   */\n              add\n                /* \"#utility.yul\":1627:1655   */\n              and\n                /* \"#utility.yul\":1617:1655   */\n              swap1\n              pop\n                /* \"#utility.yul\":1559:1661   */\n              swap2\n              swap1\n              pop\n              jump\t// out\n                /* \"#utility.yul\":1667:2044   */\n            tag_40:\n                /* \"#utility.yul\":1755:1758   */\n              0x00\n                /* \"#utility.yul\":1783:1822   */\n              tag_91\n                /* \"#utility.yul\":1816:1821   */\n              dup3\n                /* \"#utility.yul\":1783:1822   */\n              tag_36\n              jump\t// in\n            tag_91:\n                /* \"#utility.yul\":1838:1909   */\n              tag_92\n                /* \"#utility.yul\":1902:1908   */\n              dup2\n                /* \"#utility.yul\":1897:1900   */\n              dup6\n                /* \"#utility.yul\":1838:1909   */\n              tag_37\n              jump\t// in\n            tag_92:\n                /* \"#utility.yul\":1831:1909   */\n              swap4\n              pop\n                /* \"#utility.yul\":1918:1983   */\n              tag_93\n                /* \"#utility.yul\":1976:1982   */\n              dup2\n                /* \"#utility.yul\":1971:1974   */\n              dup6\n                /* \"#utility.yul\":1964:1968   */\n              0x20\n                /* \"#utility.yul\":1957:1962   */\n              dup7\n                /* \"#utility.yul\":1953:1969   */\n              add\n                /* \"#utility.yul\":1918:1983   */\n              tag_38\n              jump\t// in\n            tag_93:\n                /* \"#utility.yul\":2008:2037   */\n              tag_94\n                /* \"#utility.yul\":2030:2036   */\n              dup2\n                /* \"#utility.yul\":2008:2037   */\n              tag_39\n              jump\t// in\n            tag_94:\n                /* \"#utility.yul\":2003:2006   */\n              dup5\n                /* \"#utility.yul\":1999:2038   */\n              add\n                /* \"#utility.yul\":1992:2038   */\n              swap2\n              pop\n                /* \"#utility.yul\":1759:2044   */\n              pop\n                /* \"#utility.yul\":1667:2044   */\n              swap3\n              swap2\n              pop\n              pop\n              jump\t// out\n                /* \"#utility.yul\":2050:2363   */\n            tag_10:\n                /* \"#utility.yul\":2163:2167   */\n              0x00\n                /* \"#utility.yul\":2201:2203   */\n              0x20\n                /* \"#utility.yul\":2190:2199   */\n              dup3\n                /* \"#utility.yul\":2186:2204   */\n              add\n                /* \"#utility.yul\":2178:2204   */\n              swap1\n              pop\n                /* \"#utility.yul\":2250:2259   */\n              dup2\n                /* \"#utility.yul\":2244:2248   */\n              dup2\n                /* \"#utility.yul\":2240:2260   */\n              sub\n                /* \"#utility.yul\":2236:2237   */\n              0x00\n                /* \"#utility.yul\":2225:2234   */\n              dup4\n                /* \"#utility.yul\":2221:2238   */\n              add\n                /* \"#utility.yul\":2214:2261   */\n              mstore\n                /* \"#utility.yul\":2278:2356   */\n              tag_96\n                /* \"#utility.yul\":2351:2355   */\n              dup2\n                /* \"#utility.yul\":2342:2348   */\n              dup5\n                /* \"#utility.yul\":2278:2356   */\n              tag_40\n              jump\t// in\n            tag_96:\n                /* \"#utility.yul\":2270:2356   */\n              swap1\n              pop\n                /* \"#utility.yul\":2050:2363   */\n              swap3\n              swap2\n              pop\n              pop\n              jump\t// out\n                /* \"#utility.yul\":2369:2486   */\n            tag_41:\n                /* \"#utility.yul\":2478:2479   */\n              0x00\n                /* \"#utility.yul\":2475:2476   */\n              dup1\n                /* \"#utility.yul\":2468:2480   */\n              revert\n                /* \"#utility.yul\":2492:2609   */\n            tag_42:\n                /* \"#utility.yul\":2601:2602   */\n              0x00\n                /* \"#utility.yul\":2598:2599   */\n              dup1\n                /* \"#utility.yul\":2591:2603   */\n              revert\n                /* \"#utility.yul\":2615:2795   */\n            tag_43:\n                /* \"#utility.yul\":2663:2740   */\n              0x4e487b7100000000000000000000000000000000000000000000000000000000\n                /* \"#utility.yul\":2660:2661   */\n              0x00\n                /* \"#utility.yul\":2653:2741   */\n              mstore\n                /* \"#utility.yul\":2760:2764   */\n              0x41\n                /* \"#utility.yul\":2757:2758   */\n              0x04\n                /* \"#utility.yul\":2750:2765   */\n              mstore\n                /* \"#utility.yul\":2784:2788   */\n              0x24\n                /* \"#utility.yul\":2781:2782   */\n              0x00\n                /* \"#utility.yul\":2774:2789   */\n              revert\n                /* \"#utility.yul\":2801:3082   */\n            tag_44:\n                /* \"#utility.yul\":2884:2911   */\n              tag_101\n                /* \"#utility.yul\":2906:2910   */\n              dup3\n                /* \"#utility.yul\":2884:2911   */\n              tag_39\n              jump\t// in\n            tag_101:\n                /* \"#utility.yul\":2876:2882   */\n              dup2\n                /* \"#utility.yul\":2872:2912   */\n              add\n                /* \"#utility.yul\":3014:3020   */\n              dup2\n                /* \"#utility.yul\":3002:3012   */\n              dup2\n                /* \"#utility.yul\":2999:3021   */\n              lt\n                /* \"#utility.yul\":2978:2996   */\n              0xffffffffffffffff\n                /* \"#utility.yul\":2966:2976   */\n              dup3\n                /* \"#utility.yul\":2963:2997   */\n              gt\n                /* \"#utility.yul\":2960:3022   */\n              or\n                /* \"#utility.yul\":2957:3045   */\n              iszero\n              tag_102\n              jumpi\n                /* \"#utility.yul\":3025:3043   */\n              tag_103\n              tag_43\n              jump\t// in\n            tag_103:\n                /* \"#utility.yul\":2957:3045   */\n            tag_102:\n                /* \"#utility.yul\":3065:3075   */\n              dup1\n                /* \"#utility.yul\":3061:3063   */\n              0x40\n                /* \"#utility.yul\":3054:3076   */\n              mstore\n                /* \"#utility.yul\":2844:3082   */\n              pop\n                /* \"#utility.yul\":2801:3082   */\n              pop\n              pop\n              jump\t// out\n                /* \"#utility.yul\":3088:3217   */\n            tag_45:\n                /* \"#utility.yul\":3122:3128   */\n              0x00\n                /* \"#utility.yul\":3149:3169   */\n              tag_105\n              tag_30\n              jump\t// in\n            tag_105:\n                /* \"#utility.yul\":3139:3169   */\n              swap1\n              pop\n                /* \"#utility.yul\":3178:3211   */\n              tag_106\n                /* \"#utility.yul\":3206:3210   */\n              dup3\n                /* \"#utility.yul\":3198:3204   */\n              dup3\n                /* \"#utility.yul\":3178:3211   */\n              tag_44\n              jump\t// in\n            tag_106:\n                /* \"#utility.yul\":3088:3217   */\n              swap2\n              swap1\n              pop\n              jump\t// out\n                /* \"#utility.yul\":3223:3531   */\n            tag_46:\n                /* \"#utility.yul\":3285:3289   */\n              0x00\n                /* \"#utility.yul\":3375:3393   */\n              0xffffffffffffffff\n                /* \"#utility.yul\":3367:3373   */\n              dup3\n                /* \"#utility.yul\":3364:3394   */\n              gt\n                /* \"#utility.yul\":3361:3417   */\n              iszero\n              tag_108\n              jumpi\n                /* \"#utility.yul\":3397:3415   */\n              tag_109\n              tag_43\n              jump\t// in\n            tag_109:\n                /* \"#utility.yul\":3361:3417   */\n            tag_108:\n                /* \"#utility.yul\":3435:3464   */\n              tag_110\n                /* \"#utility.yul\":3457:3463   */\n              dup3\n                /* \"#utility.yul\":3435:3464   */\n              tag_39\n              jump\t// in\n            tag_110:\n                /* \"#utility.yul\":3427:3464   */\n              swap1\n              pop\n                /* \"#utility.yul\":3519:3523   */\n              0x20\n                /* \"#utility.yul\":3513:3517   */\n              dup2\n                /* \"#utility.yul\":3509:3524   */\n              add\n                /* \"#utility.yul\":3501:3524   */\n              swap1\n              pop\n                /* \"#utility.yul\":3223:3531   */\n              swap2\n              swap1\n              pop\n              jump\t// out\n                /* \"#utility.yul\":3537:3685   */\n            tag_47:\n                /* \"#utility.yul\":3635:3641   */\n              dup3\n                /* \"#utility.yul\":3630:3633   */\n              dup2\n                /* \"#utility.yul\":3625:3628   */\n              dup4\n                /* \"#utility.yul\":3612:3642   */\n              calldatacopy\n                /* \"#utility.yul\":3676:3677   */\n              0x00\n                /* \"#utility.yul\":3667:3673   */\n              dup4\n                /* \"#utility.yul\":3662:3665   */\n              dup4\n                /* \"#utility.yul\":3658:3674   */\n              add\n                /* \"#utility.yul\":3651:3678   */\n              mstore\n                /* \"#utility.yul\":3537:3685   */\n              pop\n              pop\n              pop\n              jump\t// out\n                /* \"#utility.yul\":3691:4116   */\n            tag_48:\n                /* \"#utility.yul\":3769:3774   */\n              0x00\n                /* \"#utility.yul\":3794:3860   */\n              tag_113\n                /* \"#utility.yul\":3810:3859   */\n              tag_114\n                /* \"#utility.yul\":3852:3858   */\n              dup5\n                /* \"#utility.yul\":3810:3859   */\n              tag_46\n              jump\t// in\n            tag_114:\n                /* \"#utility.yul\":3794:3860   */\n              tag_45\n              jump\t// in\n            tag_113:\n                /* \"#utility.yul\":3785:3860   */\n              swap1\n              pop\n                /* \"#utility.yul\":3883:3889   */\n              dup3\n                /* \"#utility.yul\":3876:3881   */\n              dup2\n                /* \"#utility.yul\":3869:3890   */\n              mstore\n                /* \"#utility.yul\":3921:3925   */\n              0x20\n                /* \"#utility.yul\":3914:3919   */\n              dup2\n                /* \"#utility.yul\":3910:3926   */\n              add\n                /* \"#utility.yul\":3959:3962   */\n              dup5\n                /* \"#utility.yul\":3950:3956   */\n              dup5\n                /* \"#utility.yul\":3945:3948   */\n              dup5\n                /* \"#utility.yul\":3941:3957   */\n              add\n                /* \"#utility.yul\":3938:3963   */\n              gt\n                /* \"#utility.yul\":3935:4047   */\n              iszero\n              tag_115\n              jumpi\n                /* \"#utility.yul\":3966:4045   */\n              tag_116\n              tag_42\n              jump\t// in\n            tag_116:\n                /* \"#utility.yul\":3935:4047   */\n            tag_115:\n                /* \"#utility.yul\":4056:4110   */\n              tag_117\n                /* \"#utility.yul\":4103:4109   */\n              dup5\n                /* \"#utility.yul\":4098:4101   */\n              dup3\n                /* \"#utility.yul\":4093:4096   */\n              dup6\n                /* \"#utility.yul\":4056:4110   */\n              tag_47\n              jump\t// in\n            tag_117:\n                /* \"#utility.yul\":3775:4116   */\n              pop\n                /* \"#utility.yul\":3691:4116   */\n              swap4\n              swap3\n              pop\n              pop\n              pop\n              jump\t// out\n                /* \"#utility.yul\":4136:4476   */\n            tag_49:\n                /* \"#utility.yul\":4192:4197   */\n              0x00\n                /* \"#utility.yul\":4241:4244   */\n              dup3\n                /* \"#utility.yul\":4234:4238   */\n              0x1f\n                /* \"#utility.yul\":4226:4232   */\n              dup4\n                /* \"#utility.yul\":4222:4239   */\n              add\n                /* \"#utility.yul\":4218:4245   */\n              slt\n                /* \"#utility.yul\":4208:4330   */\n              tag_119\n              jumpi\n                /* \"#utility.yul\":4249:4328   */\n              tag_120\n              tag_41\n              jump\t// in\n            tag_120:\n                /* \"#utility.yul\":4208:4330   */\n            tag_119:\n                /* \"#utility.yul\":4366:4372   */\n              dup2\n                /* \"#utility.yul\":4353:4373   */\n              calldataload\n                /* \"#utility.yul\":4391:4470   */\n              tag_121\n                /* \"#utility.yul\":4466:4469   */\n              dup5\n                /* \"#utility.yul\":4458:4464   */\n              dup3\n                /* \"#utility.yul\":4451:4455   */\n              0x20\n                /* \"#utility.yul\":4443:4449   */\n              dup7\n                /* \"#utility.yul\":4439:4456   */\n              add\n                /* \"#utility.yul\":4391:4470   */\n              tag_48\n              jump\t// in\n            tag_121:\n                /* \"#utility.yul\":4382:4470   */\n              swap2\n              pop\n                /* \"#utility.yul\":4198:4476   */\n              pop\n                /* \"#utility.yul\":4136:4476   */\n              swap3\n              swap2\n              pop\n              pop\n              jump\t// out\n                /* \"#utility.yul\":4482:5136   */\n            tag_13:\n                /* \"#utility.yul\":4560:4566   */\n              0x00\n                /* \"#utility.yul\":4568:4574   */\n              dup1\n                /* \"#utility.yul\":4617:4619   */\n              0x40\n                /* \"#utility.yul\":4605:4614   */\n              dup4\n                /* \"#utility.yul\":4596:4603   */\n              dup6\n                /* \"#utility.yul\":4592:4615   */\n              sub\n                /* \"#utility.yul\":4588:4620   */\n              slt\n                /* \"#utility.yul\":4585:4704   */\n              iszero\n              tag_123\n              jumpi\n                /* \"#utility.yul\":4623:4702   */\n              tag_124\n              tag_31\n              jump\t// in\n            tag_124:\n                /* \"#utility.yul\":4585:4704   */\n            tag_123:\n                /* \"#utility.yul\":4743:4744   */\n              0x00\n                /* \"#utility.yul\":4768:4821   */\n              tag_125\n                /* \"#utility.yul\":4813:4820   */\n              dup6\n                /* \"#utility.yul\":4804:4810   */\n              dup3\n                /* \"#utility.yul\":4793:4802   */\n              dup7\n                /* \"#utility.yul\":4789:4811   */\n              add\n                /* \"#utility.yul\":4768:4821   */\n              tag_35\n              jump\t// in\n            tag_125:\n                /* \"#utility.yul\":4758:4821   */\n              swap3\n              pop\n                /* \"#utility.yul\":4714:4831   */\n              pop\n                /* \"#utility.yul\":4898:4900   */\n              0x20\n                /* \"#utility.yul\":4887:4896   */\n              dup4\n                /* \"#utility.yul\":4883:4901   */\n              add\n                /* \"#utility.yul\":4870:4902   */\n              calldataload\n                /* \"#utility.yul\":4929:4947   */\n              0xffffffffffffffff\n                /* \"#utility.yul\":4921:4927   */\n              dup2\n                /* \"#utility.yul\":4918:4948   */\n              gt\n                /* \"#utility.yul\":4915:5032   */\n              iszero\n              tag_126\n              jumpi\n                /* \"#utility.yul\":4951:5030   */\n              tag_127\n              tag_32\n              jump\t// in\n            tag_127:\n                /* \"#utility.yul\":4915:5032   */\n            tag_126:\n                /* \"#utility.yul\":5056:5119   */\n              tag_128\n                /* \"#utility.yul\":5111:5118   */\n              dup6\n                /* \"#utility.yul\":5102:5108   */\n              dup3\n                /* \"#utility.yul\":5091:5100   */\n              dup7\n                /* \"#utility.yul\":5087:5109   */\n              add\n                /* \"#utility.yul\":5056:5119   */\n              tag_49\n              jump\t// in\n            tag_128:\n                /* \"#utility.yul\":5046:5119   */\n              swap2\n              pop\n                /* \"#utility.yul\":4841:5129   */\n              pop\n                /* \"#utility.yul\":4482:5136   */\n              swap3\n              pop\n              swap3\n              swap1\n              pop\n              jump\t// out\n                /* \"#utility.yul\":5142:5322   */\n            tag_50:\n                /* \"#utility.yul\":5190:5267   */\n              0x4e487b7100000000000000000000000000000000000000000000000000000000\n                /* \"#utility.yul\":5187:5188   */\n              0x00\n                /* \"#utility.yul\":5180:5268   */\n              mstore\n                /* \"#utility.yul\":5287:5291   */\n              0x22\n                /* \"#utility.yul\":5284:5285   */\n              0x04\n                /* \"#utility.yul\":5277:5292   */\n              mstore\n                /* \"#utility.yul\":5311:5315   */\n              0x24\n                /* \"#utility.yul\":5308:5309   */\n              0x00\n                /* \"#utility.yul\":5301:5316   */\n              revert\n                /* \"#utility.yul\":5328:5648   */\n            tag_18:\n                /* \"#utility.yul\":5372:5378   */\n              0x00\n                /* \"#utility.yul\":5409:5410   */\n              0x02\n                /* \"#utility.yul\":5403:5407   */\n              dup3\n                /* \"#utility.yul\":5399:5411   */\n              div\n                /* \"#utility.yul\":5389:5411   */\n              swap1\n              pop\n                /* \"#utility.yul\":5456:5457   */\n              0x01\n                /* \"#utility.yul\":5450:5454   */\n              dup3\n                /* \"#utility.yul\":5446:5458   */\n              and\n                /* \"#utility.yul\":5477:5495   */\n              dup1\n                /* \"#utility.yul\":5467:5548   */\n              tag_131\n              jumpi\n                /* \"#utility.yul\":5533:5537   */\n              0x7f\n                /* \"#utility.yul\":5525:5531   */\n              dup3\n                /* \"#utility.yul\":5521:5538   */\n              and\n                /* \"#utility.yul\":5511:5538   */\n              swap2\n              pop\n                /* \"#utility.yul\":5467:5548   */\n            tag_131:\n                /* \"#utility.yul\":5595:5597   */\n              0x20\n                /* \"#utility.yul\":5587:5593   */\n              dup3\n                /* \"#utility.yul\":5584:5598   */\n              lt\n                /* \"#utility.yul\":5564:5582   */\n              dup2\n                /* \"#utility.yul\":5561:5599   */\n              sub\n                /* \"#utility.yul\":5558:5642   */\n              tag_132\n              jumpi\n                /* \"#utility.yul\":5614:5632   */\n              tag_133\n              tag_50\n              jump\t// in\n            tag_133:\n                /* \"#utility.yul\":5558:5642   */\n            tag_132:\n                /* \"#utility.yul\":5379:5648   */\n              pop\n                /* \"#utility.yul\":5328:5648   */\n              swap2\n              swap1\n              pop\n              jump\t// out\n                /* \"#utility.yul\":5654:5795   */\n            tag_51:\n                /* \"#utility.yul\":5703:5707   */\n              0x00\n                /* \"#utility.yul\":5726:5729   */\n              dup2\n                /* \"#utility.yul\":5718:5729   */\n              swap1\n              pop\n                /* \"#utility.yul\":5749:5752   */\n              dup2\n                /* \"#utility.yul\":5746:5747   */\n              0x00\n                /* \"#utility.yul\":5739:5753   */\n              mstore\n                /* \"#utility.yul\":5783:5787   */\n              0x20\n                /* \"#utility.yul\":5780:5781   */\n              0x00\n                /* \"#utility.yul\":5770:5788   */\n              keccak256\n                /* \"#utility.yul\":5762:5788   */\n              swap1\n              pop\n                /* \"#utility.yul\":5654:5795   */\n              swap2\n              swap1\n              pop\n              jump\t// out\n                /* \"#utility.yul\":5801:5894   */\n            tag_52:\n                /* \"#utility.yul\":5838:5844   */\n              0x00\n                /* \"#utility.yul\":5885:5887   */\n              0x20\n                /* \"#utility.yul\":5880:5882   */\n              0x1f\n                /* \"#utility.yul\":5873:5878   */\n              dup4\n                /* \"#utility.yul\":5869:5883   */\n              add\n                /* \"#utility.yul\":5865:5888   */\n              div\n                /* \"#utility.yul\":5855:5888   */\n              swap1\n              pop\n                /* \"#utility.yul\":5801:5894   */\n              swap2\n              swap1\n              pop\n              jump\t// out\n                /* \"#utility.yul\":5900:6007   */\n            tag_53:\n                /* \"#utility.yul\":5944:5952   */\n              0x00\n                /* \"#utility.yul\":5994:5999   */\n              dup3\n                /* \"#utility.yul\":5988:5992   */\n              dup3\n                /* \"#utility.yul\":5984:6000   */\n              shl\n                /* \"#utility.yul\":5963:6000   */\n              swap1\n              pop\n                /* \"#utility.yul\":5900:6007   */\n              swap3\n              swap2\n              pop\n              pop\n              jump\t// out\n                /* \"#utility.yul\":6013:6406   */\n            tag_54:\n                /* \"#utility.yul\":6082:6088   */\n              0x00\n                /* \"#utility.yul\":6132:6133   */\n              0x08\n                /* \"#utility.yul\":6120:6130   */\n              dup4\n                /* \"#utility.yul\":6116:6134   */\n              mul\n                /* \"#utility.yul\":6155:6252   */\n              tag_138\n                /* \"#utility.yul\":6185:6251   */\n              0xffffffffffffffffffffffffffffffffffffffffffffffffffffffffffffffff\n                /* \"#utility.yul\":6174:6183   */\n              dup3\n                /* \"#utility.yul\":6155:6252   */\n              tag_53\n              jump\t// in\n            tag_138:\n                /* \"#utility.yul\":6273:6312   */\n              tag_139\n                /* \"#utility.yul\":6303:6311   */\n              dup7\n                /* \"#utility.yul\":6292:6301   */\n              dup4\n                /* \"#utility.yul\":6273:6312   */\n              tag_53\n              jump\t// in\n            tag_139:\n                /* \"#utility.yul\":6261:6312   */\n              swap6\n              pop\n                /* \"#utility.yul\":6345:6349   */\n              dup1\n                /* \"#utility.yul\":6341:6350   */\n              not\n                /* \"#utility.yul\":6334:6339   */\n              dup5\n                /* \"#utility.yul\":6330:6351   */\n              and\n                /* \"#utility.yul\":6321:6351   */\n              swap4\n              pop\n                /* \"#utility.yul\":6394:6398   */\n              dup1\n                /* \"#utility.yul\":6384:6392   */\n              dup7\n                /* \"#utility.yul\":6380:6399   */\n              and\n                /* \"#utility.yul\":6373:6378   */\n              dup5\n                /* \"#utility.yul\":6370:6400   */\n              or\n                /* \"#utility.yul\":6360:6400   */\n              swap3\n              pop\n                /* \"#utility.yul\":6089:6406   */\n              pop\n              pop\n                /* \"#utility.yul\":6013:6406   */\n              swap4\n              swap3\n              pop\n              pop\n              pop\n              jump\t// out\n                /* \"#utility.yul\":6412:6472   */\n            tag_55:\n                /* \"#utility.yul\":6440:6443   */\n              0x00\n                /* \"#utility.yul\":6461:6466   */\n              dup2\n                /* \"#utility.yul\":6454:6466   */\n              swap1\n              pop\n                /* \"#utility.yul\":6412:6472   */\n              swap2\n              swap1\n              pop\n              jump\t// out\n                /* \"#utility.yul\":6478:6620   */\n            tag_56:\n                /* \"#utility.yul\":6528:6537   */\n              0x00\n                /* \"#utility.yul\":6561:6614   */\n              tag_142\n                /* \"#utility.yul\":6579:6613   */\n              tag_143\n                /* \"#utility.yul\":6588:6612   */\n              tag_144\n                /* \"#utility.yul\":6606:6611   */\n              dup5\n                /* \"#utility.yul\":6588:6612   */\n              tag_33\n              jump\t// in\n            tag_144:\n                /* \"#utility.yul\":6579:6613   */\n              tag_55\n              jump\t// in\n            tag_143:\n                /* \"#utility.yul\":6561:6614   */\n              tag_33\n              jump\t// in\n            tag_142:\n                /* \"#utility.yul\":6548:6614   */\n              swap1\n              pop\n                /* \"#utility.yul\":6478:6620   */\n              swap2\n              swap1\n              pop\n              jump\t// out\n                /* \"#utility.yul\":6626:6701   */\n            tag_57:\n                /* \"#utility.yul\":6669:6672   */\n              0x00\n                /* \"#utility.yul\":6690:6695   */\n              dup2\n                /* \"#utility.yul\":6683:6695   */\n              swap1\n              pop\n                /* \"#utility.yul\":6626:6701   */\n              swap2\n              swap1\n              pop\n              jump\t// out\n                /* \"#utility.yul\":6707:6976   */\n            tag_58:\n                /* \"#utility.yul\":6817:6856   */\n              tag_147\n                /* \"#utility.yul\":6848:6855   */\n              dup4\n                /* \"#utility.yul\":6817:6856   */\n              tag_56\n              jump\t// in\n            tag_147:\n                /* \"#utility.yul\":6878:6969   */\n              tag_148\n                /* \"#utility.yul\":6927:6968   */\n              tag_149\n                /* \"#utility.yul\":6951:6967   */\n              dup3\n                /* \"#utility.yul\":6927:6968   */\n              tag_57\n              jump\t// in\n            tag_149:\n                /* \"#utility.yul\":6919:6925   */\n              dup5\n                /* \"#utility.yul\":6912:6916   */\n              dup5\n                /* \"#utility.yul\":6906:6917   */\n              sload\n                /* \"#utility.yul\":6878:6969   */\n              tag_54\n              jump\t// in\n            tag_148:\n                /* \"#utility.yul\":6872:6876   */\n              dup3\n                /* \"#utility.yul\":6865:6970   */\n              sstore\n                /* \"#utility.yul\":6783:6976   */\n              pop\n                /* \"#utility.yul\":6707:6976   */\n              pop\n              pop\n              pop\n              jump\t// out\n                /* \"#utility.yul\":6982:7055   */\n            tag_59:\n                /* \"#utility.yul\":7027:7030   */\n              0x00\n                /* \"#utility.yul\":6982:7055   */\n              swap1\n              jump\t// out\n                /* \"#utility.yul\":7061:7250   */\n            tag_60:\n                /* \"#utility.yul\":7138:7170   */\n              tag_152\n              tag_59\n              jump\t// in\n            tag_152:\n                /* \"#utility.yul\":7179:7244   */\n              tag_153\n                /* \"#utility.yul\":7237:7243   */\n              dup2\n                /* \"#utility.yul\":7229:7235   */\n              dup5\n                /* \"#utility.yul\":7223:7227   */\n              dup5\n                /* \"#utility.yul\":7179:7244   */\n              tag_58\n              jump\t// in\n            tag_153:\n                /* \"#utility.yul\":7114:7250   */\n              pop\n                /* \"#utility.yul\":7061:7250   */\n              pop\n              pop\n              jump\t// out\n                /* \"#utility.yul\":7256:7442   */\n            tag_61:\n                /* \"#utility.yul\":7316:7436   */\n            tag_155:\n                /* \"#utility.yul\":7333:7336   */\n              dup2\n                /* \"#utility.yul\":7326:7331   */\n              dup2\n                /* \"#utility.yul\":7323:7337   */\n              lt\n                /* \"#utility.yul\":7316:7436   */\n              iszero\n              tag_157\n              jumpi\n                /* \"#utility.yul\":7387:7426   */\n              tag_158\n                /* \"#utility.yul\":7424:7425   */\n              0x00\n                /* \"#utility.yul\":7417:7422   */\n              dup3\n                /* \"#utility.yul\":7387:7426   */\n              tag_60\n              jump\t// in\n            tag_158:\n                /* \"#utility.yul\":7360:7361   */\n              0x01\n                /* \"#utility.yul\":7353:7358   */\n              dup2\n                /* \"#utility.yul\":7349:7362   */\n              add\n                /* \"#utility.yul\":7340:7362   */\n              swap1\n              pop\n                /* \"#utility.yul\":7316:7436   */\n              jump(tag_155)\n            tag_157:\n                /* \"#utility.yul\":7256:7442   */\n              pop\n              pop\n              jump\t// out\n                /* \"#utility.yul\":7448:7991   */\n            tag_62:\n                /* \"#utility.yul\":7549:7551   */\n              0x1f\n                /* \"#utility.yul\":7544:7547   */\n              dup3\n                /* \"#utility.yul\":7541:7552   */\n              gt\n                /* \"#utility.yul\":7538:7984   */\n              iszero\n              tag_160\n              jumpi\n                /* \"#utility.yul\":7583:7621   */\n              tag_161\n                /* \"#utility.yul\":7615:7620   */\n              dup2\n                /* \"#utility.yul\":7583:7621   */\n              tag_51\n              jump\t// in\n            tag_161:\n                /* \"#utility.yul\":7667:7696   */\n              tag_162\n                /* \"#utility.yul\":7685:7695   */\n              dup5\n                /* \"#utility.yul\":7667:7696   */\n              tag_52\n              jump\t// in\n            tag_162:\n                /* \"#utility.yul\":7657:7665   */\n              dup2\n                /* \"#utility.yul\":7653:7697   */\n              add\n                /* \"#utility.yul\":7850:7852   */\n              0x20\n                /* \"#utility.yul\":7838:7848   */\n              dup6\n                /* \"#utility.yul\":7835:7853   */\n              lt\n                /* \"#utility.yul\":7832:7881   */\n              iszero\n              tag_163\n              jumpi\n                /* \"#utility.yul\":7871:7879   */\n              dup2\n                /* \"#utility.yul\":7856:7879   */\n              swap1\n              pop\n                /* \"#utility.yul\":7832:7881   */\n            tag_163:\n                /* \"#utility.yul\":7894:7974   */\n              tag_164\n                /* \"#utility.yul\":7950:7972   */\n              tag_165\n                /* \"#utility.yul\":7968:7971   */\n              dup6\n                /* \"#utility.yul\":7950:7972   */\n              tag_52\n              jump\t// in\n            tag_165:\n                /* \"#utility.yul\":7940:7948   */\n              dup4\n                /* \"#utility.yul\":7936:7973   */\n              add\n                /* \"#utility.yul\":7923:7934   */\n              dup3\n                /* \"#utility.yul\":7894:7974   */\n              tag_61\n              jump\t// in\n            tag_164:\n                /* \"#utility.yul\":7553:7984   */\n              pop\n              pop\n                /* \"#utility.yul\":7538:7984   */\n            tag_160:\n                /* \"#utility.yul\":7448:7991   */\n              pop\n              pop\n              pop\n              jump\t// out\n                /* \"#utility.yul\":7997:8114   */\n            tag_63:\n                /* \"#utility.yul\":8051:8059   */\n              0x00\n                /* \"#utility.yul\":8101:8106   */\n              dup3\n                /* \"#utility.yul\":8095:8099   */\n              dup3\n                /* \"#utility.yul\":8091:8107   */\n              shr\n                /* \"#utility.yul\":8070:8107   */\n              swap1\n              pop\n                /* \"#utility.yul\":7997:8114   */\n              swap3\n              swap2\n              pop\n              pop\n              jump\t// out\n                /* \"#utility.yul\":8120:8289   */\n            tag_64:\n                /* \"#utility.yul\":8164:8170   */\n              0x00\n                /* \"#utility.yul\":8197:8248   */\n              tag_168\n                /* \"#utility.yul\":8245:8246   */\n              0x00\n                /* \"#utility.yul\":8241:8247   */\n              not\n                /* \"#utility.yul\":8233:8238   */\n              dup5\n                /* \"#utility.yul\":8230:8231   */\n              0x08\n                /* \"#utility.yul\":8226:8239   */\n              mul\n                /* \"#utility.yul\":8197:8248   */\n              tag_63\n              jump\t// in\n            tag_168:\n                /* \"#utility.yul\":8193:8249   */\n              not\n                /* \"#utility.yul\":8278:8282   */\n              dup1\n                /* \"#utility.yul\":8272:8276   */\n              dup4\n                /* \"#utility.yul\":8268:8283   */\n              and\n                /* \"#utility.yul\":8258:8283   */\n              swap2\n              pop\n                /* \"#utility.yul\":8171:8289   */\n              pop\n                /* \"#utility.yul\":8120:8289   */\n              swap3\n              swap2\n              pop\n              pop\n              jump\t// out\n                /* \"#utility.yul\":8294:8589   */\n            tag_65:\n                /* \"#utility.yul\":8370:8374   */\n              0x00\n                /* \"#utility.yul\":8516:8545   */\n              tag_170\n                /* \"#utility.yul\":8541:8544   */\n              dup4\n                /* \"#utility.yul\":8535:8539   */\n              dup4\n                /* \"#utility.yul\":8516:8545   */\n              tag_64\n              jump\t// in\n            tag_170:\n                /* \"#utility.yul\":8508:8545   */\n              swap2\n              pop\n                /* \"#utility.yul\":8578:8581   */\n              dup3\n                /* \"#utility.yul\":8575:8576   */\n              0x02\n                /* \"#utility.yul\":8571:8582   */\n              mul\n                /* \"#utility.yul\":8565:8569   */\n              dup3\n                /* \"#utility.yul\":8562:8583   */\n              or\n                /* \"#utility.yul\":8554:8583   */\n              swap1\n              pop\n                /* \"#utility.yul\":8294:8589   */\n              swap3\n              swap2\n              pop\n              pop\n              jump\t// out\n                /* \"#utility.yul\":8594:9989   */\n            tag_26:\n                /* \"#utility.yul\":8711:8748   */\n              tag_172\n                /* \"#utility.yul\":8744:8747   */\n              dup3\n                /* \"#utility.yul\":8711:8748   */\n              tag_36\n              jump\t// in\n            tag_172:\n                /* \"#utility.yul\":8813:8831   */\n              0xffffffffffffffff\n                /* \"#utility.yul\":8805:8811   */\n              dup2\n                /* \"#utility.yul\":8802:8832   */\n              gt\n                /* \"#utility.yul\":8799:8855   */\n              iszero\n              tag_173\n              jumpi\n                /* \"#utility.yul\":8835:8853   */\n              tag_174\n              tag_43\n              jump\t// in\n            tag_174:\n                /* \"#utility.yul\":8799:8855   */\n            tag_173:\n                /* \"#utility.yul\":8879:8917   */\n              tag_175\n                /* \"#utility.yul\":8911:8915   */\n              dup3\n                /* \"#utility.yul\":8905:8916   */\n              sload\n                /* \"#utility.yul\":8879:8917   */\n              tag_18\n              jump\t// in\n            tag_175:\n                /* \"#utility.yul\":8964:9031   */\n              tag_176\n                /* \"#utility.yul\":9024:9030   */\n              dup3\n                /* \"#utility.yul\":9016:9022   */\n              dup3\n                /* \"#utility.yul\":9010:9014   */\n              dup6\n                /* \"#utility.yul\":8964:9031   */\n              tag_62\n              jump\t// in\n            tag_176:\n                /* \"#utility.yul\":9058:9059   */\n              0x00\n                /* \"#utility.yul\":9082:9086   */\n              0x20\n                /* \"#utility.yul\":9069:9086   */\n              swap1\n              pop\n                /* \"#utility.yul\":9114:9116   */\n              0x1f\n                /* \"#utility.yul\":9106:9112   */\n              dup4\n                /* \"#utility.yul\":9103:9117   */\n              gt\n                /* \"#utility.yul\":9131:9132   */\n              0x01\n                /* \"#utility.yul\":9126:9744   */\n              dup2\n              eq\n              tag_178\n              jumpi\n                /* \"#utility.yul\":9788:9789   */\n              0x00\n                /* \"#utility.yul\":9805:9811   */\n              dup5\n                /* \"#utility.yul\":9802:9879   */\n              iszero\n              tag_179\n              jumpi\n                /* \"#utility.yul\":9854:9863   */\n              dup3\n                /* \"#utility.yul\":9849:9852   */\n              dup8\n                /* \"#utility.yul\":9845:9864   */\n              add\n                /* \"#utility.yul\":9839:9865   */\n              mload\n                /* \"#utility.yul\":9830:9865   */\n              swap1\n              pop\n                /* \"#utility.yul\":9802:9879   */\n            tag_179:\n                /* \"#utility.yul\":9905:9972   */\n              tag_180\n                /* \"#utility.yul\":9965:9971   */\n              dup6\n                /* \"#utility.yul\":9958:9963   */\n              dup3\n                /* \"#utility.yul\":9905:9972   */\n              tag_65\n              jump\t// in\n            tag_180:\n                /* \"#utility.yul\":9899:9903   */\n              dup7\n                /* \"#utility.yul\":9892:9973   */\n              sstore\n                /* \"#utility.yul\":9761:9983   */\n              pop\n                /* \"#utility.yul\":9096:9983   */\n              jump(tag_177)\n                /* \"#utility.yul\":9126:9744   */\n            tag_178:\n                /* \"#utility.yul\":9178:9182   */\n              0x1f\n                /* \"#utility.yul\":9174:9183   */\n              not\n                /* \"#utility.yul\":9166:9172   */\n              dup5\n                /* \"#utility.yul\":9162:9184   */\n              and\n                /* \"#utility.yul\":9212:9249   */\n              tag_181\n                /* \"#utility.yul\":9244:9248   */\n              dup7\n                /* \"#utility.yul\":9212:9249   */\n              tag_51\n              jump\t// in\n            tag_181:\n                /* \"#utility.yul\":9271:9272   */\n              0x00\n                /* \"#utility.yul\":9285:9493   */\n            tag_182:\n                /* \"#utility.yul\":9299:9306   */\n              dup3\n                /* \"#utility.yul\":9296:9297   */\n              dup2\n                /* \"#utility.yul\":9293:9307   */\n              lt\n                /* \"#utility.yul\":9285:9493   */\n              iszero\n              tag_184\n              jumpi\n                /* \"#utility.yul\":9378:9387   */\n              dup5\n                /* \"#utility.yul\":9373:9376   */\n              dup10\n                /* \"#utility.yul\":9369:9388   */\n              add\n                /* \"#utility.yul\":9363:9389   */\n              mload\n                /* \"#utility.yul\":9355:9361   */\n              dup3\n                /* \"#utility.yul\":9348:9390   */\n              sstore\n                /* \"#utility.yul\":9429:9430   */\n              0x01\n                /* \"#utility.yul\":9421:9427   */\n              dup3\n                /* \"#utility.yul\":9417:9431   */\n              add\n                /* \"#utility.yul\":9407:9431   */\n              swap2\n              pop\n                /* \"#utility.yul\":9476:9478   */\n              0x20\n                /* \"#utility.yul\":9465:9474   */\n              dup6\n                /* \"#utility.yul\":9461:9479   */\n              add\n                /* \"#utility.yul\":9448:9479   */\n              swap5\n              pop\n                /* \"#utility.yul\":9322:9326   */\n              0x20\n                /* \"#utility.yul\":9319:9320   */\n              dup2\n                /* \"#utility.yul\":9315:9327   */\n              add\n                /* \"#utility.yul\":9310:9327   */\n              swap1\n              pop\n                /* \"#utility.yul\":9285:9493   */\n              jump(tag_182)\n            tag_184:\n                /* \"#utility.yul\":9521:9527   */\n              dup7\n                /* \"#utility.yul\":9512:9519   */\n              dup4\n                /* \"#utility.yul\":9509:9528   */\n              lt\n                /* \"#utility.yul\":9506:9685   */\n              iszero\n              tag_185\n              jumpi\n                /* \"#utility.yul\":9579:9588   */\n              dup5\n                /* \"#utility.yul\":9574:9577   */\n              dup10\n                /* \"#utility.yul\":9570:9589   */\n              add\n                /* \"#utility.yul\":9564:9590   */\n              mload\n                /* \"#utility.yul\":9622:9670   */\n              tag_186\n                /* \"#utility.yul\":9664:9668   */\n              0x1f\n                /* \"#utility.yul\":9656:9662   */\n              dup10\n                /* \"#utility.yul\":9652:9669   */\n              and\n                /* \"#utility.yul\":9641:9650   */\n              dup3\n                /* \"#utility.yul\":9622:9670   */\n              tag_64\n              jump\t// in\n            tag_186:\n                /* \"#utility.yul\":9614:9620   */\n              dup4\n                /* \"#utility.yul\":9607:9671   */\n              sstore\n                /* \"#utility.yul\":9529:9685   */\n              pop\n                /* \"#utility.yul\":9506:9685   */\n            tag_185:\n                /* \"#utility.yul\":9731:9732   */\n              0x01\n                /* \"#utility.yul\":9727:9728   */\n              0x02\n                /* \"#utility.yul\":9719:9725   */\n              dup9\n                /* \"#utility.yul\":9715:9729   */\n              mul\n                /* \"#utility.yul\":9711:9733   */\n              add\n                /* \"#utility.yul\":9705:9709   */\n              dup9\n                /* \"#utility.yul\":9698:9734   */\n              sstore\n                /* \"#utility.yul\":9133:9744   */\n              pop\n              pop\n              pop\n                /* \"#utility.yul\":9096:9983   */\n            tag_177:\n              pop\n                /* \"#utility.yul\":8686:9989   */\n              pop\n              pop\n              pop\n                /* \"#utility.yul\":8594:9989   */\n              pop\n              pop\n              jump\t// out\n                /* \"#utility.yul\":9995:10143   */\n            tag_66:\n                /* \"#utility.yul\":10097:10108   */\n              0x00\n                /* \"#utility.yul\":10134:10137   */\n              dup2\n                /* \"#utility.yul\":10119:10137   */\n              swap1\n              pop\n                /* \"#utility.yul\":9995:10143   */\n              swap3\n              swap2\n              pop\n              pop\n              jump\t// out\n                /* \"#utility.yul\":10149:10539   */\n            tag_67:\n                /* \"#utility.yul\":10255:10258   */\n              0x00\n                /* \"#utility.yul\":10283:10322   */\n              tag_189\n                /* \"#utility.yul\":10316:10321   */\n              dup3\n                /* \"#utility.yul\":10283:10322   */\n              tag_36\n              jump\t// in\n            tag_189:\n                /* \"#utility.yul\":10338:10427   */\n              tag_190\n                /* \"#utility.yul\":10420:10426   */\n              dup2\n                /* \"#utility.yul\":10415:10418   */\n              dup6\n                /* \"#utility.yul\":10338:10427   */\n              tag_66\n              jump\t// in\n            tag_190:\n                /* \"#utility.yul\":10331:10427   */\n              swap4\n              pop\n                /* \"#utility.yul\":10436:10501   */\n              tag_191\n                /* \"#utility.yul\":10494:10500   */\n              dup2\n                /* \"#utility.yul\":10489:10492   */\n              dup6\n                /* \"#utility.yul\":10482:10486   */\n              0x20\n                /* \"#utility.yul\":10475:10480   */\n              dup7\n                /* \"#utility.yul\":10471:10487   */\n              add\n                /* \"#utility.yul\":10436:10501   */\n              tag_38\n              jump\t// in\n            tag_191:\n                /* \"#utility.yul\":10526:10532   */\n              dup1\n                /* \"#utility.yul\":10521:10524   */\n              dup5\n                /* \"#utility.yul\":10517:10533   */\n              add\n                /* \"#utility.yul\":10510:10533   */\n              swap2\n              pop\n                /* \"#utility.yul\":10259:10539   */\n              pop\n                /* \"#utility.yul\":10149:10539   */\n              swap3\n              swap2\n              pop\n              pop\n              jump\t// out\n                /* \"#utility.yul\":10545:10745   */\n            tag_68:\n                /* \"#utility.yul\":10714:10738   */\n              0x66726f6d206672616e6b277320636f6e74726163742e00000000000000000000\n                /* \"#utility.yul\":10709:10712   */\n              dup2\n                /* \"#utility.yul\":10702:10739   */\n              mstore\n                /* \"#utility.yul\":10545:10745   */\n              pop\n              jump\t// out\n                /* \"#utility.yul\":10751:11293   */\n            tag_29:\n                /* \"#utility.yul\":10974:10977   */\n              0x00\n                /* \"#utility.yul\":10996:11091   */\n              tag_194\n                /* \"#utility.yul\":11087:11090   */\n              dup3\n                /* \"#utility.yul\":11078:11084   */\n              dup5\n                /* \"#utility.yul\":10996:11091   */\n              tag_67\n              jump\t// in\n            tag_194:\n                /* \"#utility.yul\":10989:11091   */\n              swap2\n              pop\n                /* \"#utility.yul\":11101:11239   */\n              tag_195\n                /* \"#utility.yul\":11235:11238   */\n              dup3\n                /* \"#utility.yul\":11101:11239   */\n              tag_68\n              jump\t// in\n            tag_195:\n                /* \"#utility.yul\":11264:11266   */\n              0x16\n                /* \"#utility.yul\":11259:11262   */\n              dup3\n                /* \"#utility.yul\":11255:11267   */\n              add\n                /* \"#utility.yul\":11248:11267   */\n              swap2\n              pop\n                /* \"#utility.yul\":11284:11287   */\n              dup2\n                /* \"#utility.yul\":11277:11287   */\n              swap1\n              pop\n                /* \"#utility.yul\":10751:11293   */\n              swap3\n              swap2\n              pop\n              pop\n              jump\t// out\n\n            auxdata: 0xa2646970667358221220d051ab6fa038a633a954591d6617628d8abb55c0d38e85ee9b04cc83be69147764736f6c634300081a0033\n        }\n    }\n\n    auxdata: 0xa26469706673582212206af94ab20d44a414519930e7b00d2912afd4d9cae46fcb26fdb116598ce5565a64736f6c634300081a0033\n}\n",
				"bytecode": {
					"linkReferences": {},
					"object": "6080604052348015600e575f80fd5b50610f6c8061001c5f395ff3fe608060405234801561000f575f80fd5b506004361061003f575f3560e01c80630aa48b741461004357806353bf97dd1461004d57806391ad6ccb1461007d575b5f80fd5b61004b610099565b005b61006760048036038101906100629190610337565b61017e565b60405161007491906103ff565b60405180910390f35b6100976004803603810190610092919061054b565b61023e565b005b6040516100a5906102e6565b604051809103905ff0801580156100be573d5f803e3d5ffd5b505f806101000a81548173ffffffffffffffffffffffffffffffffffffffff021916908373ffffffffffffffffffffffffffffffffffffffff16021790555060015f8054906101000a900473ffffffffffffffffffffffffffffffffffffffff16908060018154018082558091505060019003905f5260205f20015f9091909190916101000a81548173ffffffffffffffffffffffffffffffffffffffff021916908373ffffffffffffffffffffffffffffffffffffffff160217905550565b606060018281548110610194576101936105b7565b5b905f5260205f20015f9054906101000a900473ffffffffffffffffffffffffffffffffffffffff1673ffffffffffffffffffffffffffffffffffffffff166342257b31846040518263ffffffff1660e01b81526004016101f491906105f3565b5f60405180830381865afa15801561020e573d5f803e3d5ffd5b505050506040513d5f823e3d601f19601f82011682018060405250810190610236919061067a565b905092915050565b60018281548110610252576102516105b7565b5b905f5260205f20015f9054906101000a900473ffffffffffffffffffffffffffffffffffffffff1673ffffffffffffffffffffffffffffffffffffffff1663fc0574e484836040518363ffffffff1660e01b81526004016102b49291906106c1565b5f604051808303815f87803b1580156102cb575f80fd5b505af11580156102dd573d5f803e3d5ffd5b50505050505050565b610847806106f083390190565b5f604051905090565b5f80fd5b5f80fd5b5f819050919050565b61031681610304565b8114610320575f80fd5b50565b5f813590506103318161030d565b92915050565b5f806040838503121561034d5761034c6102fc565b5b5f61035a85828601610323565b925050602061036b85828601610323565b9150509250929050565b5f81519050919050565b5f82825260208201905092915050565b5f5b838110156103ac578082015181840152602081019050610391565b5f8484015250505050565b5f601f19601f8301169050919050565b5f6103d182610375565b6103db818561037f565b93506103eb81856020860161038f565b6103f4816103b7565b840191505092915050565b5f6020820190508181035f83015261041781846103c7565b905092915050565b5f80fd5b5f80fd5b7f4e487b71000000000000000000000000000000000000000000000000000000005f52604160045260245ffd5b61045d826103b7565b810181811067ffffffffffffffff8211171561047c5761047b610427565b5b80604052505050565b5f61048e6102f3565b905061049a8282610454565b919050565b5f67ffffffffffffffff8211156104b9576104b8610427565b5b6104c2826103b7565b9050602081019050919050565b828183375f83830152505050565b5f6104ef6104ea8461049f565b610485565b90508281526020810184848401111561050b5761050a610423565b5b6105168482856104cf565b509392505050565b5f82601f8301126105325761053161041f565b5b81356105428482602086016104dd565b91505092915050565b5f805f60608486031215610562576105616102fc565b5b5f61056f86828701610323565b935050602061058086828701610323565b925050604084013567ffffffffffffffff8111156105a1576105a0610300565b5b6105ad8682870161051e565b9150509250925092565b7f4e487b71000000000000000000000000000000000000000000000000000000005f52603260045260245ffd5b6105ed81610304565b82525050565b5f6020820190506106065f8301846105e4565b92915050565b5f61061e6106198461049f565b610485565b90508281526020810184848401111561063a57610639610423565b5b61064584828561038f565b509392505050565b5f82601f8301126106615761066061041f565b5b815161067184826020860161060c565b91505092915050565b5f6020828403121561068f5761068e6102fc565b5b5f82015167ffffffffffffffff8111156106ac576106ab610300565b5b6106b88482850161064d565b91505092915050565b5f6040820190506106d45f8301856105e4565b81810360208301526106e681846103c7565b9050939250505056fe6080604052348015600e575f80fd5b5061082b8061001c5f395ff3fe608060405234801561000f575f80fd5b5060043610610034575f3560e01c806342257b3114610038578063fc0574e414610068575b5f80fd5b610052600480360381019061004d919061024c565b610084565b60405161005f9190610301565b60405180910390f35b610082600480360381019061007d919061044d565b61012e565b005b60606101275f808481526020019081526020015f205f0180546100a6906104d4565b80601f01602080910402602001604051908101604052809291908181526020018280546100d2906104d4565b801561011d5780601f106100f45761010080835404028352916020019161011d565b820191905f5260205f20905b81548152906001019060200180831161010057829003601f168201915b50505050506101df565b9050919050565b5f60405180606001604052808381526020018481526020013373ffffffffffffffffffffffffffffffffffffffff168152509050805f808581526020019081526020015f205f820151815f01908161018691906106a1565b50602082015181600101556040820151816002015f6101000a81548173ffffffffffffffffffffffffffffffffffffffff021916908373ffffffffffffffffffffffffffffffffffffffff160217905550905050505050565b6060816040516020016101f291906107d0565b6040516020818303038152906040529050919050565b5f604051905090565b5f80fd5b5f80fd5b5f819050919050565b61022b81610219565b8114610235575f80fd5b50565b5f8135905061024681610222565b92915050565b5f6020828403121561026157610260610211565b5b5f61026e84828501610238565b91505092915050565b5f81519050919050565b5f82825260208201905092915050565b5f5b838110156102ae578082015181840152602081019050610293565b5f8484015250505050565b5f601f19601f8301169050919050565b5f6102d382610277565b6102dd8185610281565b93506102ed818560208601610291565b6102f6816102b9565b840191505092915050565b5f6020820190508181035f83015261031981846102c9565b905092915050565b5f80fd5b5f80fd5b7f4e487b71000000000000000000000000000000000000000000000000000000005f52604160045260245ffd5b61035f826102b9565b810181811067ffffffffffffffff8211171561037e5761037d610329565b5b80604052505050565b5f610390610208565b905061039c8282610356565b919050565b5f67ffffffffffffffff8211156103bb576103ba610329565b5b6103c4826102b9565b9050602081019050919050565b828183375f83830152505050565b5f6103f16103ec846103a1565b610387565b90508281526020810184848401111561040d5761040c610325565b5b6104188482856103d1565b509392505050565b5f82601f83011261043457610433610321565b5b81356104448482602086016103df565b91505092915050565b5f806040838503121561046357610462610211565b5b5f61047085828601610238565b925050602083013567ffffffffffffffff81111561049157610490610215565b5b61049d85828601610420565b9150509250929050565b7f4e487b71000000000000000000000000000000000000000000000000000000005f52602260045260245ffd5b5f60028204905060018216806104eb57607f821691505b6020821081036104fe576104fd6104a7565b5b50919050565b5f819050815f5260205f209050919050565b5f6020601f8301049050919050565b5f82821b905092915050565b5f600883026105607fffffffffffffffffffffffffffffffffffffffffffffffffffffffffffffffff82610525565b61056a8683610525565b95508019841693508086168417925050509392505050565b5f819050919050565b5f6105a56105a061059b84610219565b610582565b610219565b9050919050565b5f819050919050565b6105be8361058b565b6105d26105ca826105ac565b848454610531565b825550505050565b5f90565b6105e66105da565b6105f18184846105b5565b505050565b5b81811015610614576106095f826105de565b6001810190506105f7565b5050565b601f8211156106595761062a81610504565b61063384610516565b81016020851015610642578190505b61065661064e85610516565b8301826105f6565b50505b505050565b5f82821c905092915050565b5f6106795f198460080261065e565b1980831691505092915050565b5f610691838361066a565b9150826002028217905092915050565b6106aa82610277565b67ffffffffffffffff8111156106c3576106c2610329565b5b6106cd82546104d4565b6106d8828285610618565b5f60209050601f831160018114610709575f84156106f7578287015190505b6107018582610686565b865550610768565b601f19841661071786610504565b5f5b8281101561073e57848901518255600182019150602085019450602081019050610719565b8683101561075b5784890151610757601f89168261066a565b8355505b6001600288020188555050505b505050505050565b5f81905092915050565b5f61078482610277565b61078e8185610770565b935061079e818560208601610291565b80840191505092915050565b7f66726f6d206672616e6b277320636f6e74726163742e00000000000000000000815250565b5f6107db828461077a565b91506107e6826107aa565b6016820191508190509291505056fea2646970667358221220d051ab6fa038a633a954591d6617628d8abb55c0d38e85ee9b04cc83be69147764736f6c634300081a0033a26469706673582212206af94ab20d44a414519930e7b00d2912afd4d9cae46fcb26fdb116598ce5565a64736f6c634300081a0033",
					"opcodes": "PUSH1 0x80 PUSH1 0x40 MSTORE CALLVALUE DUP1 ISZERO PUSH1 0xE JUMPI PUSH0 DUP1 REVERT JUMPDEST POP PUSH2 0xF6C DUP1 PUSH2 0x1C PUSH0 CODECOPY PUSH0 RETURN INVALID PUSH1 0x80 PUSH1 0x40 MSTORE CALLVALUE DUP1 ISZERO PUSH2 0xF JUMPI PUSH0 DUP1 REVERT JUMPDEST POP PUSH1 0x4 CALLDATASIZE LT PUSH2 0x3F JUMPI PUSH0 CALLDATALOAD PUSH1 0xE0 SHR DUP1 PUSH4 0xAA48B74 EQ PUSH2 0x43 JUMPI DUP1 PUSH4 0x53BF97DD EQ PUSH2 0x4D JUMPI DUP1 PUSH4 0x91AD6CCB EQ PUSH2 0x7D JUMPI JUMPDEST PUSH0 DUP1 REVERT JUMPDEST PUSH2 0x4B PUSH2 0x99 JUMP JUMPDEST STOP JUMPDEST PUSH2 0x67 PUSH1 0x4 DUP1 CALLDATASIZE SUB DUP2 ADD SWAP1 PUSH2 0x62 SWAP2 SWAP1 PUSH2 0x337 JUMP JUMPDEST PUSH2 0x17E JUMP JUMPDEST PUSH1 0x40 MLOAD PUSH2 0x74 SWAP2 SWAP1 PUSH2 0x3FF JUMP JUMPDEST PUSH1 0x40 MLOAD DUP1 SWAP2 SUB SWAP1 RETURN JUMPDEST PUSH2 0x97 PUSH1 0x4 DUP1 CALLDATASIZE SUB DUP2 ADD SWAP1 PUSH2 0x92 SWAP2 SWAP1 PUSH2 0x54B JUMP JUMPDEST PUSH2 0x23E JUMP JUMPDEST STOP JUMPDEST PUSH1 0x40 MLOAD PUSH2 0xA5 SWAP1 PUSH2 0x2E6 JUMP JUMPDEST PUSH1 0x40 MLOAD DUP1 SWAP2 SUB SWAP1 PUSH0 CREATE DUP1 ISZERO DUP1 ISZERO PUSH2 0xBE JUMPI RETURNDATASIZE PUSH0 DUP1 RETURNDATACOPY RETURNDATASIZE PUSH0 REVERT JUMPDEST POP PUSH0 DUP1 PUSH2 0x100 EXP DUP2 SLOAD DUP2 PUSH20 0xFFFFFFFFFFFFFFFFFFFFFFFFFFFFFFFFFFFFFFFF MUL NOT AND SWAP1 DUP4 PUSH20 0xFFFFFFFFFFFFFFFFFFFFFFFFFFFFFFFFFFFFFFFF AND MUL OR SWAP1 SSTORE POP PUSH1 0x1 PUSH0 DUP1 SLOAD SWAP1 PUSH2 0x100 EXP SWAP1 DIV PUSH20 0xFFFFFFFFFFFFFFFFFFFFFFFFFFFFFFFFFFFFFFFF AND SWAP1 DUP1 PUSH1 0x1 DUP2 SLOAD ADD DUP1 DUP3 SSTORE DUP1 SWAP2 POP POP PUSH1 0x1 SWAP1 SUB SWAP1 PUSH0 MSTORE PUSH1 0x20 PUSH0 KECCAK256 ADD PUSH0 SWAP1 SWAP2 SWAP1 SWAP2 SWAP1 SWAP2 PUSH2 0x100 EXP DUP2 SLOAD DUP2 PUSH20 0xFFFFFFFFFFFFFFFFFFFFFFFFFFFFFFFFFFFFFFFF MUL NOT AND SWAP1 DUP4 PUSH20 0xFFFFFFFFFFFFFFFFFFFFFFFFFFFFFFFFFFFFFFFF AND MUL OR SWAP1 SSTORE POP JUMP JUMPDEST PUSH1 0x60 PUSH1 0x1 DUP3 DUP2 SLOAD DUP2 LT PUSH2 0x194 JUMPI PUSH2 0x193 PUSH2 0x5B7 JUMP JUMPDEST JUMPDEST SWAP1 PUSH0 MSTORE PUSH1 0x20 PUSH0 KECCAK256 ADD PUSH0 SWAP1 SLOAD SWAP1 PUSH2 0x100 EXP SWAP1 DIV PUSH20 0xFFFFFFFFFFFFFFFFFFFFFFFFFFFFFFFFFFFFFFFF AND PUSH20 0xFFFFFFFFFFFFFFFFFFFFFFFFFFFFFFFFFFFFFFFF AND PUSH4 0x42257B31 DUP5 PUSH1 0x40 MLOAD DUP3 PUSH4 0xFFFFFFFF AND PUSH1 0xE0 SHL DUP2 MSTORE PUSH1 0x4 ADD PUSH2 0x1F4 SWAP2 SWAP1 PUSH2 0x5F3 JUMP JUMPDEST PUSH0 PUSH1 0x40 MLOAD DUP1 DUP4 SUB DUP2 DUP7 GAS STATICCALL ISZERO DUP1 ISZERO PUSH2 0x20E JUMPI RETURNDATASIZE PUSH0 DUP1 RETURNDATACOPY RETURNDATASIZE PUSH0 REVERT JUMPDEST POP POP POP POP PUSH1 0x40 MLOAD RETURNDATASIZE PUSH0 DUP3 RETURNDATACOPY RETURNDATASIZE PUSH1 0x1F NOT PUSH1 0x1F DUP3 ADD AND DUP3 ADD DUP1 PUSH1 0x40 MSTORE POP DUP2 ADD SWAP1 PUSH2 0x236 SWAP2 SWAP1 PUSH2 0x67A JUMP JUMPDEST SWAP1 POP SWAP3 SWAP2 POP POP JUMP JUMPDEST PUSH1 0x1 DUP3 DUP2 SLOAD DUP2 LT PUSH2 0x252 JUMPI PUSH2 0x251 PUSH2 0x5B7 JUMP JUMPDEST JUMPDEST SWAP1 PUSH0 MSTORE PUSH1 0x20 PUSH0 KECCAK256 ADD PUSH0 SWAP1 SLOAD SWAP1 PUSH2 0x100 EXP SWAP1 DIV PUSH20 0xFFFFFFFFFFFFFFFFFFFFFFFFFFFFFFFFFFFFFFFF AND PUSH20 0xFFFFFFFFFFFFFFFFFFFFFFFFFFFFFFFFFFFFFFFF AND PUSH4 0xFC0574E4 DUP5 DUP4 PUSH1 0x40 MLOAD DUP4 PUSH4 0xFFFFFFFF AND PUSH1 0xE0 SHL DUP2 MSTORE PUSH1 0x4 ADD PUSH2 0x2B4 SWAP3 SWAP2 SWAP1 PUSH2 0x6C1 JUMP JUMPDEST PUSH0 PUSH1 0x40 MLOAD DUP1 DUP4 SUB DUP2 PUSH0 DUP8 DUP1 EXTCODESIZE ISZERO DUP1 ISZERO PUSH2 0x2CB JUMPI PUSH0 DUP1 REVERT JUMPDEST POP GAS CALL ISZERO DUP1 ISZERO PUSH2 0x2DD JUMPI RETURNDATASIZE PUSH0 DUP1 RETURNDATACOPY RETURNDATASIZE PUSH0 REVERT JUMPDEST POP POP POP POP POP POP POP JUMP JUMPDEST PUSH2 0x847 DUP1 PUSH2 0x6F0 DUP4 CODECOPY ADD SWAP1 JUMP JUMPDEST PUSH0 PUSH1 0x40 MLOAD SWAP1 POP SWAP1 JUMP JUMPDEST PUSH0 DUP1 REVERT JUMPDEST PUSH0 DUP1 REVERT JUMPDEST PUSH0 DUP2 SWAP1 POP SWAP2 SWAP1 POP JUMP JUMPDEST PUSH2 0x316 DUP2 PUSH2 0x304 JUMP JUMPDEST DUP2 EQ PUSH2 0x320 JUMPI PUSH0 DUP1 REVERT JUMPDEST POP JUMP JUMPDEST PUSH0 DUP2 CALLDATALOAD SWAP1 POP PUSH2 0x331 DUP2 PUSH2 0x30D JUMP JUMPDEST SWAP3 SWAP2 POP POP JUMP JUMPDEST PUSH0 DUP1 PUSH1 0x40 DUP4 DUP6 SUB SLT ISZERO PUSH2 0x34D JUMPI PUSH2 0x34C PUSH2 0x2FC JUMP JUMPDEST JUMPDEST PUSH0 PUSH2 0x35A DUP6 DUP3 DUP7 ADD PUSH2 0x323 JUMP JUMPDEST SWAP3 POP POP PUSH1 0x20 PUSH2 0x36B DUP6 DUP3 DUP7 ADD PUSH2 0x323 JUMP JUMPDEST SWAP2 POP POP SWAP3 POP SWAP3 SWAP1 POP JUMP JUMPDEST PUSH0 DUP2 MLOAD SWAP1 POP SWAP2 SWAP1 POP JUMP JUMPDEST PUSH0 DUP3 DUP3 MSTORE PUSH1 0x20 DUP3 ADD SWAP1 POP SWAP3 SWAP2 POP POP JUMP JUMPDEST PUSH0 JUMPDEST DUP4 DUP2 LT ISZERO PUSH2 0x3AC JUMPI DUP1 DUP3 ADD MLOAD DUP2 DUP5 ADD MSTORE PUSH1 0x20 DUP2 ADD SWAP1 POP PUSH2 0x391 JUMP JUMPDEST PUSH0 DUP5 DUP5 ADD MSTORE POP POP POP POP JUMP JUMPDEST PUSH0 PUSH1 0x1F NOT PUSH1 0x1F DUP4 ADD AND SWAP1 POP SWAP2 SWAP1 POP JUMP JUMPDEST PUSH0 PUSH2 0x3D1 DUP3 PUSH2 0x375 JUMP JUMPDEST PUSH2 0x3DB DUP2 DUP6 PUSH2 0x37F JUMP JUMPDEST SWAP4 POP PUSH2 0x3EB DUP2 DUP6 PUSH1 0x20 DUP7 ADD PUSH2 0x38F JUMP JUMPDEST PUSH2 0x3F4 DUP2 PUSH2 0x3B7 JUMP JUMPDEST DUP5 ADD SWAP2 POP POP SWAP3 SWAP2 POP POP JUMP JUMPDEST PUSH0 PUSH1 0x20 DUP3 ADD SWAP1 POP DUP2 DUP2 SUB PUSH0 DUP4 ADD MSTORE PUSH2 0x417 DUP2 DUP5 PUSH2 0x3C7 JUMP JUMPDEST SWAP1 POP SWAP3 SWAP2 POP POP JUMP JUMPDEST PUSH0 DUP1 REVERT JUMPDEST PUSH0 DUP1 REVERT JUMPDEST PUSH32 0x4E487B7100000000000000000000000000000000000000000000000000000000 PUSH0 MSTORE PUSH1 0x41 PUSH1 0x4 MSTORE PUSH1 0x24 PUSH0 REVERT JUMPDEST PUSH2 0x45D DUP3 PUSH2 0x3B7 JUMP JUMPDEST DUP2 ADD DUP2 DUP2 LT PUSH8 0xFFFFFFFFFFFFFFFF DUP3 GT OR ISZERO PUSH2 0x47C JUMPI PUSH2 0x47B PUSH2 0x427 JUMP JUMPDEST JUMPDEST DUP1 PUSH1 0x40 MSTORE POP POP POP JUMP JUMPDEST PUSH0 PUSH2 0x48E PUSH2 0x2F3 JUMP JUMPDEST SWAP1 POP PUSH2 0x49A DUP3 DUP3 PUSH2 0x454 JUMP JUMPDEST SWAP2 SWAP1 POP JUMP JUMPDEST PUSH0 PUSH8 0xFFFFFFFFFFFFFFFF DUP3 GT ISZERO PUSH2 0x4B9 JUMPI PUSH2 0x4B8 PUSH2 0x427 JUMP JUMPDEST JUMPDEST PUSH2 0x4C2 DUP3 PUSH2 0x3B7 JUMP JUMPDEST SWAP1 POP PUSH1 0x20 DUP2 ADD SWAP1 POP SWAP2 SWAP1 POP JUMP JUMPDEST DUP3 DUP2 DUP4 CALLDATACOPY PUSH0 DUP4 DUP4 ADD MSTORE POP POP POP JUMP JUMPDEST PUSH0 PUSH2 0x4EF PUSH2 0x4EA DUP5 PUSH2 0x49F JUMP JUMPDEST PUSH2 0x485 JUMP JUMPDEST SWAP1 POP DUP3 DUP2 MSTORE PUSH1 0x20 DUP2 ADD DUP5 DUP5 DUP5 ADD GT ISZERO PUSH2 0x50B JUMPI PUSH2 0x50A PUSH2 0x423 JUMP JUMPDEST JUMPDEST PUSH2 0x516 DUP5 DUP3 DUP6 PUSH2 0x4CF JUMP JUMPDEST POP SWAP4 SWAP3 POP POP POP JUMP JUMPDEST PUSH0 DUP3 PUSH1 0x1F DUP4 ADD SLT PUSH2 0x532 JUMPI PUSH2 0x531 PUSH2 0x41F JUMP JUMPDEST JUMPDEST DUP2 CALLDATALOAD PUSH2 0x542 DUP5 DUP3 PUSH1 0x20 DUP7 ADD PUSH2 0x4DD JUMP JUMPDEST SWAP2 POP POP SWAP3 SWAP2 POP POP JUMP JUMPDEST PUSH0 DUP1 PUSH0 PUSH1 0x60 DUP5 DUP7 SUB SLT ISZERO PUSH2 0x562 JUMPI PUSH2 0x561 PUSH2 0x2FC JUMP JUMPDEST JUMPDEST PUSH0 PUSH2 0x56F DUP7 DUP3 DUP8 ADD PUSH2 0x323 JUMP JUMPDEST SWAP4 POP POP PUSH1 0x20 PUSH2 0x580 DUP7 DUP3 DUP8 ADD PUSH2 0x323 JUMP JUMPDEST SWAP3 POP POP PUSH1 0x40 DUP5 ADD CALLDATALOAD PUSH8 0xFFFFFFFFFFFFFFFF DUP2 GT ISZERO PUSH2 0x5A1 JUMPI PUSH2 0x5A0 PUSH2 0x300 JUMP JUMPDEST JUMPDEST PUSH2 0x5AD DUP7 DUP3 DUP8 ADD PUSH2 0x51E JUMP JUMPDEST SWAP2 POP POP SWAP3 POP SWAP3 POP SWAP3 JUMP JUMPDEST PUSH32 0x4E487B7100000000000000000000000000000000000000000000000000000000 PUSH0 MSTORE PUSH1 0x32 PUSH1 0x4 MSTORE PUSH1 0x24 PUSH0 REVERT JUMPDEST PUSH2 0x5ED DUP2 PUSH2 0x304 JUMP JUMPDEST DUP3 MSTORE POP POP JUMP JUMPDEST PUSH0 PUSH1 0x20 DUP3 ADD SWAP1 POP PUSH2 0x606 PUSH0 DUP4 ADD DUP5 PUSH2 0x5E4 JUMP JUMPDEST SWAP3 SWAP2 POP POP JUMP JUMPDEST PUSH0 PUSH2 0x61E PUSH2 0x619 DUP5 PUSH2 0x49F JUMP JUMPDEST PUSH2 0x485 JUMP JUMPDEST SWAP1 POP DUP3 DUP2 MSTORE PUSH1 0x20 DUP2 ADD DUP5 DUP5 DUP5 ADD GT ISZERO PUSH2 0x63A JUMPI PUSH2 0x639 PUSH2 0x423 JUMP JUMPDEST JUMPDEST PUSH2 0x645 DUP5 DUP3 DUP6 PUSH2 0x38F JUMP JUMPDEST POP SWAP4 SWAP3 POP POP POP JUMP JUMPDEST PUSH0 DUP3 PUSH1 0x1F DUP4 ADD SLT PUSH2 0x661 JUMPI PUSH2 0x660 PUSH2 0x41F JUMP JUMPDEST JUMPDEST DUP2 MLOAD PUSH2 0x671 DUP5 DUP3 PUSH1 0x20 DUP7 ADD PUSH2 0x60C JUMP JUMPDEST SWAP2 POP POP SWAP3 SWAP2 POP POP JUMP JUMPDEST PUSH0 PUSH1 0x20 DUP3 DUP5 SUB SLT ISZERO PUSH2 0x68F JUMPI PUSH2 0x68E PUSH2 0x2FC JUMP JUMPDEST JUMPDEST PUSH0 DUP3 ADD MLOAD PUSH8 0xFFFFFFFFFFFFFFFF DUP2 GT ISZERO PUSH2 0x6AC JUMPI PUSH2 0x6AB PUSH2 0x300 JUMP JUMPDEST JUMPDEST PUSH2 0x6B8 DUP5 DUP3 DUP6 ADD PUSH2 0x64D JUMP JUMPDEST SWAP2 POP POP SWAP3 SWAP2 POP POP JUMP JUMPDEST PUSH0 PUSH1 0x40 DUP3 ADD SWAP1 POP PUSH2 0x6D4 PUSH0 DUP4 ADD DUP6 PUSH2 0x5E4 JUMP JUMPDEST DUP2 DUP2 SUB PUSH1 0x20 DUP4 ADD MSTORE PUSH2 0x6E6 DUP2 DUP5 PUSH2 0x3C7 JUMP JUMPDEST SWAP1 POP SWAP4 SWAP3 POP POP POP JUMP INVALID PUSH1 0x80 PUSH1 0x40 MSTORE CALLVALUE DUP1 ISZERO PUSH1 0xE JUMPI PUSH0 DUP1 REVERT JUMPDEST POP PUSH2 0x82B DUP1 PUSH2 0x1C PUSH0 CODECOPY PUSH0 RETURN INVALID PUSH1 0x80 PUSH1 0x40 MSTORE CALLVALUE DUP1 ISZERO PUSH2 0xF JUMPI PUSH0 DUP1 REVERT JUMPDEST POP PUSH1 0x4 CALLDATASIZE LT PUSH2 0x34 JUMPI PUSH0 CALLDATALOAD PUSH1 0xE0 SHR DUP1 PUSH4 0x42257B31 EQ PUSH2 0x38 JUMPI DUP1 PUSH4 0xFC0574E4 EQ PUSH2 0x68 JUMPI JUMPDEST PUSH0 DUP1 REVERT JUMPDEST PUSH2 0x52 PUSH1 0x4 DUP1 CALLDATASIZE SUB DUP2 ADD SWAP1 PUSH2 0x4D SWAP2 SWAP1 PUSH2 0x24C JUMP JUMPDEST PUSH2 0x84 JUMP JUMPDEST PUSH1 0x40 MLOAD PUSH2 0x5F SWAP2 SWAP1 PUSH2 0x301 JUMP JUMPDEST PUSH1 0x40 MLOAD DUP1 SWAP2 SUB SWAP1 RETURN JUMPDEST PUSH2 0x82 PUSH1 0x4 DUP1 CALLDATASIZE SUB DUP2 ADD SWAP1 PUSH2 0x7D SWAP2 SWAP1 PUSH2 0x44D JUMP JUMPDEST PUSH2 0x12E JUMP JUMPDEST STOP JUMPDEST PUSH1 0x60 PUSH2 0x127 PUSH0 DUP1 DUP5 DUP2 MSTORE PUSH1 0x20 ADD SWAP1 DUP2 MSTORE PUSH1 0x20 ADD PUSH0 KECCAK256 PUSH0 ADD DUP1 SLOAD PUSH2 0xA6 SWAP1 PUSH2 0x4D4 JUMP JUMPDEST DUP1 PUSH1 0x1F ADD PUSH1 0x20 DUP1 SWAP2 DIV MUL PUSH1 0x20 ADD PUSH1 0x40 MLOAD SWAP1 DUP2 ADD PUSH1 0x40 MSTORE DUP1 SWAP3 SWAP2 SWAP1 DUP2 DUP2 MSTORE PUSH1 0x20 ADD DUP3 DUP1 SLOAD PUSH2 0xD2 SWAP1 PUSH2 0x4D4 JUMP JUMPDEST DUP1 ISZERO PUSH2 0x11D JUMPI DUP1 PUSH1 0x1F LT PUSH2 0xF4 JUMPI PUSH2 0x100 DUP1 DUP4 SLOAD DIV MUL DUP4 MSTORE SWAP2 PUSH1 0x20 ADD SWAP2 PUSH2 0x11D JUMP JUMPDEST DUP3 ADD SWAP2 SWAP1 PUSH0 MSTORE PUSH1 0x20 PUSH0 KECCAK256 SWAP1 JUMPDEST DUP2 SLOAD DUP2 MSTORE SWAP1 PUSH1 0x1 ADD SWAP1 PUSH1 0x20 ADD DUP1 DUP4 GT PUSH2 0x100 JUMPI DUP3 SWAP1 SUB PUSH1 0x1F AND DUP3 ADD SWAP2 JUMPDEST POP POP POP POP POP PUSH2 0x1DF JUMP JUMPDEST SWAP1 POP SWAP2 SWAP1 POP JUMP JUMPDEST PUSH0 PUSH1 0x40 MLOAD DUP1 PUSH1 0x60 ADD PUSH1 0x40 MSTORE DUP1 DUP4 DUP2 MSTORE PUSH1 0x20 ADD DUP5 DUP2 MSTORE PUSH1 0x20 ADD CALLER PUSH20 0xFFFFFFFFFFFFFFFFFFFFFFFFFFFFFFFFFFFFFFFF AND DUP2 MSTORE POP SWAP1 POP DUP1 PUSH0 DUP1 DUP6 DUP2 MSTORE PUSH1 0x20 ADD SWAP1 DUP2 MSTORE PUSH1 0x20 ADD PUSH0 KECCAK256 PUSH0 DUP3 ADD MLOAD DUP2 PUSH0 ADD SWAP1 DUP2 PUSH2 0x186 SWAP2 SWAP1 PUSH2 0x6A1 JUMP JUMPDEST POP PUSH1 0x20 DUP3 ADD MLOAD DUP2 PUSH1 0x1 ADD SSTORE PUSH1 0x40 DUP3 ADD MLOAD DUP2 PUSH1 0x2 ADD PUSH0 PUSH2 0x100 EXP DUP2 SLOAD DUP2 PUSH20 0xFFFFFFFFFFFFFFFFFFFFFFFFFFFFFFFFFFFFFFFF MUL NOT AND SWAP1 DUP4 PUSH20 0xFFFFFFFFFFFFFFFFFFFFFFFFFFFFFFFFFFFFFFFF AND MUL OR SWAP1 SSTORE POP SWAP1 POP POP POP POP POP JUMP JUMPDEST PUSH1 0x60 DUP2 PUSH1 0x40 MLOAD PUSH1 0x20 ADD PUSH2 0x1F2 SWAP2 SWAP1 PUSH2 0x7D0 JUMP JUMPDEST PUSH1 0x40 MLOAD PUSH1 0x20 DUP2 DUP4 SUB SUB DUP2 MSTORE SWAP1 PUSH1 0x40 MSTORE SWAP1 POP SWAP2 SWAP1 POP JUMP JUMPDEST PUSH0 PUSH1 0x40 MLOAD SWAP1 POP SWAP1 JUMP JUMPDEST PUSH0 DUP1 REVERT JUMPDEST PUSH0 DUP1 REVERT JUMPDEST PUSH0 DUP2 SWAP1 POP SWAP2 SWAP1 POP JUMP JUMPDEST PUSH2 0x22B DUP2 PUSH2 0x219 JUMP JUMPDEST DUP2 EQ PUSH2 0x235 JUMPI PUSH0 DUP1 REVERT JUMPDEST POP JUMP JUMPDEST PUSH0 DUP2 CALLDATALOAD SWAP1 POP PUSH2 0x246 DUP2 PUSH2 0x222 JUMP JUMPDEST SWAP3 SWAP2 POP POP JUMP JUMPDEST PUSH0 PUSH1 0x20 DUP3 DUP5 SUB SLT ISZERO PUSH2 0x261 JUMPI PUSH2 0x260 PUSH2 0x211 JUMP JUMPDEST JUMPDEST PUSH0 PUSH2 0x26E DUP5 DUP3 DUP6 ADD PUSH2 0x238 JUMP JUMPDEST SWAP2 POP POP SWAP3 SWAP2 POP POP JUMP JUMPDEST PUSH0 DUP2 MLOAD SWAP1 POP SWAP2 SWAP1 POP JUMP JUMPDEST PUSH0 DUP3 DUP3 MSTORE PUSH1 0x20 DUP3 ADD SWAP1 POP SWAP3 SWAP2 POP POP JUMP JUMPDEST PUSH0 JUMPDEST DUP4 DUP2 LT ISZERO PUSH2 0x2AE JUMPI DUP1 DUP3 ADD MLOAD DUP2 DUP5 ADD MSTORE PUSH1 0x20 DUP2 ADD SWAP1 POP PUSH2 0x293 JUMP JUMPDEST PUSH0 DUP5 DUP5 ADD MSTORE POP POP POP POP JUMP JUMPDEST PUSH0 PUSH1 0x1F NOT PUSH1 0x1F DUP4 ADD AND SWAP1 POP SWAP2 SWAP1 POP JUMP JUMPDEST PUSH0 PUSH2 0x2D3 DUP3 PUSH2 0x277 JUMP JUMPDEST PUSH2 0x2DD DUP2 DUP6 PUSH2 0x281 JUMP JUMPDEST SWAP4 POP PUSH2 0x2ED DUP2 DUP6 PUSH1 0x20 DUP7 ADD PUSH2 0x291 JUMP JUMPDEST PUSH2 0x2F6 DUP2 PUSH2 0x2B9 JUMP JUMPDEST DUP5 ADD SWAP2 POP POP SWAP3 SWAP2 POP POP JUMP JUMPDEST PUSH0 PUSH1 0x20 DUP3 ADD SWAP1 POP DUP2 DUP2 SUB PUSH0 DUP4 ADD MSTORE PUSH2 0x319 DUP2 DUP5 PUSH2 0x2C9 JUMP JUMPDEST SWAP1 POP SWAP3 SWAP2 POP POP JUMP JUMPDEST PUSH0 DUP1 REVERT JUMPDEST PUSH0 DUP1 REVERT JUMPDEST PUSH32 0x4E487B7100000000000000000000000000000000000000000000000000000000 PUSH0 MSTORE PUSH1 0x41 PUSH1 0x4 MSTORE PUSH1 0x24 PUSH0 REVERT JUMPDEST PUSH2 0x35F DUP3 PUSH2 0x2B9 JUMP JUMPDEST DUP2 ADD DUP2 DUP2 LT PUSH8 0xFFFFFFFFFFFFFFFF DUP3 GT OR ISZERO PUSH2 0x37E JUMPI PUSH2 0x37D PUSH2 0x329 JUMP JUMPDEST JUMPDEST DUP1 PUSH1 0x40 MSTORE POP POP POP JUMP JUMPDEST PUSH0 PUSH2 0x390 PUSH2 0x208 JUMP JUMPDEST SWAP1 POP PUSH2 0x39C DUP3 DUP3 PUSH2 0x356 JUMP JUMPDEST SWAP2 SWAP1 POP JUMP JUMPDEST PUSH0 PUSH8 0xFFFFFFFFFFFFFFFF DUP3 GT ISZERO PUSH2 0x3BB JUMPI PUSH2 0x3BA PUSH2 0x329 JUMP JUMPDEST JUMPDEST PUSH2 0x3C4 DUP3 PUSH2 0x2B9 JUMP JUMPDEST SWAP1 POP PUSH1 0x20 DUP2 ADD SWAP1 POP SWAP2 SWAP1 POP JUMP JUMPDEST DUP3 DUP2 DUP4 CALLDATACOPY PUSH0 DUP4 DUP4 ADD MSTORE POP POP POP JUMP JUMPDEST PUSH0 PUSH2 0x3F1 PUSH2 0x3EC DUP5 PUSH2 0x3A1 JUMP JUMPDEST PUSH2 0x387 JUMP JUMPDEST SWAP1 POP DUP3 DUP2 MSTORE PUSH1 0x20 DUP2 ADD DUP5 DUP5 DUP5 ADD GT ISZERO PUSH2 0x40D JUMPI PUSH2 0x40C PUSH2 0x325 JUMP JUMPDEST JUMPDEST PUSH2 0x418 DUP5 DUP3 DUP6 PUSH2 0x3D1 JUMP JUMPDEST POP SWAP4 SWAP3 POP POP POP JUMP JUMPDEST PUSH0 DUP3 PUSH1 0x1F DUP4 ADD SLT PUSH2 0x434 JUMPI PUSH2 0x433 PUSH2 0x321 JUMP JUMPDEST JUMPDEST DUP2 CALLDATALOAD PUSH2 0x444 DUP5 DUP3 PUSH1 0x20 DUP7 ADD PUSH2 0x3DF JUMP JUMPDEST SWAP2 POP POP SWAP3 SWAP2 POP POP JUMP JUMPDEST PUSH0 DUP1 PUSH1 0x40 DUP4 DUP6 SUB SLT ISZERO PUSH2 0x463 JUMPI PUSH2 0x462 PUSH2 0x211 JUMP JUMPDEST JUMPDEST PUSH0 PUSH2 0x470 DUP6 DUP3 DUP7 ADD PUSH2 0x238 JUMP JUMPDEST SWAP3 POP POP PUSH1 0x20 DUP4 ADD CALLDATALOAD PUSH8 0xFFFFFFFFFFFFFFFF DUP2 GT ISZERO PUSH2 0x491 JUMPI PUSH2 0x490 PUSH2 0x215 JUMP JUMPDEST JUMPDEST PUSH2 0x49D DUP6 DUP3 DUP7 ADD PUSH2 0x420 JUMP JUMPDEST SWAP2 POP POP SWAP3 POP SWAP3 SWAP1 POP JUMP JUMPDEST PUSH32 0x4E487B7100000000000000000000000000000000000000000000000000000000 PUSH0 MSTORE PUSH1 0x22 PUSH1 0x4 MSTORE PUSH1 0x24 PUSH0 REVERT JUMPDEST PUSH0 PUSH1 0x2 DUP3 DIV SWAP1 POP PUSH1 0x1 DUP3 AND DUP1 PUSH2 0x4EB JUMPI PUSH1 0x7F DUP3 AND SWAP2 POP JUMPDEST PUSH1 0x20 DUP3 LT DUP2 SUB PUSH2 0x4FE JUMPI PUSH2 0x4FD PUSH2 0x4A7 JUMP JUMPDEST JUMPDEST POP SWAP2 SWAP1 POP JUMP JUMPDEST PUSH0 DUP2 SWAP1 POP DUP2 PUSH0 MSTORE PUSH1 0x20 PUSH0 KECCAK256 SWAP1 POP SWAP2 SWAP1 POP JUMP JUMPDEST PUSH0 PUSH1 0x20 PUSH1 0x1F DUP4 ADD DIV SWAP1 POP SWAP2 SWAP1 POP JUMP JUMPDEST PUSH0 DUP3 DUP3 SHL SWAP1 POP SWAP3 SWAP2 POP POP JUMP JUMPDEST PUSH0 PUSH1 0x8 DUP4 MUL PUSH2 0x560 PUSH32 0xFFFFFFFFFFFFFFFFFFFFFFFFFFFFFFFFFFFFFFFFFFFFFFFFFFFFFFFFFFFFFFFF DUP3 PUSH2 0x525 JUMP JUMPDEST PUSH2 0x56A DUP7 DUP4 PUSH2 0x525 JUMP JUMPDEST SWAP6 POP DUP1 NOT DUP5 AND SWAP4 POP DUP1 DUP7 AND DUP5 OR SWAP3 POP POP POP SWAP4 SWAP3 POP POP POP JUMP JUMPDEST PUSH0 DUP2 SWAP1 POP SWAP2 SWAP1 POP JUMP JUMPDEST PUSH0 PUSH2 0x5A5 PUSH2 0x5A0 PUSH2 0x59B DUP5 PUSH2 0x219 JUMP JUMPDEST PUSH2 0x582 JUMP JUMPDEST PUSH2 0x219 JUMP JUMPDEST SWAP1 POP SWAP2 SWAP1 POP JUMP JUMPDEST PUSH0 DUP2 SWAP1 POP SWAP2 SWAP1 POP JUMP JUMPDEST PUSH2 0x5BE DUP4 PUSH2 0x58B JUMP JUMPDEST PUSH2 0x5D2 PUSH2 0x5CA DUP3 PUSH2 0x5AC JUMP JUMPDEST DUP5 DUP5 SLOAD PUSH2 0x531 JUMP JUMPDEST DUP3 SSTORE POP POP POP POP JUMP JUMPDEST PUSH0 SWAP1 JUMP JUMPDEST PUSH2 0x5E6 PUSH2 0x5DA JUMP JUMPDEST PUSH2 0x5F1 DUP2 DUP5 DUP5 PUSH2 0x5B5 JUMP JUMPDEST POP POP POP JUMP JUMPDEST JUMPDEST DUP2 DUP2 LT ISZERO PUSH2 0x614 JUMPI PUSH2 0x609 PUSH0 DUP3 PUSH2 0x5DE JUMP JUMPDEST PUSH1 0x1 DUP2 ADD SWAP1 POP PUSH2 0x5F7 JUMP JUMPDEST POP POP JUMP JUMPDEST PUSH1 0x1F DUP3 GT ISZERO PUSH2 0x659 JUMPI PUSH2 0x62A DUP2 PUSH2 0x504 JUMP JUMPDEST PUSH2 0x633 DUP5 PUSH2 0x516 JUMP JUMPDEST DUP2 ADD PUSH1 0x20 DUP6 LT ISZERO PUSH2 0x642 JUMPI DUP2 SWAP1 POP JUMPDEST PUSH2 0x656 PUSH2 0x64E DUP6 PUSH2 0x516 JUMP JUMPDEST DUP4 ADD DUP3 PUSH2 0x5F6 JUMP JUMPDEST POP POP JUMPDEST POP POP POP JUMP JUMPDEST PUSH0 DUP3 DUP3 SHR SWAP1 POP SWAP3 SWAP2 POP POP JUMP JUMPDEST PUSH0 PUSH2 0x679 PUSH0 NOT DUP5 PUSH1 0x8 MUL PUSH2 0x65E JUMP JUMPDEST NOT DUP1 DUP4 AND SWAP2 POP POP SWAP3 SWAP2 POP POP JUMP JUMPDEST PUSH0 PUSH2 0x691 DUP4 DUP4 PUSH2 0x66A JUMP JUMPDEST SWAP2 POP DUP3 PUSH1 0x2 MUL DUP3 OR SWAP1 POP SWAP3 SWAP2 POP POP JUMP JUMPDEST PUSH2 0x6AA DUP3 PUSH2 0x277 JUMP JUMPDEST PUSH8 0xFFFFFFFFFFFFFFFF DUP2 GT ISZERO PUSH2 0x6C3 JUMPI PUSH2 0x6C2 PUSH2 0x329 JUMP JUMPDEST JUMPDEST PUSH2 0x6CD DUP3 SLOAD PUSH2 0x4D4 JUMP JUMPDEST PUSH2 0x6D8 DUP3 DUP3 DUP6 PUSH2 0x618 JUMP JUMPDEST PUSH0 PUSH1 0x20 SWAP1 POP PUSH1 0x1F DUP4 GT PUSH1 0x1 DUP2 EQ PUSH2 0x709 JUMPI PUSH0 DUP5 ISZERO PUSH2 0x6F7 JUMPI DUP3 DUP8 ADD MLOAD SWAP1 POP JUMPDEST PUSH2 0x701 DUP6 DUP3 PUSH2 0x686 JUMP JUMPDEST DUP7 SSTORE POP PUSH2 0x768 JUMP JUMPDEST PUSH1 0x1F NOT DUP5 AND PUSH2 0x717 DUP7 PUSH2 0x504 JUMP JUMPDEST PUSH0 JUMPDEST DUP3 DUP2 LT ISZERO PUSH2 0x73E JUMPI DUP5 DUP10 ADD MLOAD DUP3 SSTORE PUSH1 0x1 DUP3 ADD SWAP2 POP PUSH1 0x20 DUP6 ADD SWAP5 POP PUSH1 0x20 DUP2 ADD SWAP1 POP PUSH2 0x719 JUMP JUMPDEST DUP7 DUP4 LT ISZERO PUSH2 0x75B JUMPI DUP5 DUP10 ADD MLOAD PUSH2 0x757 PUSH1 0x1F DUP10 AND DUP3 PUSH2 0x66A JUMP JUMPDEST DUP4 SSTORE POP JUMPDEST PUSH1 0x1 PUSH1 0x2 DUP9 MUL ADD DUP9 SSTORE POP POP POP JUMPDEST POP POP POP POP POP POP JUMP JUMPDEST PUSH0 DUP2 SWAP1 POP SWAP3 SWAP2 POP POP JUMP JUMPDEST PUSH0 PUSH2 0x784 DUP3 PUSH2 0x277 JUMP JUMPDEST PUSH2 0x78E DUP2 DUP6 PUSH2 0x770 JUMP JUMPDEST SWAP4 POP PUSH2 0x79E DUP2 DUP6 PUSH1 0x20 DUP7 ADD PUSH2 0x291 JUMP JUMPDEST DUP1 DUP5 ADD SWAP2 POP POP SWAP3 SWAP2 POP POP JUMP JUMPDEST PUSH32 0x66726F6D206672616E6B277320636F6E74726163742E00000000000000000000 DUP2 MSTORE POP JUMP JUMPDEST PUSH0 PUSH2 0x7DB DUP3 DUP5 PUSH2 0x77A JUMP JUMPDEST SWAP2 POP PUSH2 0x7E6 DUP3 PUSH2 0x7AA JUMP JUMPDEST PUSH1 0x16 DUP3 ADD SWAP2 POP DUP2 SWAP1 POP SWAP3 SWAP2 POP POP JUMP INVALID LOG2 PUSH5 0x6970667358 0x22 SLT KECCAK256 0xD0 MLOAD 0xAB PUSH16 0xA038A633A954591D6617628D8ABB55C0 0xD3 DUP15 DUP6 0xEE SWAP12 DIV 0xCC DUP4 0xBE PUSH10 0x147764736F6C63430008 BYTE STOP CALLER LOG2 PUSH5 0x6970667358 0x22 SLT KECCAK256 PUSH11 0xF94AB20D44A414519930E7 0xB0 0xD 0x29 SLT 0xAF 0xD4 0xD9 0xCA 0xE4 PUSH16 0xCB26FDB116598CE5565A64736F6C6343 STOP ADDMOD BYTE STOP CALLER "
				},
				"gasEstimates": {
					"creation": {
						"codeDepositCost": "789600",
						"executionCost": "823",
						"totalCost": "790423"
					},
					"external": {
						"callSayHelloFromFactory(uint256,uint256)": "infinite",
						"callSetHelloFromFactory(uint256,uint256,string)": "infinite",
						"createHelloword()": "infinite"
					}
				},
				"methodIdentifiers": {
					"callSayHelloFromFactory(uint256,uint256)": "53bf97dd",
					"callSetHelloFromFactory(uint256,uint256,string)": "91ad6ccb",
					"createHelloword()": "0aa48b74"
				}
			},
			"storageLayout": {
				"storage": [
					{
						"astId": 6,
						"contract": "test/helloFactory.sol:HelloWorldFactory",
						"label": "hw",
						"offset": 0,
						"slot": "0",
						"type": "t_contract(HelloWorld)132"
					},
					{
						"astId": 10,
						"contract": "test/helloFactory.sol:HelloWorldFactory",
						"label": "hws",
						"offset": 0,
						"slot": "1",
						"type": "t_array(t_contract(HelloWorld)132)dyn_storage"
					}
				],
				"types": {
					"t_array(t_contract(HelloWorld)132)dyn_storage": {
						"base": "t_contract(HelloWorld)132",
						"encoding": "dynamic_array",
						"label": "contract HelloWorld[]",
						"numberOfBytes": "32"
					},
					"t_contract(HelloWorld)132": {
						"encoding": "inplace",
						"label": "contract HelloWorld",
						"numberOfBytes": "20"
					}
				}
			},
			"userdoc": {
				"kind": "user",
				"methods": {},
				"version": 1
			}
		}
	}
}