{
	"test/fundMe.sol": {
		"FundMe": {
			"abi": [
				{
					"inputs": [
						{
							"internalType": "uint256",
							"name": "_lockTime",
							"type": "uint256"
						}
					],
					"stateMutability": "nonpayable",
					"type": "constructor"
				},
				{
					"inputs": [],
					"name": "fund",
					"outputs": [],
					"stateMutability": "payable",
					"type": "function"
				},
				{
					"inputs": [
						{
							"internalType": "address",
							"name": "",
							"type": "address"
						}
					],
					"name": "fundersToAmount",
					"outputs": [
						{
							"internalType": "uint256",
							"name": "",
							"type": "uint256"
						}
					],
					"stateMutability": "view",
					"type": "function"
				},
				{
					"inputs": [],
					"name": "getChainlinkDataFeedLatestAnswer",
					"outputs": [
						{
							"internalType": "int256",
							"name": "",
							"type": "int256"
						}
					],
					"stateMutability": "view",
					"type": "function"
				},
				{
					"inputs": [],
					"name": "getFund",
					"outputs": [],
					"stateMutability": "nonpayable",
					"type": "function"
				},
				{
					"inputs": [],
					"name": "owner",
					"outputs": [
						{
							"internalType": "address",
							"name": "",
							"type": "address"
						}
					],
					"stateMutability": "view",
					"type": "function"
				},
				{
					"inputs": [],
					"name": "refund",
					"outputs": [],
					"stateMutability": "nonpayable",
					"type": "function"
				},
				{
					"inputs": [
						{
							"internalType": "address",
							"name": "newOwner",
							"type": "address"
						}
					],
					"name": "transferOwenerShip",
					"outputs": [],
					"stateMutability": "nonpayable",
					"type": "function"
				}
			],
			"devdoc": {
				"kind": "dev",
				"methods": {},
				"version": 1
			},
			"evm": {
				"assembly": "    /* \"test/fundMe.sol\":390:3474  contract FundMe{... */\n  mstore(0x40, 0x80)\n    /* \"test/fundMe.sol\":493:507  100 * 10 ** 18 */\n  0x056bc75e2d63100000\n    /* \"test/fundMe.sol\":469:507  uint256 MINIMUM_VALUE = 100 * 10 ** 18 */\n  0x01\n  sstore\n    /* \"test/fundMe.sol\":823:1175  constructor(uint256 _lockTime) {... */\n  callvalue\n  dup1\n  iszero\n  tag_1\n  jumpi\n  0x00\n  dup1\n  revert\ntag_1:\n  pop\n  mload(0x40)\n  sub(codesize, bytecodeSize)\n  dup1\n  bytecodeSize\n  dup4\n  codecopy\n  dup2\n  dup2\n  add\n  0x40\n  mstore\n  dup2\n  add\n  swap1\n  tag_2\n  swap2\n  swap1\n  tag_3\n  jump\t// in\ntag_2:\n    /* \"test/fundMe.sol\":978:1020  0x694AA1769357215DE4FAC081bf1f309aDC325306 */\n  0x694aa1769357215de4fac081bf1f309adc325306\n    /* \"test/fundMe.sol\":931:939  dataFeed */\n  0x02\n  0x00\n    /* \"test/fundMe.sol\":931:1031  dataFeed = AggregatorV3Interface(... */\n  0x0100\n  exp\n  dup2\n  sload\n  dup2\n  0xffffffffffffffffffffffffffffffffffffffff\n  mul\n  not\n  and\n  swap1\n  dup4\n  0xffffffffffffffffffffffffffffffffffffffff\n  and\n  mul\n  or\n  swap1\n  sstore\n  pop\n    /* \"test/fundMe.sol\":1050:1060  msg.sender */\n  caller\n    /* \"test/fundMe.sol\":1042:1047  owner */\n  0x03\n  0x00\n    /* \"test/fundMe.sol\":1042:1060  owner = msg.sender */\n  0x0100\n  exp\n  dup2\n  sload\n  dup2\n  0xffffffffffffffffffffffffffffffffffffffff\n  mul\n  not\n  and\n  swap1\n  dup4\n  0xffffffffffffffffffffffffffffffffffffffff\n  and\n  mul\n  or\n  swap1\n  sstore\n  pop\n    /* \"test/fundMe.sol\":1082:1091  _lockTime */\n  dup1\n    /* \"test/fundMe.sol\":1071:1079  lockTime */\n  0x05\n    /* \"test/fundMe.sol\":1071:1091  lockTime = _lockTime */\n  dup2\n  swap1\n  sstore\n  pop\n    /* \"test/fundMe.sol\":1152:1167  block.timestamp */\n  timestamp\n    /* \"test/fundMe.sol\":1130:1149  deploymentTimestamp */\n  0x04\n    /* \"test/fundMe.sol\":1130:1167  deploymentTimestamp = block.timestamp */\n  dup2\n  swap1\n  sstore\n  pop\n    /* \"test/fundMe.sol\":823:1175  constructor(uint256 _lockTime) {... */\n  pop\n    /* \"test/fundMe.sol\":390:3474  contract FundMe{... */\n  jump(tag_6)\n    /* \"#utility.yul\":88:205   */\ntag_8:\n    /* \"#utility.yul\":197:198   */\n  0x00\n    /* \"#utility.yul\":194:195   */\n  dup1\n    /* \"#utility.yul\":187:199   */\n  revert\n    /* \"#utility.yul\":334:411   */\ntag_10:\n    /* \"#utility.yul\":371:378   */\n  0x00\n    /* \"#utility.yul\":400:405   */\n  dup2\n    /* \"#utility.yul\":389:405   */\n  swap1\n  pop\n    /* \"#utility.yul\":334:411   */\n  swap2\n  swap1\n  pop\n  jump\t// out\n    /* \"#utility.yul\":417:539   */\ntag_11:\n    /* \"#utility.yul\":490:514   */\n  tag_19\n    /* \"#utility.yul\":508:513   */\n  dup2\n    /* \"#utility.yul\":490:514   */\n  tag_10\n  jump\t// in\ntag_19:\n    /* \"#utility.yul\":483:488   */\n  dup2\n    /* \"#utility.yul\":480:515   */\n  eq\n    /* \"#utility.yul\":470:533   */\n  tag_20\n  jumpi\n    /* \"#utility.yul\":529:530   */\n  0x00\n    /* \"#utility.yul\":526:527   */\n  dup1\n    /* \"#utility.yul\":519:531   */\n  revert\n    /* \"#utility.yul\":470:533   */\ntag_20:\n    /* \"#utility.yul\":417:539   */\n  pop\n  jump\t// out\n    /* \"#utility.yul\":545:688   */\ntag_12:\n    /* \"#utility.yul\":602:607   */\n  0x00\n    /* \"#utility.yul\":633:639   */\n  dup2\n    /* \"#utility.yul\":627:640   */\n  mload\n    /* \"#utility.yul\":618:640   */\n  swap1\n  pop\n    /* \"#utility.yul\":649:682   */\n  tag_22\n    /* \"#utility.yul\":676:681   */\n  dup2\n    /* \"#utility.yul\":649:682   */\n  tag_11\n  jump\t// in\ntag_22:\n    /* \"#utility.yul\":545:688   */\n  swap3\n  swap2\n  pop\n  pop\n  jump\t// out\n    /* \"#utility.yul\":694:1045   */\ntag_3:\n    /* \"#utility.yul\":764:770   */\n  0x00\n    /* \"#utility.yul\":813:815   */\n  0x20\n    /* \"#utility.yul\":801:810   */\n  dup3\n    /* \"#utility.yul\":792:799   */\n  dup5\n    /* \"#utility.yul\":788:811   */\n  sub\n    /* \"#utility.yul\":784:816   */\n  slt\n    /* \"#utility.yul\":781:900   */\n  iszero\n  tag_24\n  jumpi\n    /* \"#utility.yul\":819:898   */\n  tag_25\n  tag_8\n  jump\t// in\ntag_25:\n    /* \"#utility.yul\":781:900   */\ntag_24:\n    /* \"#utility.yul\":939:940   */\n  0x00\n    /* \"#utility.yul\":964:1028   */\n  tag_26\n    /* \"#utility.yul\":1020:1027   */\n  dup5\n    /* \"#utility.yul\":1011:1017   */\n  dup3\n    /* \"#utility.yul\":1000:1009   */\n  dup6\n    /* \"#utility.yul\":996:1018   */\n  add\n    /* \"#utility.yul\":964:1028   */\n  tag_12\n  jump\t// in\ntag_26:\n    /* \"#utility.yul\":954:1028   */\n  swap2\n  pop\n    /* \"#utility.yul\":910:1038   */\n  pop\n    /* \"#utility.yul\":694:1045   */\n  swap3\n  swap2\n  pop\n  pop\n  jump\t// out\n    /* \"test/fundMe.sol\":390:3474  contract FundMe{... */\ntag_6:\n  dataSize(sub_0)\n  dup1\n  dataOffset(sub_0)\n  0x00\n  codecopy\n  0x00\n  return\nstop\n\nsub_0: assembly {\n        /* \"test/fundMe.sol\":390:3474  contract FundMe{... */\n      mstore(0x40, 0x80)\n      jumpi(tag_1, lt(calldatasize, 0x04))\n      shr(0xe0, calldataload(0x00))\n      dup1\n      0x9f883a05\n      gt\n      tag_9\n      jumpi\n      dup1\n      0x9f883a05\n      eq\n      tag_5\n      jumpi\n      dup1\n      0x9faa1cac\n      eq\n      tag_6\n      jumpi\n      dup1\n      0xb60d4288\n      eq\n      tag_7\n      jumpi\n      dup1\n      0xbea4dfb5\n      eq\n      tag_8\n      jumpi\n      jump(tag_1)\n    tag_9:\n      dup1\n      0x590e1ae3\n      eq\n      tag_2\n      jumpi\n      dup1\n      0x8da5cb5b\n      eq\n      tag_3\n      jumpi\n      dup1\n      0x8edd6eb6\n      eq\n      tag_4\n      jumpi\n    tag_1:\n      0x00\n      dup1\n      revert\n        /* \"test/fundMe.sol\":2973:3471  function refund() external {... */\n    tag_2:\n      callvalue\n      dup1\n      iszero\n      tag_10\n      jumpi\n      0x00\n      dup1\n      revert\n    tag_10:\n      pop\n      tag_11\n      tag_12\n      jump\t// in\n    tag_11:\n      stop\n        /* \"test/fundMe.sol\":687:707  address public owner */\n    tag_3:\n      callvalue\n      dup1\n      iszero\n      tag_13\n      jumpi\n      0x00\n      dup1\n      revert\n    tag_13:\n      pop\n      tag_14\n      tag_15\n      jump\t// in\n    tag_14:\n      mload(0x40)\n      tag_16\n      swap2\n      swap1\n      tag_17\n      jump\t// in\n    tag_16:\n      mload(0x40)\n      dup1\n      swap2\n      sub\n      swap1\n      return\n        /* \"test/fundMe.sol\":2471:2967  function getFund() external {... */\n    tag_4:\n      callvalue\n      dup1\n      iszero\n      tag_18\n      jumpi\n      0x00\n      dup1\n      revert\n    tag_18:\n      pop\n      tag_19\n      tag_20\n      jump\t// in\n    tag_19:\n      stop\n        /* \"test/fundMe.sol\":412:462  mapping(address => uint256) public fundersToAmount */\n    tag_5:\n      callvalue\n      dup1\n      iszero\n      tag_21\n      jumpi\n      0x00\n      dup1\n      revert\n    tag_21:\n      pop\n      tag_22\n      0x04\n      dup1\n      calldatasize\n      sub\n      dup2\n      add\n      swap1\n      tag_23\n      swap2\n      swap1\n      tag_24\n      jump\t// in\n    tag_23:\n      tag_25\n      jump\t// in\n    tag_22:\n      mload(0x40)\n      tag_26\n      swap2\n      swap1\n      tag_27\n      jump\t// in\n    tag_26:\n      mload(0x40)\n      dup1\n      swap2\n      sub\n      swap1\n      return\n        /* \"test/fundMe.sol\":2232:2403  function transferOwenerShip(address newOwner) public {... */\n    tag_6:\n      callvalue\n      dup1\n      iszero\n      tag_28\n      jumpi\n      0x00\n      dup1\n      revert\n    tag_28:\n      pop\n      tag_29\n      0x04\n      dup1\n      calldatasize\n      sub\n      dup2\n      add\n      swap1\n      tag_30\n      swap2\n      swap1\n      tag_24\n      jump\t// in\n    tag_30:\n      tag_31\n      jump\t// in\n    tag_29:\n      stop\n        /* \"test/fundMe.sol\":1181:1438  function fund() external payable{... */\n    tag_7:\n      tag_32\n      tag_33\n      jump\t// in\n    tag_32:\n      stop\n        /* \"test/fundMe.sol\":1520:1868  function getChainlinkDataFeedLatestAnswer() public view returns (int) {... */\n    tag_8:\n      callvalue\n      dup1\n      iszero\n      tag_34\n      jumpi\n      0x00\n      dup1\n      revert\n    tag_34:\n      pop\n      tag_35\n      tag_36\n      jump\t// in\n    tag_35:\n      mload(0x40)\n      tag_37\n      swap2\n      swap1\n      tag_38\n      jump\t// in\n    tag_37:\n      mload(0x40)\n      dup1\n      swap2\n      sub\n      swap1\n      return\n        /* \"test/fundMe.sol\":2973:3471  function refund() external {... */\n    tag_12:\n        /* \"test/fundMe.sol\":665:678  1000 * 10**18 */\n      0x3635c9adc5dea00000\n        /* \"test/fundMe.sol\":3019:3057  convertEthToUsd(address(this).balance) */\n      tag_40\n        /* \"test/fundMe.sol\":3035:3056  address(this).balance */\n      selfbalance\n        /* \"test/fundMe.sol\":3019:3034  convertEthToUsd */\n      tag_41\n        /* \"test/fundMe.sol\":3019:3057  convertEthToUsd(address(this).balance) */\n      jump\t// in\n    tag_40:\n        /* \"test/fundMe.sol\":3019:3064  convertEthToUsd(address(this).balance)<TARGET */\n      lt\n        /* \"test/fundMe.sol\":3011:3085  require(convertEthToUsd(address(this).balance)<TARGET,\"target is reached\") */\n      tag_42\n      jumpi\n      mload(0x40)\n      0x08c379a000000000000000000000000000000000000000000000000000000000\n      dup2\n      mstore\n      0x04\n      add\n      tag_43\n      swap1\n      tag_44\n      jump\t// in\n    tag_43:\n      mload(0x40)\n      dup1\n      swap2\n      sub\n      swap1\n      revert\n    tag_42:\n        /* \"test/fundMe.sol\":3133:3134  0 */\n      0x00\n        /* \"test/fundMe.sol\":3104:3119  fundersToAmount */\n      dup1\n        /* \"test/fundMe.sol\":3104:3131  fundersToAmount[msg.sender] */\n      0x00\n        /* \"test/fundMe.sol\":3120:3130  msg.sender */\n      caller\n        /* \"test/fundMe.sol\":3104:3131  fundersToAmount[msg.sender] */\n      0xffffffffffffffffffffffffffffffffffffffff\n      and\n      0xffffffffffffffffffffffffffffffffffffffff\n      and\n      dup2\n      mstore\n      0x20\n      add\n      swap1\n      dup2\n      mstore\n      0x20\n      add\n      0x00\n      keccak256\n      sload\n        /* \"test/fundMe.sol\":3104:3134  fundersToAmount[msg.sender]!=0 */\n      sub\n        /* \"test/fundMe.sol\":3096:3161  require(fundersToAmount[msg.sender]!=0,\"ther is no fund for you\") */\n      tag_45\n      jumpi\n      mload(0x40)\n      0x08c379a000000000000000000000000000000000000000000000000000000000\n      dup2\n      mstore\n      0x04\n      add\n      tag_46\n      swap1\n      tag_47\n      jump\t// in\n    tag_46:\n      mload(0x40)\n      dup1\n      swap2\n      sub\n      swap1\n      revert\n    tag_45:\n        /* \"test/fundMe.sol\":3219:3227  lockTime */\n      sload(0x05)\n        /* \"test/fundMe.sol\":3199:3218  deploymentTimestamp */\n      sload(0x04)\n        /* \"test/fundMe.sol\":3199:3227  deploymentTimestamp+lockTime */\n      tag_48\n      swap2\n      swap1\n      tag_49\n      jump\t// in\n    tag_48:\n        /* \"test/fundMe.sol\":3180:3195  block.timestamp */\n      timestamp\n        /* \"test/fundMe.sol\":3180:3227  block.timestamp >= deploymentTimestamp+lockTime */\n      lt\n      iszero\n        /* \"test/fundMe.sol\":3172:3246  require(block.timestamp >= deploymentTimestamp+lockTime,\"window is close\") */\n      tag_50\n      jumpi\n      mload(0x40)\n      0x08c379a000000000000000000000000000000000000000000000000000000000\n      dup2\n      mstore\n      0x04\n      add\n      tag_51\n      swap1\n      tag_52\n      jump\t// in\n    tag_51:\n      mload(0x40)\n      dup1\n      swap2\n      sub\n      swap1\n      revert\n    tag_50:\n        /* \"test/fundMe.sol\":3257:3269  bool success */\n      0x00\n        /* \"test/fundMe.sol\":3299:3309  msg.sender */\n      caller\n        /* \"test/fundMe.sol\":3291:3315  payable(msg.sender).call */\n      0xffffffffffffffffffffffffffffffffffffffff\n      and\n        /* \"test/fundMe.sol\":3322:3337  fundersToAmount */\n      0x00\n        /* \"test/fundMe.sol\":3322:3349  fundersToAmount[msg.sender] */\n      dup1\n        /* \"test/fundMe.sol\":3338:3348  msg.sender */\n      caller\n        /* \"test/fundMe.sol\":3322:3349  fundersToAmount[msg.sender] */\n      0xffffffffffffffffffffffffffffffffffffffff\n      and\n      0xffffffffffffffffffffffffffffffffffffffff\n      and\n      dup2\n      mstore\n      0x20\n      add\n      swap1\n      dup2\n      mstore\n      0x20\n      add\n      0x00\n      keccak256\n      sload\n        /* \"test/fundMe.sol\":3291:3354  payable(msg.sender).call{value:fundersToAmount[msg.sender]}(\"\") */\n      mload(0x40)\n      tag_53\n      swap1\n      tag_54\n      jump\t// in\n    tag_53:\n      0x00\n      mload(0x40)\n      dup1\n      dup4\n      sub\n      dup2\n      dup6\n      dup8\n      gas\n      call\n      swap3\n      pop\n      pop\n      pop\n      returndatasize\n      dup1\n      0x00\n      dup2\n      eq\n      tag_57\n      jumpi\n      mload(0x40)\n      swap2\n      pop\n      and(add(returndatasize, 0x3f), not(0x1f))\n      dup3\n      add\n      0x40\n      mstore\n      returndatasize\n      dup3\n      mstore\n      returndatasize\n      0x00\n      0x20\n      dup5\n      add\n      returndatacopy\n      jump(tag_56)\n    tag_57:\n      0x60\n      swap2\n      pop\n    tag_56:\n      pop\n        /* \"test/fundMe.sol\":3280:3354  (success,)=payable(msg.sender).call{value:fundersToAmount[msg.sender]}(\"\") */\n      pop\n      dup1\n      swap2\n      pop\n      pop\n        /* \"test/fundMe.sol\":3373:3380  success */\n      dup1\n        /* \"test/fundMe.sol\":3365:3402  require(success,\"transfer tx failed\") */\n      tag_58\n      jumpi\n      mload(0x40)\n      0x08c379a000000000000000000000000000000000000000000000000000000000\n      dup2\n      mstore\n      0x04\n      add\n      tag_59\n      swap1\n      tag_60\n      jump\t// in\n    tag_59:\n      mload(0x40)\n      dup1\n      swap2\n      sub\n      swap1\n      revert\n    tag_58:\n        /* \"test/fundMe.sol\":3462:3463  0 */\n      0x00\n        /* \"test/fundMe.sol\":3432:3447  fundersToAmount */\n      dup1\n        /* \"test/fundMe.sol\":3432:3459  fundersToAmount[msg.sender] */\n      0x00\n        /* \"test/fundMe.sol\":3448:3458  msg.sender */\n      caller\n        /* \"test/fundMe.sol\":3432:3459  fundersToAmount[msg.sender] */\n      0xffffffffffffffffffffffffffffffffffffffff\n      and\n      0xffffffffffffffffffffffffffffffffffffffff\n      and\n      dup2\n      mstore\n      0x20\n      add\n      swap1\n      dup2\n      mstore\n      0x20\n      add\n      0x00\n      keccak256\n        /* \"test/fundMe.sol\":3432:3463  fundersToAmount[msg.sender] = 0 */\n      dup2\n      swap1\n      sstore\n      pop\n        /* \"test/fundMe.sol\":3000:3471  {... */\n      pop\n        /* \"test/fundMe.sol\":2973:3471  function refund() external {... */\n      jump\t// out\n        /* \"test/fundMe.sol\":687:707  address public owner */\n    tag_15:\n      0x03\n      0x00\n      swap1\n      sload\n      swap1\n      0x0100\n      exp\n      swap1\n      div\n      0xffffffffffffffffffffffffffffffffffffffff\n      and\n      dup2\n      jump\t// out\n        /* \"test/fundMe.sol\":2471:2967  function getFund() external {... */\n    tag_20:\n        /* \"test/fundMe.sol\":665:678  1000 * 10**18 */\n      0x3635c9adc5dea00000\n        /* \"test/fundMe.sol\":2518:2556  convertEthToUsd(address(this).balance) */\n      tag_62\n        /* \"test/fundMe.sol\":2534:2555  address(this).balance */\n      selfbalance\n        /* \"test/fundMe.sol\":2518:2533  convertEthToUsd */\n      tag_41\n        /* \"test/fundMe.sol\":2518:2556  convertEthToUsd(address(this).balance) */\n      jump\t// in\n    tag_62:\n        /* \"test/fundMe.sol\":2518:2566  convertEthToUsd(address(this).balance) >= TARGET */\n      lt\n      iszero\n        /* \"test/fundMe.sol\":2510:2591  require(convertEthToUsd(address(this).balance) >= TARGET,\"Target is not reached\") */\n      tag_63\n      jumpi\n      mload(0x40)\n      0x08c379a000000000000000000000000000000000000000000000000000000000\n      dup2\n      mstore\n      0x04\n      add\n      tag_64\n      swap1\n      tag_65\n      jump\t// in\n    tag_64:\n      mload(0x40)\n      dup1\n      swap2\n      sub\n      swap1\n      revert\n    tag_63:\n        /* \"test/fundMe.sol\":2624:2629  owner */\n      0x03\n      0x00\n      swap1\n      sload\n      swap1\n      0x0100\n      exp\n      swap1\n      div\n      0xffffffffffffffffffffffffffffffffffffffff\n      and\n        /* \"test/fundMe.sol\":2610:2629  msg.sender == owner */\n      0xffffffffffffffffffffffffffffffffffffffff\n      and\n        /* \"test/fundMe.sol\":2610:2620  msg.sender */\n      caller\n        /* \"test/fundMe.sol\":2610:2629  msg.sender == owner */\n      0xffffffffffffffffffffffffffffffffffffffff\n      and\n      eq\n        /* \"test/fundMe.sol\":2602:2657  require(msg.sender == owner,\"there is no fund for you\") */\n      tag_66\n      jumpi\n      mload(0x40)\n      0x08c379a000000000000000000000000000000000000000000000000000000000\n      dup2\n      mstore\n      0x04\n      add\n      tag_67\n      swap1\n      tag_68\n      jump\t// in\n    tag_67:\n      mload(0x40)\n      dup1\n      swap2\n      sub\n      swap1\n      revert\n    tag_66:\n        /* \"test/fundMe.sol\":2715:2723  lockTime */\n      sload(0x05)\n        /* \"test/fundMe.sol\":2695:2714  deploymentTimestamp */\n      sload(0x04)\n        /* \"test/fundMe.sol\":2695:2723  deploymentTimestamp+lockTime */\n      tag_69\n      swap2\n      swap1\n      tag_49\n      jump\t// in\n    tag_69:\n        /* \"test/fundMe.sol\":2676:2691  block.timestamp */\n      timestamp\n        /* \"test/fundMe.sol\":2676:2723  block.timestamp >= deploymentTimestamp+lockTime */\n      lt\n      iszero\n        /* \"test/fundMe.sol\":2668:2742  require(block.timestamp >= deploymentTimestamp+lockTime,\"window is close\") */\n      tag_70\n      jumpi\n      mload(0x40)\n      0x08c379a000000000000000000000000000000000000000000000000000000000\n      dup2\n      mstore\n      0x04\n      add\n      tag_71\n      swap1\n      tag_52\n      jump\t// in\n    tag_71:\n      mload(0x40)\n      dup1\n      swap2\n      sub\n      swap1\n      revert\n    tag_70:\n        /* \"test/fundMe.sol\":2776:2788  bool success */\n      0x00\n        /* \"test/fundMe.sol\":2818:2828  msg.sender */\n      caller\n        /* \"test/fundMe.sol\":2810:2834  payable(msg.sender).call */\n      0xffffffffffffffffffffffffffffffffffffffff\n      and\n        /* \"test/fundMe.sol\":2842:2863  address(this).balance */\n      selfbalance\n        /* \"test/fundMe.sol\":2810:2868  payable(msg.sender).call{value: address(this).balance}(\"\") */\n      mload(0x40)\n      tag_72\n      swap1\n      tag_54\n      jump\t// in\n    tag_72:\n      0x00\n      mload(0x40)\n      dup1\n      dup4\n      sub\n      dup2\n      dup6\n      dup8\n      gas\n      call\n      swap3\n      pop\n      pop\n      pop\n      returndatasize\n      dup1\n      0x00\n      dup2\n      eq\n      tag_75\n      jumpi\n      mload(0x40)\n      swap2\n      pop\n      and(add(returndatasize, 0x3f), not(0x1f))\n      dup3\n      add\n      0x40\n      mstore\n      returndatasize\n      dup3\n      mstore\n      returndatasize\n      0x00\n      0x20\n      dup5\n      add\n      returndatacopy\n      jump(tag_74)\n    tag_75:\n      0x60\n      swap2\n      pop\n    tag_74:\n      pop\n        /* \"test/fundMe.sol\":2799:2868  (success,)=payable(msg.sender).call{value: address(this).balance}(\"\") */\n      pop\n      dup1\n      swap2\n      pop\n      pop\n        /* \"test/fundMe.sol\":2888:2895  success */\n      dup1\n        /* \"test/fundMe.sol\":2880:2917  require(success,\"transfer tx failed\") */\n      tag_76\n      jumpi\n      mload(0x40)\n      0x08c379a000000000000000000000000000000000000000000000000000000000\n      dup2\n      mstore\n      0x04\n      add\n      tag_77\n      swap1\n      tag_60\n      jump\t// in\n    tag_77:\n      mload(0x40)\n      dup1\n      swap2\n      sub\n      swap1\n      revert\n    tag_76:\n        /* \"test/fundMe.sol\":2958:2959  0 */\n      0x00\n        /* \"test/fundMe.sol\":2928:2943  fundersToAmount */\n      dup1\n        /* \"test/fundMe.sol\":2928:2955  fundersToAmount[msg.sender] */\n      0x00\n        /* \"test/fundMe.sol\":2944:2954  msg.sender */\n      caller\n        /* \"test/fundMe.sol\":2928:2955  fundersToAmount[msg.sender] */\n      0xffffffffffffffffffffffffffffffffffffffff\n      and\n      0xffffffffffffffffffffffffffffffffffffffff\n      and\n      dup2\n      mstore\n      0x20\n      add\n      swap1\n      dup2\n      mstore\n      0x20\n      add\n      0x00\n      keccak256\n        /* \"test/fundMe.sol\":2928:2959  fundersToAmount[msg.sender] = 0 */\n      dup2\n      swap1\n      sstore\n      pop\n        /* \"test/fundMe.sol\":2499:2967  {... */\n      pop\n        /* \"test/fundMe.sol\":2471:2967  function getFund() external {... */\n      jump\t// out\n        /* \"test/fundMe.sol\":412:462  mapping(address => uint256) public fundersToAmount */\n    tag_25:\n      mstore(0x20, 0x00)\n      dup1\n      0x00\n      mstore\n      keccak256(0x00, 0x40)\n      0x00\n      swap2\n      pop\n      swap1\n      pop\n      sload\n      dup2\n      jump\t// out\n        /* \"test/fundMe.sol\":2232:2403  function transferOwenerShip(address newOwner) public {... */\n    tag_31:\n        /* \"test/fundMe.sol\":2318:2323  owner */\n      0x03\n      0x00\n      swap1\n      sload\n      swap1\n      0x0100\n      exp\n      swap1\n      div\n      0xffffffffffffffffffffffffffffffffffffffff\n      and\n        /* \"test/fundMe.sol\":2304:2323  msg.sender == owner */\n      0xffffffffffffffffffffffffffffffffffffffff\n      and\n        /* \"test/fundMe.sol\":2304:2314  msg.sender */\n      caller\n        /* \"test/fundMe.sol\":2304:2323  msg.sender == owner */\n      0xffffffffffffffffffffffffffffffffffffffff\n      and\n      eq\n        /* \"test/fundMe.sol\":2296:2368  require(msg.sender == owner,\"this function can only be called by owner\") */\n      tag_79\n      jumpi\n      mload(0x40)\n      0x08c379a000000000000000000000000000000000000000000000000000000000\n      dup2\n      mstore\n      0x04\n      add\n      tag_80\n      swap1\n      tag_81\n      jump\t// in\n    tag_80:\n      mload(0x40)\n      dup1\n      swap2\n      sub\n      swap1\n      revert\n    tag_79:\n        /* \"test/fundMe.sol\":2387:2395  newOwner */\n      dup1\n        /* \"test/fundMe.sol\":2379:2384  owner */\n      0x03\n      0x00\n        /* \"test/fundMe.sol\":2379:2395  owner = newOwner */\n      0x0100\n      exp\n      dup2\n      sload\n      dup2\n      0xffffffffffffffffffffffffffffffffffffffff\n      mul\n      not\n      and\n      swap1\n      dup4\n      0xffffffffffffffffffffffffffffffffffffffff\n      and\n      mul\n      or\n      swap1\n      sstore\n      pop\n        /* \"test/fundMe.sol\":2232:2403  function transferOwenerShip(address newOwner) public {... */\n      pop\n      jump\t// out\n        /* \"test/fundMe.sol\":1181:1438  function fund() external payable{... */\n    tag_33:\n        /* \"test/fundMe.sol\":1262:1275  MINIMUM_VALUE */\n      sload(0x01)\n        /* \"test/fundMe.sol\":1232:1258  convertEthToUsd(msg.value) */\n      tag_83\n        /* \"test/fundMe.sol\":1248:1257  msg.value */\n      callvalue\n        /* \"test/fundMe.sol\":1232:1247  convertEthToUsd */\n      tag_41\n        /* \"test/fundMe.sol\":1232:1258  convertEthToUsd(msg.value) */\n      jump\t// in\n    tag_83:\n        /* \"test/fundMe.sol\":1232:1275  convertEthToUsd(msg.value) >= MINIMUM_VALUE */\n      lt\n      iszero\n        /* \"test/fundMe.sol\":1224:1293  require(convertEthToUsd(msg.value) >= MINIMUM_VALUE, \"send more ETH\") */\n      tag_84\n      jumpi\n      mload(0x40)\n      0x08c379a000000000000000000000000000000000000000000000000000000000\n      dup2\n      mstore\n      0x04\n      add\n      tag_85\n      swap1\n      tag_86\n      jump\t// in\n    tag_85:\n      mload(0x40)\n      dup1\n      swap2\n      sub\n      swap1\n      revert\n    tag_84:\n        /* \"test/fundMe.sol\":1352:1360  lockTime */\n      sload(0x05)\n        /* \"test/fundMe.sol\":1330:1349  deploymentTimestamp */\n      sload(0x04)\n        /* \"test/fundMe.sol\":1330:1360  deploymentTimestamp + lockTime */\n      tag_87\n      swap2\n      swap1\n      tag_49\n      jump\t// in\n    tag_87:\n        /* \"test/fundMe.sol\":1312:1327  block.timestamp */\n      timestamp\n        /* \"test/fundMe.sol\":1312:1360  block.timestamp < deploymentTimestamp + lockTime */\n      lt\n        /* \"test/fundMe.sol\":1304:1380  require(block.timestamp < deploymentTimestamp + lockTime,\"window si closed\") */\n      tag_88\n      jumpi\n      mload(0x40)\n      0x08c379a000000000000000000000000000000000000000000000000000000000\n      dup2\n      mstore\n      0x04\n      add\n      tag_89\n      swap1\n      tag_90\n      jump\t// in\n    tag_89:\n      mload(0x40)\n      dup1\n      swap2\n      sub\n      swap1\n      revert\n    tag_88:\n        /* \"test/fundMe.sol\":1421:1430  msg.value */\n      callvalue\n        /* \"test/fundMe.sol\":1391:1406  fundersToAmount */\n      0x00\n        /* \"test/fundMe.sol\":1391:1418  fundersToAmount[msg.sender] */\n      dup1\n        /* \"test/fundMe.sol\":1407:1417  msg.sender */\n      caller\n        /* \"test/fundMe.sol\":1391:1418  fundersToAmount[msg.sender] */\n      0xffffffffffffffffffffffffffffffffffffffff\n      and\n      0xffffffffffffffffffffffffffffffffffffffff\n      and\n      dup2\n      mstore\n      0x20\n      add\n      swap1\n      dup2\n      mstore\n      0x20\n      add\n      0x00\n      keccak256\n        /* \"test/fundMe.sol\":1391:1430  fundersToAmount[msg.sender] = msg.value */\n      dup2\n      swap1\n      sstore\n      pop\n        /* \"test/fundMe.sol\":1181:1438  function fund() external payable{... */\n      jump\t// out\n        /* \"test/fundMe.sol\":1520:1868  function getChainlinkDataFeedLatestAnswer() public view returns (int) {... */\n    tag_36:\n        /* \"test/fundMe.sol\":1585:1588  int */\n      0x00\n        /* \"test/fundMe.sol\":1679:1689  int answer */\n      dup1\n        /* \"test/fundMe.sol\":1810:1818  dataFeed */\n      0x02\n      0x00\n      swap1\n      sload\n      swap1\n      0x0100\n      exp\n      swap1\n      div\n      0xffffffffffffffffffffffffffffffffffffffff\n      and\n        /* \"test/fundMe.sol\":1810:1834  dataFeed.latestRoundData */\n      0xffffffffffffffffffffffffffffffffffffffff\n      and\n      0xfeaf968c\n        /* \"test/fundMe.sol\":1810:1836  dataFeed.latestRoundData() */\n      mload(0x40)\n      dup2\n      0xffffffff\n      and\n      0xe0\n      shl\n      dup2\n      mstore\n      0x04\n      add\n      0xa0\n      mload(0x40)\n      dup1\n      dup4\n      sub\n      dup2\n      dup7\n      gas\n      staticcall\n      iszero\n      dup1\n      iszero\n      tag_93\n      jumpi\n      returndatasize\n      0x00\n      dup1\n      returndatacopy\n      revert(0x00, returndatasize)\n    tag_93:\n      pop\n      pop\n      pop\n      pop\n      mload(0x40)\n      returndatasize\n      not(0x1f)\n      0x1f\n      dup3\n      add\n      and\n      dup3\n      add\n      dup1\n      0x40\n      mstore\n      pop\n      dup2\n      add\n      swap1\n      tag_94\n      swap2\n      swap1\n      tag_95\n      jump\t// in\n    tag_94:\n        /* \"test/fundMe.sol\":1629:1836  (... */\n      pop\n      pop\n      pop\n      swap2\n      pop\n      pop\n        /* \"test/fundMe.sol\":1854:1860  answer */\n      dup1\n        /* \"test/fundMe.sol\":1847:1860  return answer */\n      swap2\n      pop\n      pop\n        /* \"test/fundMe.sol\":1520:1868  function getChainlinkDataFeedLatestAnswer() public view returns (int) {... */\n      swap1\n      jump\t// out\n        /* \"test/fundMe.sol\":1898:2196  function convertEthToUsd(uint256 ethAmount) internal view returns (uint256){... */\n    tag_41:\n        /* \"test/fundMe.sol\":1965:1972  uint256 */\n      0x00\n        /* \"test/fundMe.sol\":2080:2096  uint256 ethPrice */\n      dup1\n        /* \"test/fundMe.sol\":2107:2141  getChainlinkDataFeedLatestAnswer() */\n      tag_97\n        /* \"test/fundMe.sol\":2107:2139  getChainlinkDataFeedLatestAnswer */\n      tag_36\n        /* \"test/fundMe.sol\":2107:2141  getChainlinkDataFeedLatestAnswer() */\n      jump\t// in\n    tag_97:\n        /* \"test/fundMe.sol\":2080:2142  uint256 ethPrice = uint256(getChainlinkDataFeedLatestAnswer()) */\n      swap1\n      pop\n        /* \"test/fundMe.sol\":2182:2187  10**8 */\n      0x05f5e100\n        /* \"test/fundMe.sol\":2172:2180  ethPrice */\n      dup2\n        /* \"test/fundMe.sol\":2160:2169  ethAmount */\n      dup5\n        /* \"test/fundMe.sol\":2160:2180  ethAmount * ethPrice */\n      tag_98\n      swap2\n      swap1\n      tag_99\n      jump\t// in\n    tag_98:\n        /* \"test/fundMe.sol\":2160:2188  ethAmount * ethPrice/(10**8) */\n      tag_100\n      swap2\n      swap1\n      tag_101\n      jump\t// in\n    tag_100:\n        /* \"test/fundMe.sol\":2153:2188  return ethAmount * ethPrice/(10**8) */\n      swap2\n      pop\n      pop\n        /* \"test/fundMe.sol\":1898:2196  function convertEthToUsd(uint256 ethAmount) internal view returns (uint256){... */\n      swap2\n      swap1\n      pop\n      jump\t// out\n        /* \"#utility.yul\":7:133   */\n    tag_102:\n        /* \"#utility.yul\":44:51   */\n      0x00\n        /* \"#utility.yul\":84:126   */\n      0xffffffffffffffffffffffffffffffffffffffff\n        /* \"#utility.yul\":77:82   */\n      dup3\n        /* \"#utility.yul\":73:127   */\n      and\n        /* \"#utility.yul\":62:127   */\n      swap1\n      pop\n        /* \"#utility.yul\":7:133   */\n      swap2\n      swap1\n      pop\n      jump\t// out\n        /* \"#utility.yul\":139:235   */\n    tag_103:\n        /* \"#utility.yul\":176:183   */\n      0x00\n        /* \"#utility.yul\":205:229   */\n      tag_148\n        /* \"#utility.yul\":223:228   */\n      dup3\n        /* \"#utility.yul\":205:229   */\n      tag_102\n      jump\t// in\n    tag_148:\n        /* \"#utility.yul\":194:229   */\n      swap1\n      pop\n        /* \"#utility.yul\":139:235   */\n      swap2\n      swap1\n      pop\n      jump\t// out\n        /* \"#utility.yul\":241:359   */\n    tag_104:\n        /* \"#utility.yul\":328:352   */\n      tag_150\n        /* \"#utility.yul\":346:351   */\n      dup2\n        /* \"#utility.yul\":328:352   */\n      tag_103\n      jump\t// in\n    tag_150:\n        /* \"#utility.yul\":323:326   */\n      dup3\n        /* \"#utility.yul\":316:353   */\n      mstore\n        /* \"#utility.yul\":241:359   */\n      pop\n      pop\n      jump\t// out\n        /* \"#utility.yul\":365:587   */\n    tag_17:\n        /* \"#utility.yul\":458:462   */\n      0x00\n        /* \"#utility.yul\":496:498   */\n      0x20\n        /* \"#utility.yul\":485:494   */\n      dup3\n        /* \"#utility.yul\":481:499   */\n      add\n        /* \"#utility.yul\":473:499   */\n      swap1\n      pop\n        /* \"#utility.yul\":509:580   */\n      tag_152\n        /* \"#utility.yul\":577:578   */\n      0x00\n        /* \"#utility.yul\":566:575   */\n      dup4\n        /* \"#utility.yul\":562:579   */\n      add\n        /* \"#utility.yul\":553:559   */\n      dup5\n        /* \"#utility.yul\":509:580   */\n      tag_104\n      jump\t// in\n    tag_152:\n        /* \"#utility.yul\":365:587   */\n      swap3\n      swap2\n      pop\n      pop\n      jump\t// out\n        /* \"#utility.yul\":674:791   */\n    tag_106:\n        /* \"#utility.yul\":783:784   */\n      0x00\n        /* \"#utility.yul\":780:781   */\n      dup1\n        /* \"#utility.yul\":773:785   */\n      revert\n        /* \"#utility.yul\":920:1042   */\n    tag_108:\n        /* \"#utility.yul\":993:1017   */\n      tag_157\n        /* \"#utility.yul\":1011:1016   */\n      dup2\n        /* \"#utility.yul\":993:1017   */\n      tag_103\n      jump\t// in\n    tag_157:\n        /* \"#utility.yul\":986:991   */\n      dup2\n        /* \"#utility.yul\":983:1018   */\n      eq\n        /* \"#utility.yul\":973:1036   */\n      tag_158\n      jumpi\n        /* \"#utility.yul\":1032:1033   */\n      0x00\n        /* \"#utility.yul\":1029:1030   */\n      dup1\n        /* \"#utility.yul\":1022:1034   */\n      revert\n        /* \"#utility.yul\":973:1036   */\n    tag_158:\n        /* \"#utility.yul\":920:1042   */\n      pop\n      jump\t// out\n        /* \"#utility.yul\":1048:1187   */\n    tag_109:\n        /* \"#utility.yul\":1094:1099   */\n      0x00\n        /* \"#utility.yul\":1132:1138   */\n      dup2\n        /* \"#utility.yul\":1119:1139   */\n      calldataload\n        /* \"#utility.yul\":1110:1139   */\n      swap1\n      pop\n        /* \"#utility.yul\":1148:1181   */\n      tag_160\n        /* \"#utility.yul\":1175:1180   */\n      dup2\n        /* \"#utility.yul\":1148:1181   */\n      tag_108\n      jump\t// in\n    tag_160:\n        /* \"#utility.yul\":1048:1187   */\n      swap3\n      swap2\n      pop\n      pop\n      jump\t// out\n        /* \"#utility.yul\":1193:1522   */\n    tag_24:\n        /* \"#utility.yul\":1252:1258   */\n      0x00\n        /* \"#utility.yul\":1301:1303   */\n      0x20\n        /* \"#utility.yul\":1289:1298   */\n      dup3\n        /* \"#utility.yul\":1280:1287   */\n      dup5\n        /* \"#utility.yul\":1276:1299   */\n      sub\n        /* \"#utility.yul\":1272:1304   */\n      slt\n        /* \"#utility.yul\":1269:1388   */\n      iszero\n      tag_162\n      jumpi\n        /* \"#utility.yul\":1307:1386   */\n      tag_163\n      tag_106\n      jump\t// in\n    tag_163:\n        /* \"#utility.yul\":1269:1388   */\n    tag_162:\n        /* \"#utility.yul\":1427:1428   */\n      0x00\n        /* \"#utility.yul\":1452:1505   */\n      tag_164\n        /* \"#utility.yul\":1497:1504   */\n      dup5\n        /* \"#utility.yul\":1488:1494   */\n      dup3\n        /* \"#utility.yul\":1477:1486   */\n      dup6\n        /* \"#utility.yul\":1473:1495   */\n      add\n        /* \"#utility.yul\":1452:1505   */\n      tag_109\n      jump\t// in\n    tag_164:\n        /* \"#utility.yul\":1442:1505   */\n      swap2\n      pop\n        /* \"#utility.yul\":1398:1515   */\n      pop\n        /* \"#utility.yul\":1193:1522   */\n      swap3\n      swap2\n      pop\n      pop\n      jump\t// out\n        /* \"#utility.yul\":1528:1605   */\n    tag_110:\n        /* \"#utility.yul\":1565:1572   */\n      0x00\n        /* \"#utility.yul\":1594:1599   */\n      dup2\n        /* \"#utility.yul\":1583:1599   */\n      swap1\n      pop\n        /* \"#utility.yul\":1528:1605   */\n      swap2\n      swap1\n      pop\n      jump\t// out\n        /* \"#utility.yul\":1611:1729   */\n    tag_111:\n        /* \"#utility.yul\":1698:1722   */\n      tag_167\n        /* \"#utility.yul\":1716:1721   */\n      dup2\n        /* \"#utility.yul\":1698:1722   */\n      tag_110\n      jump\t// in\n    tag_167:\n        /* \"#utility.yul\":1693:1696   */\n      dup3\n        /* \"#utility.yul\":1686:1723   */\n      mstore\n        /* \"#utility.yul\":1611:1729   */\n      pop\n      pop\n      jump\t// out\n        /* \"#utility.yul\":1735:1957   */\n    tag_27:\n        /* \"#utility.yul\":1828:1832   */\n      0x00\n        /* \"#utility.yul\":1866:1868   */\n      0x20\n        /* \"#utility.yul\":1855:1864   */\n      dup3\n        /* \"#utility.yul\":1851:1869   */\n      add\n        /* \"#utility.yul\":1843:1869   */\n      swap1\n      pop\n        /* \"#utility.yul\":1879:1950   */\n      tag_169\n        /* \"#utility.yul\":1947:1948   */\n      0x00\n        /* \"#utility.yul\":1936:1945   */\n      dup4\n        /* \"#utility.yul\":1932:1949   */\n      add\n        /* \"#utility.yul\":1923:1929   */\n      dup5\n        /* \"#utility.yul\":1879:1950   */\n      tag_111\n      jump\t// in\n    tag_169:\n        /* \"#utility.yul\":1735:1957   */\n      swap3\n      swap2\n      pop\n      pop\n      jump\t// out\n        /* \"#utility.yul\":1963:2039   */\n    tag_112:\n        /* \"#utility.yul\":1999:2006   */\n      0x00\n        /* \"#utility.yul\":2028:2033   */\n      dup2\n        /* \"#utility.yul\":2017:2033   */\n      swap1\n      pop\n        /* \"#utility.yul\":1963:2039   */\n      swap2\n      swap1\n      pop\n      jump\t// out\n        /* \"#utility.yul\":2045:2160   */\n    tag_113:\n        /* \"#utility.yul\":2130:2153   */\n      tag_172\n        /* \"#utility.yul\":2147:2152   */\n      dup2\n        /* \"#utility.yul\":2130:2153   */\n      tag_112\n      jump\t// in\n    tag_172:\n        /* \"#utility.yul\":2125:2128   */\n      dup3\n        /* \"#utility.yul\":2118:2154   */\n      mstore\n        /* \"#utility.yul\":2045:2160   */\n      pop\n      pop\n      jump\t// out\n        /* \"#utility.yul\":2166:2384   */\n    tag_38:\n        /* \"#utility.yul\":2257:2261   */\n      0x00\n        /* \"#utility.yul\":2295:2297   */\n      0x20\n        /* \"#utility.yul\":2284:2293   */\n      dup3\n        /* \"#utility.yul\":2280:2298   */\n      add\n        /* \"#utility.yul\":2272:2298   */\n      swap1\n      pop\n        /* \"#utility.yul\":2308:2377   */\n      tag_174\n        /* \"#utility.yul\":2374:2375   */\n      0x00\n        /* \"#utility.yul\":2363:2372   */\n      dup4\n        /* \"#utility.yul\":2359:2376   */\n      add\n        /* \"#utility.yul\":2350:2356   */\n      dup5\n        /* \"#utility.yul\":2308:2377   */\n      tag_113\n      jump\t// in\n    tag_174:\n        /* \"#utility.yul\":2166:2384   */\n      swap3\n      swap2\n      pop\n      pop\n      jump\t// out\n        /* \"#utility.yul\":2390:2559   */\n    tag_114:\n        /* \"#utility.yul\":2474:2485   */\n      0x00\n        /* \"#utility.yul\":2508:2514   */\n      dup3\n        /* \"#utility.yul\":2503:2506   */\n      dup3\n        /* \"#utility.yul\":2496:2515   */\n      mstore\n        /* \"#utility.yul\":2548:2552   */\n      0x20\n        /* \"#utility.yul\":2543:2546   */\n      dup3\n        /* \"#utility.yul\":2539:2553   */\n      add\n        /* \"#utility.yul\":2524:2553   */\n      swap1\n      pop\n        /* \"#utility.yul\":2390:2559   */\n      swap3\n      swap2\n      pop\n      pop\n      jump\t// out\n        /* \"#utility.yul\":2565:2732   */\n    tag_115:\n        /* \"#utility.yul\":2705:2724   */\n      0x7461726765742069732072656163686564000000000000000000000000000000\n        /* \"#utility.yul\":2701:2702   */\n      0x00\n        /* \"#utility.yul\":2693:2699   */\n      dup3\n        /* \"#utility.yul\":2689:2703   */\n      add\n        /* \"#utility.yul\":2682:2725   */\n      mstore\n        /* \"#utility.yul\":2565:2732   */\n      pop\n      jump\t// out\n        /* \"#utility.yul\":2738:3104   */\n    tag_116:\n        /* \"#utility.yul\":2880:2883   */\n      0x00\n        /* \"#utility.yul\":2901:2968   */\n      tag_178\n        /* \"#utility.yul\":2965:2967   */\n      0x11\n        /* \"#utility.yul\":2960:2963   */\n      dup4\n        /* \"#utility.yul\":2901:2968   */\n      tag_114\n      jump\t// in\n    tag_178:\n        /* \"#utility.yul\":2894:2968   */\n      swap2\n      pop\n        /* \"#utility.yul\":2977:3070   */\n      tag_179\n        /* \"#utility.yul\":3066:3069   */\n      dup3\n        /* \"#utility.yul\":2977:3070   */\n      tag_115\n      jump\t// in\n    tag_179:\n        /* \"#utility.yul\":3095:3097   */\n      0x20\n        /* \"#utility.yul\":3090:3093   */\n      dup3\n        /* \"#utility.yul\":3086:3098   */\n      add\n        /* \"#utility.yul\":3079:3098   */\n      swap1\n      pop\n        /* \"#utility.yul\":2738:3104   */\n      swap2\n      swap1\n      pop\n      jump\t// out\n        /* \"#utility.yul\":3110:3529   */\n    tag_44:\n        /* \"#utility.yul\":3276:3280   */\n      0x00\n        /* \"#utility.yul\":3314:3316   */\n      0x20\n        /* \"#utility.yul\":3303:3312   */\n      dup3\n        /* \"#utility.yul\":3299:3317   */\n      add\n        /* \"#utility.yul\":3291:3317   */\n      swap1\n      pop\n        /* \"#utility.yul\":3363:3372   */\n      dup2\n        /* \"#utility.yul\":3357:3361   */\n      dup2\n        /* \"#utility.yul\":3353:3373   */\n      sub\n        /* \"#utility.yul\":3349:3350   */\n      0x00\n        /* \"#utility.yul\":3338:3347   */\n      dup4\n        /* \"#utility.yul\":3334:3351   */\n      add\n        /* \"#utility.yul\":3327:3374   */\n      mstore\n        /* \"#utility.yul\":3391:3522   */\n      tag_181\n        /* \"#utility.yul\":3517:3521   */\n      dup2\n        /* \"#utility.yul\":3391:3522   */\n      tag_116\n      jump\t// in\n    tag_181:\n        /* \"#utility.yul\":3383:3522   */\n      swap1\n      pop\n        /* \"#utility.yul\":3110:3529   */\n      swap2\n      swap1\n      pop\n      jump\t// out\n        /* \"#utility.yul\":3535:3708   */\n    tag_117:\n        /* \"#utility.yul\":3675:3700   */\n      0x74686572206973206e6f2066756e6420666f7220796f75000000000000000000\n        /* \"#utility.yul\":3671:3672   */\n      0x00\n        /* \"#utility.yul\":3663:3669   */\n      dup3\n        /* \"#utility.yul\":3659:3673   */\n      add\n        /* \"#utility.yul\":3652:3701   */\n      mstore\n        /* \"#utility.yul\":3535:3708   */\n      pop\n      jump\t// out\n        /* \"#utility.yul\":3714:4080   */\n    tag_118:\n        /* \"#utility.yul\":3856:3859   */\n      0x00\n        /* \"#utility.yul\":3877:3944   */\n      tag_184\n        /* \"#utility.yul\":3941:3943   */\n      0x17\n        /* \"#utility.yul\":3936:3939   */\n      dup4\n        /* \"#utility.yul\":3877:3944   */\n      tag_114\n      jump\t// in\n    tag_184:\n        /* \"#utility.yul\":3870:3944   */\n      swap2\n      pop\n        /* \"#utility.yul\":3953:4046   */\n      tag_185\n        /* \"#utility.yul\":4042:4045   */\n      dup3\n        /* \"#utility.yul\":3953:4046   */\n      tag_117\n      jump\t// in\n    tag_185:\n        /* \"#utility.yul\":4071:4073   */\n      0x20\n        /* \"#utility.yul\":4066:4069   */\n      dup3\n        /* \"#utility.yul\":4062:4074   */\n      add\n        /* \"#utility.yul\":4055:4074   */\n      swap1\n      pop\n        /* \"#utility.yul\":3714:4080   */\n      swap2\n      swap1\n      pop\n      jump\t// out\n        /* \"#utility.yul\":4086:4505   */\n    tag_47:\n        /* \"#utility.yul\":4252:4256   */\n      0x00\n        /* \"#utility.yul\":4290:4292   */\n      0x20\n        /* \"#utility.yul\":4279:4288   */\n      dup3\n        /* \"#utility.yul\":4275:4293   */\n      add\n        /* \"#utility.yul\":4267:4293   */\n      swap1\n      pop\n        /* \"#utility.yul\":4339:4348   */\n      dup2\n        /* \"#utility.yul\":4333:4337   */\n      dup2\n        /* \"#utility.yul\":4329:4349   */\n      sub\n        /* \"#utility.yul\":4325:4326   */\n      0x00\n        /* \"#utility.yul\":4314:4323   */\n      dup4\n        /* \"#utility.yul\":4310:4327   */\n      add\n        /* \"#utility.yul\":4303:4350   */\n      mstore\n        /* \"#utility.yul\":4367:4498   */\n      tag_187\n        /* \"#utility.yul\":4493:4497   */\n      dup2\n        /* \"#utility.yul\":4367:4498   */\n      tag_118\n      jump\t// in\n    tag_187:\n        /* \"#utility.yul\":4359:4498   */\n      swap1\n      pop\n        /* \"#utility.yul\":4086:4505   */\n      swap2\n      swap1\n      pop\n      jump\t// out\n        /* \"#utility.yul\":4511:4691   */\n    tag_119:\n        /* \"#utility.yul\":4559:4636   */\n      0x4e487b7100000000000000000000000000000000000000000000000000000000\n        /* \"#utility.yul\":4556:4557   */\n      0x00\n        /* \"#utility.yul\":4549:4637   */\n      mstore\n        /* \"#utility.yul\":4656:4660   */\n      0x11\n        /* \"#utility.yul\":4653:4654   */\n      0x04\n        /* \"#utility.yul\":4646:4661   */\n      mstore\n        /* \"#utility.yul\":4680:4684   */\n      0x24\n        /* \"#utility.yul\":4677:4678   */\n      0x00\n        /* \"#utility.yul\":4670:4685   */\n      revert\n        /* \"#utility.yul\":4697:4888   */\n    tag_49:\n        /* \"#utility.yul\":4737:4740   */\n      0x00\n        /* \"#utility.yul\":4756:4776   */\n      tag_190\n        /* \"#utility.yul\":4774:4775   */\n      dup3\n        /* \"#utility.yul\":4756:4776   */\n      tag_110\n      jump\t// in\n    tag_190:\n        /* \"#utility.yul\":4751:4776   */\n      swap2\n      pop\n        /* \"#utility.yul\":4790:4810   */\n      tag_191\n        /* \"#utility.yul\":4808:4809   */\n      dup4\n        /* \"#utility.yul\":4790:4810   */\n      tag_110\n      jump\t// in\n    tag_191:\n        /* \"#utility.yul\":4785:4810   */\n      swap3\n      pop\n        /* \"#utility.yul\":4833:4834   */\n      dup3\n        /* \"#utility.yul\":4830:4831   */\n      dup3\n        /* \"#utility.yul\":4826:4835   */\n      add\n        /* \"#utility.yul\":4819:4835   */\n      swap1\n      pop\n        /* \"#utility.yul\":4854:4857   */\n      dup1\n        /* \"#utility.yul\":4851:4852   */\n      dup3\n        /* \"#utility.yul\":4848:4858   */\n      gt\n        /* \"#utility.yul\":4845:4881   */\n      iszero\n      tag_192\n      jumpi\n        /* \"#utility.yul\":4861:4879   */\n      tag_193\n      tag_119\n      jump\t// in\n    tag_193:\n        /* \"#utility.yul\":4845:4881   */\n    tag_192:\n        /* \"#utility.yul\":4697:4888   */\n      swap3\n      swap2\n      pop\n      pop\n      jump\t// out\n        /* \"#utility.yul\":4894:5059   */\n    tag_120:\n        /* \"#utility.yul\":5034:5051   */\n      0x77696e646f7720697320636c6f73650000000000000000000000000000000000\n        /* \"#utility.yul\":5030:5031   */\n      0x00\n        /* \"#utility.yul\":5022:5028   */\n      dup3\n        /* \"#utility.yul\":5018:5032   */\n      add\n        /* \"#utility.yul\":5011:5052   */\n      mstore\n        /* \"#utility.yul\":4894:5059   */\n      pop\n      jump\t// out\n        /* \"#utility.yul\":5065:5431   */\n    tag_121:\n        /* \"#utility.yul\":5207:5210   */\n      0x00\n        /* \"#utility.yul\":5228:5295   */\n      tag_196\n        /* \"#utility.yul\":5292:5294   */\n      0x0f\n        /* \"#utility.yul\":5287:5290   */\n      dup4\n        /* \"#utility.yul\":5228:5295   */\n      tag_114\n      jump\t// in\n    tag_196:\n        /* \"#utility.yul\":5221:5295   */\n      swap2\n      pop\n        /* \"#utility.yul\":5304:5397   */\n      tag_197\n        /* \"#utility.yul\":5393:5396   */\n      dup3\n        /* \"#utility.yul\":5304:5397   */\n      tag_120\n      jump\t// in\n    tag_197:\n        /* \"#utility.yul\":5422:5424   */\n      0x20\n        /* \"#utility.yul\":5417:5420   */\n      dup3\n        /* \"#utility.yul\":5413:5425   */\n      add\n        /* \"#utility.yul\":5406:5425   */\n      swap1\n      pop\n        /* \"#utility.yul\":5065:5431   */\n      swap2\n      swap1\n      pop\n      jump\t// out\n        /* \"#utility.yul\":5437:5856   */\n    tag_52:\n        /* \"#utility.yul\":5603:5607   */\n      0x00\n        /* \"#utility.yul\":5641:5643   */\n      0x20\n        /* \"#utility.yul\":5630:5639   */\n      dup3\n        /* \"#utility.yul\":5626:5644   */\n      add\n        /* \"#utility.yul\":5618:5644   */\n      swap1\n      pop\n        /* \"#utility.yul\":5690:5699   */\n      dup2\n        /* \"#utility.yul\":5684:5688   */\n      dup2\n        /* \"#utility.yul\":5680:5700   */\n      sub\n        /* \"#utility.yul\":5676:5677   */\n      0x00\n        /* \"#utility.yul\":5665:5674   */\n      dup4\n        /* \"#utility.yul\":5661:5678   */\n      add\n        /* \"#utility.yul\":5654:5701   */\n      mstore\n        /* \"#utility.yul\":5718:5849   */\n      tag_199\n        /* \"#utility.yul\":5844:5848   */\n      dup2\n        /* \"#utility.yul\":5718:5849   */\n      tag_121\n      jump\t// in\n    tag_199:\n        /* \"#utility.yul\":5710:5849   */\n      swap1\n      pop\n        /* \"#utility.yul\":5437:5856   */\n      swap2\n      swap1\n      pop\n      jump\t// out\n        /* \"#utility.yul\":5862:6009   */\n    tag_122:\n        /* \"#utility.yul\":5963:5974   */\n      0x00\n        /* \"#utility.yul\":6000:6003   */\n      dup2\n        /* \"#utility.yul\":5985:6003   */\n      swap1\n      pop\n        /* \"#utility.yul\":5862:6009   */\n      swap3\n      swap2\n      pop\n      pop\n      jump\t// out\n        /* \"#utility.yul\":6015:6129   */\n    tag_123:\n      pop\n      jump\t// out\n        /* \"#utility.yul\":6135:6533   */\n    tag_124:\n        /* \"#utility.yul\":6294:6297   */\n      0x00\n        /* \"#utility.yul\":6315:6398   */\n      tag_203\n        /* \"#utility.yul\":6396:6397   */\n      0x00\n        /* \"#utility.yul\":6391:6394   */\n      dup4\n        /* \"#utility.yul\":6315:6398   */\n      tag_122\n      jump\t// in\n    tag_203:\n        /* \"#utility.yul\":6308:6398   */\n      swap2\n      pop\n        /* \"#utility.yul\":6407:6500   */\n      tag_204\n        /* \"#utility.yul\":6496:6499   */\n      dup3\n        /* \"#utility.yul\":6407:6500   */\n      tag_123\n      jump\t// in\n    tag_204:\n        /* \"#utility.yul\":6525:6526   */\n      0x00\n        /* \"#utility.yul\":6520:6523   */\n      dup3\n        /* \"#utility.yul\":6516:6527   */\n      add\n        /* \"#utility.yul\":6509:6527   */\n      swap1\n      pop\n        /* \"#utility.yul\":6135:6533   */\n      swap2\n      swap1\n      pop\n      jump\t// out\n        /* \"#utility.yul\":6539:6918   */\n    tag_54:\n        /* \"#utility.yul\":6723:6726   */\n      0x00\n        /* \"#utility.yul\":6745:6892   */\n      tag_206\n        /* \"#utility.yul\":6888:6891   */\n      dup3\n        /* \"#utility.yul\":6745:6892   */\n      tag_124\n      jump\t// in\n    tag_206:\n        /* \"#utility.yul\":6738:6892   */\n      swap2\n      pop\n        /* \"#utility.yul\":6909:6912   */\n      dup2\n        /* \"#utility.yul\":6902:6912   */\n      swap1\n      pop\n        /* \"#utility.yul\":6539:6918   */\n      swap2\n      swap1\n      pop\n      jump\t// out\n        /* \"#utility.yul\":6924:7092   */\n    tag_125:\n        /* \"#utility.yul\":7064:7084   */\n      0x7472616e73666572207478206661696c65640000000000000000000000000000\n        /* \"#utility.yul\":7060:7061   */\n      0x00\n        /* \"#utility.yul\":7052:7058   */\n      dup3\n        /* \"#utility.yul\":7048:7062   */\n      add\n        /* \"#utility.yul\":7041:7085   */\n      mstore\n        /* \"#utility.yul\":6924:7092   */\n      pop\n      jump\t// out\n        /* \"#utility.yul\":7098:7464   */\n    tag_126:\n        /* \"#utility.yul\":7240:7243   */\n      0x00\n        /* \"#utility.yul\":7261:7328   */\n      tag_209\n        /* \"#utility.yul\":7325:7327   */\n      0x12\n        /* \"#utility.yul\":7320:7323   */\n      dup4\n        /* \"#utility.yul\":7261:7328   */\n      tag_114\n      jump\t// in\n    tag_209:\n        /* \"#utility.yul\":7254:7328   */\n      swap2\n      pop\n        /* \"#utility.yul\":7337:7430   */\n      tag_210\n        /* \"#utility.yul\":7426:7429   */\n      dup3\n        /* \"#utility.yul\":7337:7430   */\n      tag_125\n      jump\t// in\n    tag_210:\n        /* \"#utility.yul\":7455:7457   */\n      0x20\n        /* \"#utility.yul\":7450:7453   */\n      dup3\n        /* \"#utility.yul\":7446:7458   */\n      add\n        /* \"#utility.yul\":7439:7458   */\n      swap1\n      pop\n        /* \"#utility.yul\":7098:7464   */\n      swap2\n      swap1\n      pop\n      jump\t// out\n        /* \"#utility.yul\":7470:7889   */\n    tag_60:\n        /* \"#utility.yul\":7636:7640   */\n      0x00\n        /* \"#utility.yul\":7674:7676   */\n      0x20\n        /* \"#utility.yul\":7663:7672   */\n      dup3\n        /* \"#utility.yul\":7659:7677   */\n      add\n        /* \"#utility.yul\":7651:7677   */\n      swap1\n      pop\n        /* \"#utility.yul\":7723:7732   */\n      dup2\n        /* \"#utility.yul\":7717:7721   */\n      dup2\n        /* \"#utility.yul\":7713:7733   */\n      sub\n        /* \"#utility.yul\":7709:7710   */\n      0x00\n        /* \"#utility.yul\":7698:7707   */\n      dup4\n        /* \"#utility.yul\":7694:7711   */\n      add\n        /* \"#utility.yul\":7687:7734   */\n      mstore\n        /* \"#utility.yul\":7751:7882   */\n      tag_212\n        /* \"#utility.yul\":7877:7881   */\n      dup2\n        /* \"#utility.yul\":7751:7882   */\n      tag_126\n      jump\t// in\n    tag_212:\n        /* \"#utility.yul\":7743:7882   */\n      swap1\n      pop\n        /* \"#utility.yul\":7470:7889   */\n      swap2\n      swap1\n      pop\n      jump\t// out\n        /* \"#utility.yul\":7895:8066   */\n    tag_127:\n        /* \"#utility.yul\":8035:8058   */\n      0x546172676574206973206e6f7420726561636865640000000000000000000000\n        /* \"#utility.yul\":8031:8032   */\n      0x00\n        /* \"#utility.yul\":8023:8029   */\n      dup3\n        /* \"#utility.yul\":8019:8033   */\n      add\n        /* \"#utility.yul\":8012:8059   */\n      mstore\n        /* \"#utility.yul\":7895:8066   */\n      pop\n      jump\t// out\n        /* \"#utility.yul\":8072:8438   */\n    tag_128:\n        /* \"#utility.yul\":8214:8217   */\n      0x00\n        /* \"#utility.yul\":8235:8302   */\n      tag_215\n        /* \"#utility.yul\":8299:8301   */\n      0x15\n        /* \"#utility.yul\":8294:8297   */\n      dup4\n        /* \"#utility.yul\":8235:8302   */\n      tag_114\n      jump\t// in\n    tag_215:\n        /* \"#utility.yul\":8228:8302   */\n      swap2\n      pop\n        /* \"#utility.yul\":8311:8404   */\n      tag_216\n        /* \"#utility.yul\":8400:8403   */\n      dup3\n        /* \"#utility.yul\":8311:8404   */\n      tag_127\n      jump\t// in\n    tag_216:\n        /* \"#utility.yul\":8429:8431   */\n      0x20\n        /* \"#utility.yul\":8424:8427   */\n      dup3\n        /* \"#utility.yul\":8420:8432   */\n      add\n        /* \"#utility.yul\":8413:8432   */\n      swap1\n      pop\n        /* \"#utility.yul\":8072:8438   */\n      swap2\n      swap1\n      pop\n      jump\t// out\n        /* \"#utility.yul\":8444:8863   */\n    tag_65:\n        /* \"#utility.yul\":8610:8614   */\n      0x00\n        /* \"#utility.yul\":8648:8650   */\n      0x20\n        /* \"#utility.yul\":8637:8646   */\n      dup3\n        /* \"#utility.yul\":8633:8651   */\n      add\n        /* \"#utility.yul\":8625:8651   */\n      swap1\n      pop\n        /* \"#utility.yul\":8697:8706   */\n      dup2\n        /* \"#utility.yul\":8691:8695   */\n      dup2\n        /* \"#utility.yul\":8687:8707   */\n      sub\n        /* \"#utility.yul\":8683:8684   */\n      0x00\n        /* \"#utility.yul\":8672:8681   */\n      dup4\n        /* \"#utility.yul\":8668:8685   */\n      add\n        /* \"#utility.yul\":8661:8708   */\n      mstore\n        /* \"#utility.yul\":8725:8856   */\n      tag_218\n        /* \"#utility.yul\":8851:8855   */\n      dup2\n        /* \"#utility.yul\":8725:8856   */\n      tag_128\n      jump\t// in\n    tag_218:\n        /* \"#utility.yul\":8717:8856   */\n      swap1\n      pop\n        /* \"#utility.yul\":8444:8863   */\n      swap2\n      swap1\n      pop\n      jump\t// out\n        /* \"#utility.yul\":8869:9043   */\n    tag_129:\n        /* \"#utility.yul\":9009:9035   */\n      0x7468657265206973206e6f2066756e6420666f7220796f750000000000000000\n        /* \"#utility.yul\":9005:9006   */\n      0x00\n        /* \"#utility.yul\":8997:9003   */\n      dup3\n        /* \"#utility.yul\":8993:9007   */\n      add\n        /* \"#utility.yul\":8986:9036   */\n      mstore\n        /* \"#utility.yul\":8869:9043   */\n      pop\n      jump\t// out\n        /* \"#utility.yul\":9049:9415   */\n    tag_130:\n        /* \"#utility.yul\":9191:9194   */\n      0x00\n        /* \"#utility.yul\":9212:9279   */\n      tag_221\n        /* \"#utility.yul\":9276:9278   */\n      0x18\n        /* \"#utility.yul\":9271:9274   */\n      dup4\n        /* \"#utility.yul\":9212:9279   */\n      tag_114\n      jump\t// in\n    tag_221:\n        /* \"#utility.yul\":9205:9279   */\n      swap2\n      pop\n        /* \"#utility.yul\":9288:9381   */\n      tag_222\n        /* \"#utility.yul\":9377:9380   */\n      dup3\n        /* \"#utility.yul\":9288:9381   */\n      tag_129\n      jump\t// in\n    tag_222:\n        /* \"#utility.yul\":9406:9408   */\n      0x20\n        /* \"#utility.yul\":9401:9404   */\n      dup3\n        /* \"#utility.yul\":9397:9409   */\n      add\n        /* \"#utility.yul\":9390:9409   */\n      swap1\n      pop\n        /* \"#utility.yul\":9049:9415   */\n      swap2\n      swap1\n      pop\n      jump\t// out\n        /* \"#utility.yul\":9421:9840   */\n    tag_68:\n        /* \"#utility.yul\":9587:9591   */\n      0x00\n        /* \"#utility.yul\":9625:9627   */\n      0x20\n        /* \"#utility.yul\":9614:9623   */\n      dup3\n        /* \"#utility.yul\":9610:9628   */\n      add\n        /* \"#utility.yul\":9602:9628   */\n      swap1\n      pop\n        /* \"#utility.yul\":9674:9683   */\n      dup2\n        /* \"#utility.yul\":9668:9672   */\n      dup2\n        /* \"#utility.yul\":9664:9684   */\n      sub\n        /* \"#utility.yul\":9660:9661   */\n      0x00\n        /* \"#utility.yul\":9649:9658   */\n      dup4\n        /* \"#utility.yul\":9645:9662   */\n      add\n        /* \"#utility.yul\":9638:9685   */\n      mstore\n        /* \"#utility.yul\":9702:9833   */\n      tag_224\n        /* \"#utility.yul\":9828:9832   */\n      dup2\n        /* \"#utility.yul\":9702:9833   */\n      tag_130\n      jump\t// in\n    tag_224:\n        /* \"#utility.yul\":9694:9833   */\n      swap1\n      pop\n        /* \"#utility.yul\":9421:9840   */\n      swap2\n      swap1\n      pop\n      jump\t// out\n        /* \"#utility.yul\":9846:10074   */\n    tag_131:\n        /* \"#utility.yul\":9986:10020   */\n      0x746869732066756e6374696f6e2063616e206f6e6c792062652063616c6c6564\n        /* \"#utility.yul\":9982:9983   */\n      0x00\n        /* \"#utility.yul\":9974:9980   */\n      dup3\n        /* \"#utility.yul\":9970:9984   */\n      add\n        /* \"#utility.yul\":9963:10021   */\n      mstore\n        /* \"#utility.yul\":10055:10066   */\n      0x206279206f776e65720000000000000000000000000000000000000000000000\n        /* \"#utility.yul\":10050:10052   */\n      0x20\n        /* \"#utility.yul\":10042:10048   */\n      dup3\n        /* \"#utility.yul\":10038:10053   */\n      add\n        /* \"#utility.yul\":10031:10067   */\n      mstore\n        /* \"#utility.yul\":9846:10074   */\n      pop\n      jump\t// out\n        /* \"#utility.yul\":10080:10446   */\n    tag_132:\n        /* \"#utility.yul\":10222:10225   */\n      0x00\n        /* \"#utility.yul\":10243:10310   */\n      tag_227\n        /* \"#utility.yul\":10307:10309   */\n      0x29\n        /* \"#utility.yul\":10302:10305   */\n      dup4\n        /* \"#utility.yul\":10243:10310   */\n      tag_114\n      jump\t// in\n    tag_227:\n        /* \"#utility.yul\":10236:10310   */\n      swap2\n      pop\n        /* \"#utility.yul\":10319:10412   */\n      tag_228\n        /* \"#utility.yul\":10408:10411   */\n      dup3\n        /* \"#utility.yul\":10319:10412   */\n      tag_131\n      jump\t// in\n    tag_228:\n        /* \"#utility.yul\":10437:10439   */\n      0x40\n        /* \"#utility.yul\":10432:10435   */\n      dup3\n        /* \"#utility.yul\":10428:10440   */\n      add\n        /* \"#utility.yul\":10421:10440   */\n      swap1\n      pop\n        /* \"#utility.yul\":10080:10446   */\n      swap2\n      swap1\n      pop\n      jump\t// out\n        /* \"#utility.yul\":10452:10871   */\n    tag_81:\n        /* \"#utility.yul\":10618:10622   */\n      0x00\n        /* \"#utility.yul\":10656:10658   */\n      0x20\n        /* \"#utility.yul\":10645:10654   */\n      dup3\n        /* \"#utility.yul\":10641:10659   */\n      add\n        /* \"#utility.yul\":10633:10659   */\n      swap1\n      pop\n        /* \"#utility.yul\":10705:10714   */\n      dup2\n        /* \"#utility.yul\":10699:10703   */\n      dup2\n        /* \"#utility.yul\":10695:10715   */\n      sub\n        /* \"#utility.yul\":10691:10692   */\n      0x00\n        /* \"#utility.yul\":10680:10689   */\n      dup4\n        /* \"#utility.yul\":10676:10693   */\n      add\n        /* \"#utility.yul\":10669:10716   */\n      mstore\n        /* \"#utility.yul\":10733:10864   */\n      tag_230\n        /* \"#utility.yul\":10859:10863   */\n      dup2\n        /* \"#utility.yul\":10733:10864   */\n      tag_132\n      jump\t// in\n    tag_230:\n        /* \"#utility.yul\":10725:10864   */\n      swap1\n      pop\n        /* \"#utility.yul\":10452:10871   */\n      swap2\n      swap1\n      pop\n      jump\t// out\n        /* \"#utility.yul\":10877:11040   */\n    tag_133:\n        /* \"#utility.yul\":11017:11032   */\n      0x73656e64206d6f72652045544800000000000000000000000000000000000000\n        /* \"#utility.yul\":11013:11014   */\n      0x00\n        /* \"#utility.yul\":11005:11011   */\n      dup3\n        /* \"#utility.yul\":11001:11015   */\n      add\n        /* \"#utility.yul\":10994:11033   */\n      mstore\n        /* \"#utility.yul\":10877:11040   */\n      pop\n      jump\t// out\n        /* \"#utility.yul\":11046:11412   */\n    tag_134:\n        /* \"#utility.yul\":11188:11191   */\n      0x00\n        /* \"#utility.yul\":11209:11276   */\n      tag_233\n        /* \"#utility.yul\":11273:11275   */\n      0x0d\n        /* \"#utility.yul\":11268:11271   */\n      dup4\n        /* \"#utility.yul\":11209:11276   */\n      tag_114\n      jump\t// in\n    tag_233:\n        /* \"#utility.yul\":11202:11276   */\n      swap2\n      pop\n        /* \"#utility.yul\":11285:11378   */\n      tag_234\n        /* \"#utility.yul\":11374:11377   */\n      dup3\n        /* \"#utility.yul\":11285:11378   */\n      tag_133\n      jump\t// in\n    tag_234:\n        /* \"#utility.yul\":11403:11405   */\n      0x20\n        /* \"#utility.yul\":11398:11401   */\n      dup3\n        /* \"#utility.yul\":11394:11406   */\n      add\n        /* \"#utility.yul\":11387:11406   */\n      swap1\n      pop\n        /* \"#utility.yul\":11046:11412   */\n      swap2\n      swap1\n      pop\n      jump\t// out\n        /* \"#utility.yul\":11418:11837   */\n    tag_86:\n        /* \"#utility.yul\":11584:11588   */\n      0x00\n        /* \"#utility.yul\":11622:11624   */\n      0x20\n        /* \"#utility.yul\":11611:11620   */\n      dup3\n        /* \"#utility.yul\":11607:11625   */\n      add\n        /* \"#utility.yul\":11599:11625   */\n      swap1\n      pop\n        /* \"#utility.yul\":11671:11680   */\n      dup2\n        /* \"#utility.yul\":11665:11669   */\n      dup2\n        /* \"#utility.yul\":11661:11681   */\n      sub\n        /* \"#utility.yul\":11657:11658   */\n      0x00\n        /* \"#utility.yul\":11646:11655   */\n      dup4\n        /* \"#utility.yul\":11642:11659   */\n      add\n        /* \"#utility.yul\":11635:11682   */\n      mstore\n        /* \"#utility.yul\":11699:11830   */\n      tag_236\n        /* \"#utility.yul\":11825:11829   */\n      dup2\n        /* \"#utility.yul\":11699:11830   */\n      tag_134\n      jump\t// in\n    tag_236:\n        /* \"#utility.yul\":11691:11830   */\n      swap1\n      pop\n        /* \"#utility.yul\":11418:11837   */\n      swap2\n      swap1\n      pop\n      jump\t// out\n        /* \"#utility.yul\":11843:12009   */\n    tag_135:\n        /* \"#utility.yul\":11983:12001   */\n      0x77696e646f7720736920636c6f73656400000000000000000000000000000000\n        /* \"#utility.yul\":11979:11980   */\n      0x00\n        /* \"#utility.yul\":11971:11977   */\n      dup3\n        /* \"#utility.yul\":11967:11981   */\n      add\n        /* \"#utility.yul\":11960:12002   */\n      mstore\n        /* \"#utility.yul\":11843:12009   */\n      pop\n      jump\t// out\n        /* \"#utility.yul\":12015:12381   */\n    tag_136:\n        /* \"#utility.yul\":12157:12160   */\n      0x00\n        /* \"#utility.yul\":12178:12245   */\n      tag_239\n        /* \"#utility.yul\":12242:12244   */\n      0x10\n        /* \"#utility.yul\":12237:12240   */\n      dup4\n        /* \"#utility.yul\":12178:12245   */\n      tag_114\n      jump\t// in\n    tag_239:\n        /* \"#utility.yul\":12171:12245   */\n      swap2\n      pop\n        /* \"#utility.yul\":12254:12347   */\n      tag_240\n        /* \"#utility.yul\":12343:12346   */\n      dup3\n        /* \"#utility.yul\":12254:12347   */\n      tag_135\n      jump\t// in\n    tag_240:\n        /* \"#utility.yul\":12372:12374   */\n      0x20\n        /* \"#utility.yul\":12367:12370   */\n      dup3\n        /* \"#utility.yul\":12363:12375   */\n      add\n        /* \"#utility.yul\":12356:12375   */\n      swap1\n      pop\n        /* \"#utility.yul\":12015:12381   */\n      swap2\n      swap1\n      pop\n      jump\t// out\n        /* \"#utility.yul\":12387:12806   */\n    tag_90:\n        /* \"#utility.yul\":12553:12557   */\n      0x00\n        /* \"#utility.yul\":12591:12593   */\n      0x20\n        /* \"#utility.yul\":12580:12589   */\n      dup3\n        /* \"#utility.yul\":12576:12594   */\n      add\n        /* \"#utility.yul\":12568:12594   */\n      swap1\n      pop\n        /* \"#utility.yul\":12640:12649   */\n      dup2\n        /* \"#utility.yul\":12634:12638   */\n      dup2\n        /* \"#utility.yul\":12630:12650   */\n      sub\n        /* \"#utility.yul\":12626:12627   */\n      0x00\n        /* \"#utility.yul\":12615:12624   */\n      dup4\n        /* \"#utility.yul\":12611:12628   */\n      add\n        /* \"#utility.yul\":12604:12651   */\n      mstore\n        /* \"#utility.yul\":12668:12799   */\n      tag_242\n        /* \"#utility.yul\":12794:12798   */\n      dup2\n        /* \"#utility.yul\":12668:12799   */\n      tag_136\n      jump\t// in\n    tag_242:\n        /* \"#utility.yul\":12660:12799   */\n      swap1\n      pop\n        /* \"#utility.yul\":12387:12806   */\n      swap2\n      swap1\n      pop\n      jump\t// out\n        /* \"#utility.yul\":12812:12917   */\n    tag_137:\n        /* \"#utility.yul\":12848:12855   */\n      0x00\n        /* \"#utility.yul\":12888:12910   */\n      0xffffffffffffffffffff\n        /* \"#utility.yul\":12881:12886   */\n      dup3\n        /* \"#utility.yul\":12877:12911   */\n      and\n        /* \"#utility.yul\":12866:12911   */\n      swap1\n      pop\n        /* \"#utility.yul\":12812:12917   */\n      swap2\n      swap1\n      pop\n      jump\t// out\n        /* \"#utility.yul\":12923:13043   */\n    tag_138:\n        /* \"#utility.yul\":12995:13018   */\n      tag_245\n        /* \"#utility.yul\":13012:13017   */\n      dup2\n        /* \"#utility.yul\":12995:13018   */\n      tag_137\n      jump\t// in\n    tag_245:\n        /* \"#utility.yul\":12988:12993   */\n      dup2\n        /* \"#utility.yul\":12985:13019   */\n      eq\n        /* \"#utility.yul\":12975:13037   */\n      tag_246\n      jumpi\n        /* \"#utility.yul\":13033:13034   */\n      0x00\n        /* \"#utility.yul\":13030:13031   */\n      dup1\n        /* \"#utility.yul\":13023:13035   */\n      revert\n        /* \"#utility.yul\":12975:13037   */\n    tag_246:\n        /* \"#utility.yul\":12923:13043   */\n      pop\n      jump\t// out\n        /* \"#utility.yul\":13049:13190   */\n    tag_139:\n        /* \"#utility.yul\":13105:13110   */\n      0x00\n        /* \"#utility.yul\":13136:13142   */\n      dup2\n        /* \"#utility.yul\":13130:13143   */\n      mload\n        /* \"#utility.yul\":13121:13143   */\n      swap1\n      pop\n        /* \"#utility.yul\":13152:13184   */\n      tag_248\n        /* \"#utility.yul\":13178:13183   */\n      dup2\n        /* \"#utility.yul\":13152:13184   */\n      tag_138\n      jump\t// in\n    tag_248:\n        /* \"#utility.yul\":13049:13190   */\n      swap3\n      swap2\n      pop\n      pop\n      jump\t// out\n        /* \"#utility.yul\":13196:13316   */\n    tag_140:\n        /* \"#utility.yul\":13268:13291   */\n      tag_250\n        /* \"#utility.yul\":13285:13290   */\n      dup2\n        /* \"#utility.yul\":13268:13291   */\n      tag_112\n      jump\t// in\n    tag_250:\n        /* \"#utility.yul\":13261:13266   */\n      dup2\n        /* \"#utility.yul\":13258:13292   */\n      eq\n        /* \"#utility.yul\":13248:13310   */\n      tag_251\n      jumpi\n        /* \"#utility.yul\":13306:13307   */\n      0x00\n        /* \"#utility.yul\":13303:13304   */\n      dup1\n        /* \"#utility.yul\":13296:13308   */\n      revert\n        /* \"#utility.yul\":13248:13310   */\n    tag_251:\n        /* \"#utility.yul\":13196:13316   */\n      pop\n      jump\t// out\n        /* \"#utility.yul\":13322:13463   */\n    tag_141:\n        /* \"#utility.yul\":13378:13383   */\n      0x00\n        /* \"#utility.yul\":13409:13415   */\n      dup2\n        /* \"#utility.yul\":13403:13416   */\n      mload\n        /* \"#utility.yul\":13394:13416   */\n      swap1\n      pop\n        /* \"#utility.yul\":13425:13457   */\n      tag_253\n        /* \"#utility.yul\":13451:13456   */\n      dup2\n        /* \"#utility.yul\":13425:13457   */\n      tag_140\n      jump\t// in\n    tag_253:\n        /* \"#utility.yul\":13322:13463   */\n      swap3\n      swap2\n      pop\n      pop\n      jump\t// out\n        /* \"#utility.yul\":13469:13591   */\n    tag_142:\n        /* \"#utility.yul\":13542:13566   */\n      tag_255\n        /* \"#utility.yul\":13560:13565   */\n      dup2\n        /* \"#utility.yul\":13542:13566   */\n      tag_110\n      jump\t// in\n    tag_255:\n        /* \"#utility.yul\":13535:13540   */\n      dup2\n        /* \"#utility.yul\":13532:13567   */\n      eq\n        /* \"#utility.yul\":13522:13585   */\n      tag_256\n      jumpi\n        /* \"#utility.yul\":13581:13582   */\n      0x00\n        /* \"#utility.yul\":13578:13579   */\n      dup1\n        /* \"#utility.yul\":13571:13583   */\n      revert\n        /* \"#utility.yul\":13522:13585   */\n    tag_256:\n        /* \"#utility.yul\":13469:13591   */\n      pop\n      jump\t// out\n        /* \"#utility.yul\":13597:13740   */\n    tag_143:\n        /* \"#utility.yul\":13654:13659   */\n      0x00\n        /* \"#utility.yul\":13685:13691   */\n      dup2\n        /* \"#utility.yul\":13679:13692   */\n      mload\n        /* \"#utility.yul\":13670:13692   */\n      swap1\n      pop\n        /* \"#utility.yul\":13701:13734   */\n      tag_258\n        /* \"#utility.yul\":13728:13733   */\n      dup2\n        /* \"#utility.yul\":13701:13734   */\n      tag_142\n      jump\t// in\n    tag_258:\n        /* \"#utility.yul\":13597:13740   */\n      swap3\n      swap2\n      pop\n      pop\n      jump\t// out\n        /* \"#utility.yul\":13746:14717   */\n    tag_95:\n        /* \"#utility.yul\":13849:13855   */\n      0x00\n        /* \"#utility.yul\":13857:13863   */\n      dup1\n        /* \"#utility.yul\":13865:13871   */\n      0x00\n        /* \"#utility.yul\":13873:13879   */\n      dup1\n        /* \"#utility.yul\":13881:13887   */\n      0x00\n        /* \"#utility.yul\":13930:13933   */\n      0xa0\n        /* \"#utility.yul\":13918:13927   */\n      dup7\n        /* \"#utility.yul\":13909:13916   */\n      dup9\n        /* \"#utility.yul\":13905:13928   */\n      sub\n        /* \"#utility.yul\":13901:13934   */\n      slt\n        /* \"#utility.yul\":13898:14018   */\n      iszero\n      tag_260\n      jumpi\n        /* \"#utility.yul\":13937:14016   */\n      tag_261\n      tag_106\n      jump\t// in\n    tag_261:\n        /* \"#utility.yul\":13898:14018   */\n    tag_260:\n        /* \"#utility.yul\":14057:14058   */\n      0x00\n        /* \"#utility.yul\":14082:14145   */\n      tag_262\n        /* \"#utility.yul\":14137:14144   */\n      dup9\n        /* \"#utility.yul\":14128:14134   */\n      dup3\n        /* \"#utility.yul\":14117:14126   */\n      dup10\n        /* \"#utility.yul\":14113:14135   */\n      add\n        /* \"#utility.yul\":14082:14145   */\n      tag_139\n      jump\t// in\n    tag_262:\n        /* \"#utility.yul\":14072:14145   */\n      swap6\n      pop\n        /* \"#utility.yul\":14028:14155   */\n      pop\n        /* \"#utility.yul\":14194:14196   */\n      0x20\n        /* \"#utility.yul\":14220:14283   */\n      tag_263\n        /* \"#utility.yul\":14275:14282   */\n      dup9\n        /* \"#utility.yul\":14266:14272   */\n      dup3\n        /* \"#utility.yul\":14255:14264   */\n      dup10\n        /* \"#utility.yul\":14251:14273   */\n      add\n        /* \"#utility.yul\":14220:14283   */\n      tag_141\n      jump\t// in\n    tag_263:\n        /* \"#utility.yul\":14210:14283   */\n      swap5\n      pop\n        /* \"#utility.yul\":14165:14293   */\n      pop\n        /* \"#utility.yul\":14332:14334   */\n      0x40\n        /* \"#utility.yul\":14358:14422   */\n      tag_264\n        /* \"#utility.yul\":14414:14421   */\n      dup9\n        /* \"#utility.yul\":14405:14411   */\n      dup3\n        /* \"#utility.yul\":14394:14403   */\n      dup10\n        /* \"#utility.yul\":14390:14412   */\n      add\n        /* \"#utility.yul\":14358:14422   */\n      tag_143\n      jump\t// in\n    tag_264:\n        /* \"#utility.yul\":14348:14422   */\n      swap4\n      pop\n        /* \"#utility.yul\":14303:14432   */\n      pop\n        /* \"#utility.yul\":14471:14473   */\n      0x60\n        /* \"#utility.yul\":14497:14561   */\n      tag_265\n        /* \"#utility.yul\":14553:14560   */\n      dup9\n        /* \"#utility.yul\":14544:14550   */\n      dup3\n        /* \"#utility.yul\":14533:14542   */\n      dup10\n        /* \"#utility.yul\":14529:14551   */\n      add\n        /* \"#utility.yul\":14497:14561   */\n      tag_143\n      jump\t// in\n    tag_265:\n        /* \"#utility.yul\":14487:14561   */\n      swap3\n      pop\n        /* \"#utility.yul\":14442:14571   */\n      pop\n        /* \"#utility.yul\":14610:14613   */\n      0x80\n        /* \"#utility.yul\":14637:14700   */\n      tag_266\n        /* \"#utility.yul\":14692:14699   */\n      dup9\n        /* \"#utility.yul\":14683:14689   */\n      dup3\n        /* \"#utility.yul\":14672:14681   */\n      dup10\n        /* \"#utility.yul\":14668:14690   */\n      add\n        /* \"#utility.yul\":14637:14700   */\n      tag_139\n      jump\t// in\n    tag_266:\n        /* \"#utility.yul\":14627:14700   */\n      swap2\n      pop\n        /* \"#utility.yul\":14581:14710   */\n      pop\n        /* \"#utility.yul\":13746:14717   */\n      swap3\n      swap6\n      pop\n      swap3\n      swap6\n      swap1\n      swap4\n      pop\n      jump\t// out\n        /* \"#utility.yul\":14723:15133   */\n    tag_99:\n        /* \"#utility.yul\":14763:14770   */\n      0x00\n        /* \"#utility.yul\":14786:14806   */\n      tag_268\n        /* \"#utility.yul\":14804:14805   */\n      dup3\n        /* \"#utility.yul\":14786:14806   */\n      tag_110\n      jump\t// in\n    tag_268:\n        /* \"#utility.yul\":14781:14806   */\n      swap2\n      pop\n        /* \"#utility.yul\":14820:14840   */\n      tag_269\n        /* \"#utility.yul\":14838:14839   */\n      dup4\n        /* \"#utility.yul\":14820:14840   */\n      tag_110\n      jump\t// in\n    tag_269:\n        /* \"#utility.yul\":14815:14840   */\n      swap3\n      pop\n        /* \"#utility.yul\":14875:14876   */\n      dup3\n        /* \"#utility.yul\":14872:14873   */\n      dup3\n        /* \"#utility.yul\":14868:14877   */\n      mul\n        /* \"#utility.yul\":14897:14927   */\n      tag_270\n        /* \"#utility.yul\":14915:14926   */\n      dup2\n        /* \"#utility.yul\":14897:14927   */\n      tag_110\n      jump\t// in\n    tag_270:\n        /* \"#utility.yul\":14886:14927   */\n      swap2\n      pop\n        /* \"#utility.yul\":15076:15077   */\n      dup3\n        /* \"#utility.yul\":15067:15074   */\n      dup3\n        /* \"#utility.yul\":15063:15078   */\n      div\n        /* \"#utility.yul\":15060:15061   */\n      dup5\n        /* \"#utility.yul\":15057:15079   */\n      eq\n        /* \"#utility.yul\":15037:15038   */\n      dup4\n        /* \"#utility.yul\":15030:15039   */\n      iszero\n        /* \"#utility.yul\":15010:15093   */\n      or\n        /* \"#utility.yul\":14987:15126   */\n      tag_271\n      jumpi\n        /* \"#utility.yul\":15106:15124   */\n      tag_272\n      tag_119\n      jump\t// in\n    tag_272:\n        /* \"#utility.yul\":14987:15126   */\n    tag_271:\n        /* \"#utility.yul\":14771:15133   */\n      pop\n        /* \"#utility.yul\":14723:15133   */\n      swap3\n      swap2\n      pop\n      pop\n      jump\t// out\n        /* \"#utility.yul\":15139:15319   */\n    tag_144:\n        /* \"#utility.yul\":15187:15264   */\n      0x4e487b7100000000000000000000000000000000000000000000000000000000\n        /* \"#utility.yul\":15184:15185   */\n      0x00\n        /* \"#utility.yul\":15177:15265   */\n      mstore\n        /* \"#utility.yul\":15284:15288   */\n      0x12\n        /* \"#utility.yul\":15281:15282   */\n      0x04\n        /* \"#utility.yul\":15274:15289   */\n      mstore\n        /* \"#utility.yul\":15308:15312   */\n      0x24\n        /* \"#utility.yul\":15305:15306   */\n      0x00\n        /* \"#utility.yul\":15298:15313   */\n      revert\n        /* \"#utility.yul\":15325:15510   */\n    tag_101:\n        /* \"#utility.yul\":15365:15366   */\n      0x00\n        /* \"#utility.yul\":15382:15402   */\n      tag_275\n        /* \"#utility.yul\":15400:15401   */\n      dup3\n        /* \"#utility.yul\":15382:15402   */\n      tag_110\n      jump\t// in\n    tag_275:\n        /* \"#utility.yul\":15377:15402   */\n      swap2\n      pop\n        /* \"#utility.yul\":15416:15436   */\n      tag_276\n        /* \"#utility.yul\":15434:15435   */\n      dup4\n        /* \"#utility.yul\":15416:15436   */\n      tag_110\n      jump\t// in\n    tag_276:\n        /* \"#utility.yul\":15411:15436   */\n      swap3\n      pop\n        /* \"#utility.yul\":15455:15456   */\n      dup3\n        /* \"#utility.yul\":15445:15480   */\n      tag_277\n      jumpi\n        /* \"#utility.yul\":15460:15478   */\n      tag_278\n      tag_144\n      jump\t// in\n    tag_278:\n        /* \"#utility.yul\":15445:15480   */\n    tag_277:\n        /* \"#utility.yul\":15502:15503   */\n      dup3\n        /* \"#utility.yul\":15499:15500   */\n      dup3\n        /* \"#utility.yul\":15495:15504   */\n      div\n        /* \"#utility.yul\":15490:15504   */\n      swap1\n      pop\n        /* \"#utility.yul\":15325:15510   */\n      swap3\n      swap2\n      pop\n      pop\n      jump\t// out\n\n    auxdata: 0xa2646970667358221220cb9f4e0d8885199cfca8d6ce2f5c5d1e61c44da4933189dbc298598a5f1aaa1964736f6c634300081a0033\n}\n",
				"bytecode": {
					"linkReferences": {},
					"object": "608060405268056bc75e2d6310000060015534801561001c575f80fd5b5060405161114e38038061114e833981810160405281019061003e919061011d565b73694aa1769357215de4fac081bf1f309adc32530660025f6101000a81548173ffffffffffffffffffffffffffffffffffffffff021916908373ffffffffffffffffffffffffffffffffffffffff1602179055503360035f6101000a81548173ffffffffffffffffffffffffffffffffffffffff021916908373ffffffffffffffffffffffffffffffffffffffff160217905550806005819055504260048190555050610148565b5f80fd5b5f819050919050565b6100fc816100ea565b8114610106575f80fd5b50565b5f81519050610117816100f3565b92915050565b5f60208284031215610132576101316100e6565b5b5f61013f84828501610109565b91505092915050565b610ff9806101555f395ff3fe60806040526004361061006f575f3560e01c80639f883a051161004d5780639f883a05146100c95780639faa1cac14610105578063b60d42881461012d578063bea4dfb5146101375761006f565b8063590e1ae3146100735780638da5cb5b146100895780638edd6eb6146100b3575b5f80fd5b34801561007e575f80fd5b50610087610161565b005b348015610094575f80fd5b5061009d6103ae565b6040516100aa91906108c8565b60405180910390f35b3480156100be575f80fd5b506100c76103d3565b005b3480156100d4575f80fd5b506100ef60048036038101906100ea919061090f565b6105f6565b6040516100fc9190610952565b60405180910390f35b348015610110575f80fd5b5061012b6004803603810190610126919061090f565b61060a565b005b6101356106dc565b005b348015610142575f80fd5b5061014b6107bd565b6040516101589190610983565b60405180910390f35b683635c9adc5dea000006101744761085a565b106101b4576040517f08c379a00000000000000000000000000000000000000000000000000000000081526004016101ab906109f6565b60405180910390fd5b5f805f3373ffffffffffffffffffffffffffffffffffffffff1673ffffffffffffffffffffffffffffffffffffffff1681526020019081526020015f205403610232576040517f08c379a000000000000000000000000000000000000000000000000000000000815260040161022990610a5e565b60405180910390fd5b6005546004546102429190610aa9565b421015610284576040517f08c379a000000000000000000000000000000000000000000000000000000000815260040161027b90610b26565b60405180910390fd5b5f3373ffffffffffffffffffffffffffffffffffffffff165f803373ffffffffffffffffffffffffffffffffffffffff1673ffffffffffffffffffffffffffffffffffffffff1681526020019081526020015f20546040516102e590610b71565b5f6040518083038185875af1925050503d805f811461031f576040519150601f19603f3d011682016040523d82523d5f602084013e610324565b606091505b5050809150508061036a576040517f08c379a000000000000000000000000000000000000000000000000000000000815260040161036190610bcf565b60405180910390fd5b5f805f3373ffffffffffffffffffffffffffffffffffffffff1673ffffffffffffffffffffffffffffffffffffffff1681526020019081526020015f208190555050565b60035f9054906101000a900473ffffffffffffffffffffffffffffffffffffffff1681565b683635c9adc5dea000006103e64761085a565b1015610427576040517f08c379a000000000000000000000000000000000000000000000000000000000815260040161041e90610c37565b60405180910390fd5b60035f9054906101000a900473ffffffffffffffffffffffffffffffffffffffff1673ffffffffffffffffffffffffffffffffffffffff163373ffffffffffffffffffffffffffffffffffffffff16146104b6576040517f08c379a00000000000000000000000000000000000000000000000000000000081526004016104ad90610c9f565b60405180910390fd5b6005546004546104c69190610aa9565b421015610508576040517f08c379a00000000000000000000000000000000000000000000000000000000081526004016104ff90610b26565b60405180910390fd5b5f3373ffffffffffffffffffffffffffffffffffffffff164760405161052d90610b71565b5f6040518083038185875af1925050503d805f8114610567576040519150601f19603f3d011682016040523d82523d5f602084013e61056c565b606091505b505080915050806105b2576040517f08c379a00000000000000000000000000000000000000000000000000000000081526004016105a990610bcf565b60405180910390fd5b5f805f3373ffffffffffffffffffffffffffffffffffffffff1673ffffffffffffffffffffffffffffffffffffffff1681526020019081526020015f208190555050565b5f602052805f5260405f205f915090505481565b60035f9054906101000a900473ffffffffffffffffffffffffffffffffffffffff1673ffffffffffffffffffffffffffffffffffffffff163373ffffffffffffffffffffffffffffffffffffffff1614610699576040517f08c379a000000000000000000000000000000000000000000000000000000000815260040161069090610d2d565b60405180910390fd5b8060035f6101000a81548173ffffffffffffffffffffffffffffffffffffffff021916908373ffffffffffffffffffffffffffffffffffffffff16021790555050565b6001546106e83461085a565b1015610729576040517f08c379a000000000000000000000000000000000000000000000000000000000815260040161072090610d95565b60405180910390fd5b6005546004546107399190610aa9565b421061077a576040517f08c379a000000000000000000000000000000000000000000000000000000000815260040161077190610dfd565b60405180910390fd5b345f803373ffffffffffffffffffffffffffffffffffffffff1673ffffffffffffffffffffffffffffffffffffffff1681526020019081526020015f2081905550565b5f8060025f9054906101000a900473ffffffffffffffffffffffffffffffffffffffff1673ffffffffffffffffffffffffffffffffffffffff1663feaf968c6040518163ffffffff1660e01b815260040160a060405180830381865afa158015610829573d5f803e3d5ffd5b505050506040513d601f19601f8201168201806040525081019061084d9190610eae565b5050509150508091505090565b5f806108646107bd565b90506305f5e10081846108779190610f25565b6108819190610f93565b915050919050565b5f73ffffffffffffffffffffffffffffffffffffffff82169050919050565b5f6108b282610889565b9050919050565b6108c2816108a8565b82525050565b5f6020820190506108db5f8301846108b9565b92915050565b5f80fd5b6108ee816108a8565b81146108f8575f80fd5b50565b5f81359050610909816108e5565b92915050565b5f60208284031215610924576109236108e1565b5b5f610931848285016108fb565b91505092915050565b5f819050919050565b61094c8161093a565b82525050565b5f6020820190506109655f830184610943565b92915050565b5f819050919050565b61097d8161096b565b82525050565b5f6020820190506109965f830184610974565b92915050565b5f82825260208201905092915050565b7f74617267657420697320726561636865640000000000000000000000000000005f82015250565b5f6109e060118361099c565b91506109eb826109ac565b602082019050919050565b5f6020820190508181035f830152610a0d816109d4565b9050919050565b7f74686572206973206e6f2066756e6420666f7220796f750000000000000000005f82015250565b5f610a4860178361099c565b9150610a5382610a14565b602082019050919050565b5f6020820190508181035f830152610a7581610a3c565b9050919050565b7f4e487b71000000000000000000000000000000000000000000000000000000005f52601160045260245ffd5b5f610ab38261093a565b9150610abe8361093a565b9250828201905080821115610ad657610ad5610a7c565b5b92915050565b7f77696e646f7720697320636c6f736500000000000000000000000000000000005f82015250565b5f610b10600f8361099c565b9150610b1b82610adc565b602082019050919050565b5f6020820190508181035f830152610b3d81610b04565b9050919050565b5f81905092915050565b50565b5f610b5c5f83610b44565b9150610b6782610b4e565b5f82019050919050565b5f610b7b82610b51565b9150819050919050565b7f7472616e73666572207478206661696c656400000000000000000000000000005f82015250565b5f610bb960128361099c565b9150610bc482610b85565b602082019050919050565b5f6020820190508181035f830152610be681610bad565b9050919050565b7f546172676574206973206e6f74207265616368656400000000000000000000005f82015250565b5f610c2160158361099c565b9150610c2c82610bed565b602082019050919050565b5f6020820190508181035f830152610c4e81610c15565b9050919050565b7f7468657265206973206e6f2066756e6420666f7220796f7500000000000000005f82015250565b5f610c8960188361099c565b9150610c9482610c55565b602082019050919050565b5f6020820190508181035f830152610cb681610c7d565b9050919050565b7f746869732066756e6374696f6e2063616e206f6e6c792062652063616c6c65645f8201527f206279206f776e65720000000000000000000000000000000000000000000000602082015250565b5f610d1760298361099c565b9150610d2282610cbd565b604082019050919050565b5f6020820190508181035f830152610d4481610d0b565b9050919050565b7f73656e64206d6f726520455448000000000000000000000000000000000000005f82015250565b5f610d7f600d8361099c565b9150610d8a82610d4b565b602082019050919050565b5f6020820190508181035f830152610dac81610d73565b9050919050565b7f77696e646f7720736920636c6f736564000000000000000000000000000000005f82015250565b5f610de760108361099c565b9150610df282610db3565b602082019050919050565b5f6020820190508181035f830152610e1481610ddb565b9050919050565b5f69ffffffffffffffffffff82169050919050565b610e3981610e1b565b8114610e43575f80fd5b50565b5f81519050610e5481610e30565b92915050565b610e638161096b565b8114610e6d575f80fd5b50565b5f81519050610e7e81610e5a565b92915050565b610e8d8161093a565b8114610e97575f80fd5b50565b5f81519050610ea881610e84565b92915050565b5f805f805f60a08688031215610ec757610ec66108e1565b5b5f610ed488828901610e46565b9550506020610ee588828901610e70565b9450506040610ef688828901610e9a565b9350506060610f0788828901610e9a565b9250506080610f1888828901610e46565b9150509295509295909350565b5f610f2f8261093a565b9150610f3a8361093a565b9250828202610f488161093a565b91508282048414831517610f5f57610f5e610a7c565b5b5092915050565b7f4e487b71000000000000000000000000000000000000000000000000000000005f52601260045260245ffd5b5f610f9d8261093a565b9150610fa88361093a565b925082610fb857610fb7610f66565b5b82820490509291505056fea2646970667358221220cb9f4e0d8885199cfca8d6ce2f5c5d1e61c44da4933189dbc298598a5f1aaa1964736f6c634300081a0033",
					"opcodes": "PUSH1 0x80 PUSH1 0x40 MSTORE PUSH9 0x56BC75E2D63100000 PUSH1 0x1 SSTORE CALLVALUE DUP1 ISZERO PUSH2 0x1C JUMPI PUSH0 DUP1 REVERT JUMPDEST POP PUSH1 0x40 MLOAD PUSH2 0x114E CODESIZE SUB DUP1 PUSH2 0x114E DUP4 CODECOPY DUP2 DUP2 ADD PUSH1 0x40 MSTORE DUP2 ADD SWAP1 PUSH2 0x3E SWAP2 SWAP1 PUSH2 0x11D JUMP JUMPDEST PUSH20 0x694AA1769357215DE4FAC081BF1F309ADC325306 PUSH1 0x2 PUSH0 PUSH2 0x100 EXP DUP2 SLOAD DUP2 PUSH20 0xFFFFFFFFFFFFFFFFFFFFFFFFFFFFFFFFFFFFFFFF MUL NOT AND SWAP1 DUP4 PUSH20 0xFFFFFFFFFFFFFFFFFFFFFFFFFFFFFFFFFFFFFFFF AND MUL OR SWAP1 SSTORE POP CALLER PUSH1 0x3 PUSH0 PUSH2 0x100 EXP DUP2 SLOAD DUP2 PUSH20 0xFFFFFFFFFFFFFFFFFFFFFFFFFFFFFFFFFFFFFFFF MUL NOT AND SWAP1 DUP4 PUSH20 0xFFFFFFFFFFFFFFFFFFFFFFFFFFFFFFFFFFFFFFFF AND MUL OR SWAP1 SSTORE POP DUP1 PUSH1 0x5 DUP2 SWAP1 SSTORE POP TIMESTAMP PUSH1 0x4 DUP2 SWAP1 SSTORE POP POP PUSH2 0x148 JUMP JUMPDEST PUSH0 DUP1 REVERT JUMPDEST PUSH0 DUP2 SWAP1 POP SWAP2 SWAP1 POP JUMP JUMPDEST PUSH2 0xFC DUP2 PUSH2 0xEA JUMP JUMPDEST DUP2 EQ PUSH2 0x106 JUMPI PUSH0 DUP1 REVERT JUMPDEST POP JUMP JUMPDEST PUSH0 DUP2 MLOAD SWAP1 POP PUSH2 0x117 DUP2 PUSH2 0xF3 JUMP JUMPDEST SWAP3 SWAP2 POP POP JUMP JUMPDEST PUSH0 PUSH1 0x20 DUP3 DUP5 SUB SLT ISZERO PUSH2 0x132 JUMPI PUSH2 0x131 PUSH2 0xE6 JUMP JUMPDEST JUMPDEST PUSH0 PUSH2 0x13F DUP5 DUP3 DUP6 ADD PUSH2 0x109 JUMP JUMPDEST SWAP2 POP POP SWAP3 SWAP2 POP POP JUMP JUMPDEST PUSH2 0xFF9 DUP1 PUSH2 0x155 PUSH0 CODECOPY PUSH0 RETURN INVALID PUSH1 0x80 PUSH1 0x40 MSTORE PUSH1 0x4 CALLDATASIZE LT PUSH2 0x6F JUMPI PUSH0 CALLDATALOAD PUSH1 0xE0 SHR DUP1 PUSH4 0x9F883A05 GT PUSH2 0x4D JUMPI DUP1 PUSH4 0x9F883A05 EQ PUSH2 0xC9 JUMPI DUP1 PUSH4 0x9FAA1CAC EQ PUSH2 0x105 JUMPI DUP1 PUSH4 0xB60D4288 EQ PUSH2 0x12D JUMPI DUP1 PUSH4 0xBEA4DFB5 EQ PUSH2 0x137 JUMPI PUSH2 0x6F JUMP JUMPDEST DUP1 PUSH4 0x590E1AE3 EQ PUSH2 0x73 JUMPI DUP1 PUSH4 0x8DA5CB5B EQ PUSH2 0x89 JUMPI DUP1 PUSH4 0x8EDD6EB6 EQ PUSH2 0xB3 JUMPI JUMPDEST PUSH0 DUP1 REVERT JUMPDEST CALLVALUE DUP1 ISZERO PUSH2 0x7E JUMPI PUSH0 DUP1 REVERT JUMPDEST POP PUSH2 0x87 PUSH2 0x161 JUMP JUMPDEST STOP JUMPDEST CALLVALUE DUP1 ISZERO PUSH2 0x94 JUMPI PUSH0 DUP1 REVERT JUMPDEST POP PUSH2 0x9D PUSH2 0x3AE JUMP JUMPDEST PUSH1 0x40 MLOAD PUSH2 0xAA SWAP2 SWAP1 PUSH2 0x8C8 JUMP JUMPDEST PUSH1 0x40 MLOAD DUP1 SWAP2 SUB SWAP1 RETURN JUMPDEST CALLVALUE DUP1 ISZERO PUSH2 0xBE JUMPI PUSH0 DUP1 REVERT JUMPDEST POP PUSH2 0xC7 PUSH2 0x3D3 JUMP JUMPDEST STOP JUMPDEST CALLVALUE DUP1 ISZERO PUSH2 0xD4 JUMPI PUSH0 DUP1 REVERT JUMPDEST POP PUSH2 0xEF PUSH1 0x4 DUP1 CALLDATASIZE SUB DUP2 ADD SWAP1 PUSH2 0xEA SWAP2 SWAP1 PUSH2 0x90F JUMP JUMPDEST PUSH2 0x5F6 JUMP JUMPDEST PUSH1 0x40 MLOAD PUSH2 0xFC SWAP2 SWAP1 PUSH2 0x952 JUMP JUMPDEST PUSH1 0x40 MLOAD DUP1 SWAP2 SUB SWAP1 RETURN JUMPDEST CALLVALUE DUP1 ISZERO PUSH2 0x110 JUMPI PUSH0 DUP1 REVERT JUMPDEST POP PUSH2 0x12B PUSH1 0x4 DUP1 CALLDATASIZE SUB DUP2 ADD SWAP1 PUSH2 0x126 SWAP2 SWAP1 PUSH2 0x90F JUMP JUMPDEST PUSH2 0x60A JUMP JUMPDEST STOP JUMPDEST PUSH2 0x135 PUSH2 0x6DC JUMP JUMPDEST STOP JUMPDEST CALLVALUE DUP1 ISZERO PUSH2 0x142 JUMPI PUSH0 DUP1 REVERT JUMPDEST POP PUSH2 0x14B PUSH2 0x7BD JUMP JUMPDEST PUSH1 0x40 MLOAD PUSH2 0x158 SWAP2 SWAP1 PUSH2 0x983 JUMP JUMPDEST PUSH1 0x40 MLOAD DUP1 SWAP2 SUB SWAP1 RETURN JUMPDEST PUSH9 0x3635C9ADC5DEA00000 PUSH2 0x174 SELFBALANCE PUSH2 0x85A JUMP JUMPDEST LT PUSH2 0x1B4 JUMPI PUSH1 0x40 MLOAD PUSH32 0x8C379A000000000000000000000000000000000000000000000000000000000 DUP2 MSTORE PUSH1 0x4 ADD PUSH2 0x1AB SWAP1 PUSH2 0x9F6 JUMP JUMPDEST PUSH1 0x40 MLOAD DUP1 SWAP2 SUB SWAP1 REVERT JUMPDEST PUSH0 DUP1 PUSH0 CALLER PUSH20 0xFFFFFFFFFFFFFFFFFFFFFFFFFFFFFFFFFFFFFFFF AND PUSH20 0xFFFFFFFFFFFFFFFFFFFFFFFFFFFFFFFFFFFFFFFF AND DUP2 MSTORE PUSH1 0x20 ADD SWAP1 DUP2 MSTORE PUSH1 0x20 ADD PUSH0 KECCAK256 SLOAD SUB PUSH2 0x232 JUMPI PUSH1 0x40 MLOAD PUSH32 0x8C379A000000000000000000000000000000000000000000000000000000000 DUP2 MSTORE PUSH1 0x4 ADD PUSH2 0x229 SWAP1 PUSH2 0xA5E JUMP JUMPDEST PUSH1 0x40 MLOAD DUP1 SWAP2 SUB SWAP1 REVERT JUMPDEST PUSH1 0x5 SLOAD PUSH1 0x4 SLOAD PUSH2 0x242 SWAP2 SWAP1 PUSH2 0xAA9 JUMP JUMPDEST TIMESTAMP LT ISZERO PUSH2 0x284 JUMPI PUSH1 0x40 MLOAD PUSH32 0x8C379A000000000000000000000000000000000000000000000000000000000 DUP2 MSTORE PUSH1 0x4 ADD PUSH2 0x27B SWAP1 PUSH2 0xB26 JUMP JUMPDEST PUSH1 0x40 MLOAD DUP1 SWAP2 SUB SWAP1 REVERT JUMPDEST PUSH0 CALLER PUSH20 0xFFFFFFFFFFFFFFFFFFFFFFFFFFFFFFFFFFFFFFFF AND PUSH0 DUP1 CALLER PUSH20 0xFFFFFFFFFFFFFFFFFFFFFFFFFFFFFFFFFFFFFFFF AND PUSH20 0xFFFFFFFFFFFFFFFFFFFFFFFFFFFFFFFFFFFFFFFF AND DUP2 MSTORE PUSH1 0x20 ADD SWAP1 DUP2 MSTORE PUSH1 0x20 ADD PUSH0 KECCAK256 SLOAD PUSH1 0x40 MLOAD PUSH2 0x2E5 SWAP1 PUSH2 0xB71 JUMP JUMPDEST PUSH0 PUSH1 0x40 MLOAD DUP1 DUP4 SUB DUP2 DUP6 DUP8 GAS CALL SWAP3 POP POP POP RETURNDATASIZE DUP1 PUSH0 DUP2 EQ PUSH2 0x31F JUMPI PUSH1 0x40 MLOAD SWAP2 POP PUSH1 0x1F NOT PUSH1 0x3F RETURNDATASIZE ADD AND DUP3 ADD PUSH1 0x40 MSTORE RETURNDATASIZE DUP3 MSTORE RETURNDATASIZE PUSH0 PUSH1 0x20 DUP5 ADD RETURNDATACOPY PUSH2 0x324 JUMP JUMPDEST PUSH1 0x60 SWAP2 POP JUMPDEST POP POP DUP1 SWAP2 POP POP DUP1 PUSH2 0x36A JUMPI PUSH1 0x40 MLOAD PUSH32 0x8C379A000000000000000000000000000000000000000000000000000000000 DUP2 MSTORE PUSH1 0x4 ADD PUSH2 0x361 SWAP1 PUSH2 0xBCF JUMP JUMPDEST PUSH1 0x40 MLOAD DUP1 SWAP2 SUB SWAP1 REVERT JUMPDEST PUSH0 DUP1 PUSH0 CALLER PUSH20 0xFFFFFFFFFFFFFFFFFFFFFFFFFFFFFFFFFFFFFFFF AND PUSH20 0xFFFFFFFFFFFFFFFFFFFFFFFFFFFFFFFFFFFFFFFF AND DUP2 MSTORE PUSH1 0x20 ADD SWAP1 DUP2 MSTORE PUSH1 0x20 ADD PUSH0 KECCAK256 DUP2 SWAP1 SSTORE POP POP JUMP JUMPDEST PUSH1 0x3 PUSH0 SWAP1 SLOAD SWAP1 PUSH2 0x100 EXP SWAP1 DIV PUSH20 0xFFFFFFFFFFFFFFFFFFFFFFFFFFFFFFFFFFFFFFFF AND DUP2 JUMP JUMPDEST PUSH9 0x3635C9ADC5DEA00000 PUSH2 0x3E6 SELFBALANCE PUSH2 0x85A JUMP JUMPDEST LT ISZERO PUSH2 0x427 JUMPI PUSH1 0x40 MLOAD PUSH32 0x8C379A000000000000000000000000000000000000000000000000000000000 DUP2 MSTORE PUSH1 0x4 ADD PUSH2 0x41E SWAP1 PUSH2 0xC37 JUMP JUMPDEST PUSH1 0x40 MLOAD DUP1 SWAP2 SUB SWAP1 REVERT JUMPDEST PUSH1 0x3 PUSH0 SWAP1 SLOAD SWAP1 PUSH2 0x100 EXP SWAP1 DIV PUSH20 0xFFFFFFFFFFFFFFFFFFFFFFFFFFFFFFFFFFFFFFFF AND PUSH20 0xFFFFFFFFFFFFFFFFFFFFFFFFFFFFFFFFFFFFFFFF AND CALLER PUSH20 0xFFFFFFFFFFFFFFFFFFFFFFFFFFFFFFFFFFFFFFFF AND EQ PUSH2 0x4B6 JUMPI PUSH1 0x40 MLOAD PUSH32 0x8C379A000000000000000000000000000000000000000000000000000000000 DUP2 MSTORE PUSH1 0x4 ADD PUSH2 0x4AD SWAP1 PUSH2 0xC9F JUMP JUMPDEST PUSH1 0x40 MLOAD DUP1 SWAP2 SUB SWAP1 REVERT JUMPDEST PUSH1 0x5 SLOAD PUSH1 0x4 SLOAD PUSH2 0x4C6 SWAP2 SWAP1 PUSH2 0xAA9 JUMP JUMPDEST TIMESTAMP LT ISZERO PUSH2 0x508 JUMPI PUSH1 0x40 MLOAD PUSH32 0x8C379A000000000000000000000000000000000000000000000000000000000 DUP2 MSTORE PUSH1 0x4 ADD PUSH2 0x4FF SWAP1 PUSH2 0xB26 JUMP JUMPDEST PUSH1 0x40 MLOAD DUP1 SWAP2 SUB SWAP1 REVERT JUMPDEST PUSH0 CALLER PUSH20 0xFFFFFFFFFFFFFFFFFFFFFFFFFFFFFFFFFFFFFFFF AND SELFBALANCE PUSH1 0x40 MLOAD PUSH2 0x52D SWAP1 PUSH2 0xB71 JUMP JUMPDEST PUSH0 PUSH1 0x40 MLOAD DUP1 DUP4 SUB DUP2 DUP6 DUP8 GAS CALL SWAP3 POP POP POP RETURNDATASIZE DUP1 PUSH0 DUP2 EQ PUSH2 0x567 JUMPI PUSH1 0x40 MLOAD SWAP2 POP PUSH1 0x1F NOT PUSH1 0x3F RETURNDATASIZE ADD AND DUP3 ADD PUSH1 0x40 MSTORE RETURNDATASIZE DUP3 MSTORE RETURNDATASIZE PUSH0 PUSH1 0x20 DUP5 ADD RETURNDATACOPY PUSH2 0x56C JUMP JUMPDEST PUSH1 0x60 SWAP2 POP JUMPDEST POP POP DUP1 SWAP2 POP POP DUP1 PUSH2 0x5B2 JUMPI PUSH1 0x40 MLOAD PUSH32 0x8C379A000000000000000000000000000000000000000000000000000000000 DUP2 MSTORE PUSH1 0x4 ADD PUSH2 0x5A9 SWAP1 PUSH2 0xBCF JUMP JUMPDEST PUSH1 0x40 MLOAD DUP1 SWAP2 SUB SWAP1 REVERT JUMPDEST PUSH0 DUP1 PUSH0 CALLER PUSH20 0xFFFFFFFFFFFFFFFFFFFFFFFFFFFFFFFFFFFFFFFF AND PUSH20 0xFFFFFFFFFFFFFFFFFFFFFFFFFFFFFFFFFFFFFFFF AND DUP2 MSTORE PUSH1 0x20 ADD SWAP1 DUP2 MSTORE PUSH1 0x20 ADD PUSH0 KECCAK256 DUP2 SWAP1 SSTORE POP POP JUMP JUMPDEST PUSH0 PUSH1 0x20 MSTORE DUP1 PUSH0 MSTORE PUSH1 0x40 PUSH0 KECCAK256 PUSH0 SWAP2 POP SWAP1 POP SLOAD DUP2 JUMP JUMPDEST PUSH1 0x3 PUSH0 SWAP1 SLOAD SWAP1 PUSH2 0x100 EXP SWAP1 DIV PUSH20 0xFFFFFFFFFFFFFFFFFFFFFFFFFFFFFFFFFFFFFFFF AND PUSH20 0xFFFFFFFFFFFFFFFFFFFFFFFFFFFFFFFFFFFFFFFF AND CALLER PUSH20 0xFFFFFFFFFFFFFFFFFFFFFFFFFFFFFFFFFFFFFFFF AND EQ PUSH2 0x699 JUMPI PUSH1 0x40 MLOAD PUSH32 0x8C379A000000000000000000000000000000000000000000000000000000000 DUP2 MSTORE PUSH1 0x4 ADD PUSH2 0x690 SWAP1 PUSH2 0xD2D JUMP JUMPDEST PUSH1 0x40 MLOAD DUP1 SWAP2 SUB SWAP1 REVERT JUMPDEST DUP1 PUSH1 0x3 PUSH0 PUSH2 0x100 EXP DUP2 SLOAD DUP2 PUSH20 0xFFFFFFFFFFFFFFFFFFFFFFFFFFFFFFFFFFFFFFFF MUL NOT AND SWAP1 DUP4 PUSH20 0xFFFFFFFFFFFFFFFFFFFFFFFFFFFFFFFFFFFFFFFF AND MUL OR SWAP1 SSTORE POP POP JUMP JUMPDEST PUSH1 0x1 SLOAD PUSH2 0x6E8 CALLVALUE PUSH2 0x85A JUMP JUMPDEST LT ISZERO PUSH2 0x729 JUMPI PUSH1 0x40 MLOAD PUSH32 0x8C379A000000000000000000000000000000000000000000000000000000000 DUP2 MSTORE PUSH1 0x4 ADD PUSH2 0x720 SWAP1 PUSH2 0xD95 JUMP JUMPDEST PUSH1 0x40 MLOAD DUP1 SWAP2 SUB SWAP1 REVERT JUMPDEST PUSH1 0x5 SLOAD PUSH1 0x4 SLOAD PUSH2 0x739 SWAP2 SWAP1 PUSH2 0xAA9 JUMP JUMPDEST TIMESTAMP LT PUSH2 0x77A JUMPI PUSH1 0x40 MLOAD PUSH32 0x8C379A000000000000000000000000000000000000000000000000000000000 DUP2 MSTORE PUSH1 0x4 ADD PUSH2 0x771 SWAP1 PUSH2 0xDFD JUMP JUMPDEST PUSH1 0x40 MLOAD DUP1 SWAP2 SUB SWAP1 REVERT JUMPDEST CALLVALUE PUSH0 DUP1 CALLER PUSH20 0xFFFFFFFFFFFFFFFFFFFFFFFFFFFFFFFFFFFFFFFF AND PUSH20 0xFFFFFFFFFFFFFFFFFFFFFFFFFFFFFFFFFFFFFFFF AND DUP2 MSTORE PUSH1 0x20 ADD SWAP1 DUP2 MSTORE PUSH1 0x20 ADD PUSH0 KECCAK256 DUP2 SWAP1 SSTORE POP JUMP JUMPDEST PUSH0 DUP1 PUSH1 0x2 PUSH0 SWAP1 SLOAD SWAP1 PUSH2 0x100 EXP SWAP1 DIV PUSH20 0xFFFFFFFFFFFFFFFFFFFFFFFFFFFFFFFFFFFFFFFF AND PUSH20 0xFFFFFFFFFFFFFFFFFFFFFFFFFFFFFFFFFFFFFFFF AND PUSH4 0xFEAF968C PUSH1 0x40 MLOAD DUP2 PUSH4 0xFFFFFFFF AND PUSH1 0xE0 SHL DUP2 MSTORE PUSH1 0x4 ADD PUSH1 0xA0 PUSH1 0x40 MLOAD DUP1 DUP4 SUB DUP2 DUP7 GAS STATICCALL ISZERO DUP1 ISZERO PUSH2 0x829 JUMPI RETURNDATASIZE PUSH0 DUP1 RETURNDATACOPY RETURNDATASIZE PUSH0 REVERT JUMPDEST POP POP POP POP PUSH1 0x40 MLOAD RETURNDATASIZE PUSH1 0x1F NOT PUSH1 0x1F DUP3 ADD AND DUP3 ADD DUP1 PUSH1 0x40 MSTORE POP DUP2 ADD SWAP1 PUSH2 0x84D SWAP2 SWAP1 PUSH2 0xEAE JUMP JUMPDEST POP POP POP SWAP2 POP POP DUP1 SWAP2 POP POP SWAP1 JUMP JUMPDEST PUSH0 DUP1 PUSH2 0x864 PUSH2 0x7BD JUMP JUMPDEST SWAP1 POP PUSH4 0x5F5E100 DUP2 DUP5 PUSH2 0x877 SWAP2 SWAP1 PUSH2 0xF25 JUMP JUMPDEST PUSH2 0x881 SWAP2 SWAP1 PUSH2 0xF93 JUMP JUMPDEST SWAP2 POP POP SWAP2 SWAP1 POP JUMP JUMPDEST PUSH0 PUSH20 0xFFFFFFFFFFFFFFFFFFFFFFFFFFFFFFFFFFFFFFFF DUP3 AND SWAP1 POP SWAP2 SWAP1 POP JUMP JUMPDEST PUSH0 PUSH2 0x8B2 DUP3 PUSH2 0x889 JUMP JUMPDEST SWAP1 POP SWAP2 SWAP1 POP JUMP JUMPDEST PUSH2 0x8C2 DUP2 PUSH2 0x8A8 JUMP JUMPDEST DUP3 MSTORE POP POP JUMP JUMPDEST PUSH0 PUSH1 0x20 DUP3 ADD SWAP1 POP PUSH2 0x8DB PUSH0 DUP4 ADD DUP5 PUSH2 0x8B9 JUMP JUMPDEST SWAP3 SWAP2 POP POP JUMP JUMPDEST PUSH0 DUP1 REVERT JUMPDEST PUSH2 0x8EE DUP2 PUSH2 0x8A8 JUMP JUMPDEST DUP2 EQ PUSH2 0x8F8 JUMPI PUSH0 DUP1 REVERT JUMPDEST POP JUMP JUMPDEST PUSH0 DUP2 CALLDATALOAD SWAP1 POP PUSH2 0x909 DUP2 PUSH2 0x8E5 JUMP JUMPDEST SWAP3 SWAP2 POP POP JUMP JUMPDEST PUSH0 PUSH1 0x20 DUP3 DUP5 SUB SLT ISZERO PUSH2 0x924 JUMPI PUSH2 0x923 PUSH2 0x8E1 JUMP JUMPDEST JUMPDEST PUSH0 PUSH2 0x931 DUP5 DUP3 DUP6 ADD PUSH2 0x8FB JUMP JUMPDEST SWAP2 POP POP SWAP3 SWAP2 POP POP JUMP JUMPDEST PUSH0 DUP2 SWAP1 POP SWAP2 SWAP1 POP JUMP JUMPDEST PUSH2 0x94C DUP2 PUSH2 0x93A JUMP JUMPDEST DUP3 MSTORE POP POP JUMP JUMPDEST PUSH0 PUSH1 0x20 DUP3 ADD SWAP1 POP PUSH2 0x965 PUSH0 DUP4 ADD DUP5 PUSH2 0x943 JUMP JUMPDEST SWAP3 SWAP2 POP POP JUMP JUMPDEST PUSH0 DUP2 SWAP1 POP SWAP2 SWAP1 POP JUMP JUMPDEST PUSH2 0x97D DUP2 PUSH2 0x96B JUMP JUMPDEST DUP3 MSTORE POP POP JUMP JUMPDEST PUSH0 PUSH1 0x20 DUP3 ADD SWAP1 POP PUSH2 0x996 PUSH0 DUP4 ADD DUP5 PUSH2 0x974 JUMP JUMPDEST SWAP3 SWAP2 POP POP JUMP JUMPDEST PUSH0 DUP3 DUP3 MSTORE PUSH1 0x20 DUP3 ADD SWAP1 POP SWAP3 SWAP2 POP POP JUMP JUMPDEST PUSH32 0x7461726765742069732072656163686564000000000000000000000000000000 PUSH0 DUP3 ADD MSTORE POP JUMP JUMPDEST PUSH0 PUSH2 0x9E0 PUSH1 0x11 DUP4 PUSH2 0x99C JUMP JUMPDEST SWAP2 POP PUSH2 0x9EB DUP3 PUSH2 0x9AC JUMP JUMPDEST PUSH1 0x20 DUP3 ADD SWAP1 POP SWAP2 SWAP1 POP JUMP JUMPDEST PUSH0 PUSH1 0x20 DUP3 ADD SWAP1 POP DUP2 DUP2 SUB PUSH0 DUP4 ADD MSTORE PUSH2 0xA0D DUP2 PUSH2 0x9D4 JUMP JUMPDEST SWAP1 POP SWAP2 SWAP1 POP JUMP JUMPDEST PUSH32 0x74686572206973206E6F2066756E6420666F7220796F75000000000000000000 PUSH0 DUP3 ADD MSTORE POP JUMP JUMPDEST PUSH0 PUSH2 0xA48 PUSH1 0x17 DUP4 PUSH2 0x99C JUMP JUMPDEST SWAP2 POP PUSH2 0xA53 DUP3 PUSH2 0xA14 JUMP JUMPDEST PUSH1 0x20 DUP3 ADD SWAP1 POP SWAP2 SWAP1 POP JUMP JUMPDEST PUSH0 PUSH1 0x20 DUP3 ADD SWAP1 POP DUP2 DUP2 SUB PUSH0 DUP4 ADD MSTORE PUSH2 0xA75 DUP2 PUSH2 0xA3C JUMP JUMPDEST SWAP1 POP SWAP2 SWAP1 POP JUMP JUMPDEST PUSH32 0x4E487B7100000000000000000000000000000000000000000000000000000000 PUSH0 MSTORE PUSH1 0x11 PUSH1 0x4 MSTORE PUSH1 0x24 PUSH0 REVERT JUMPDEST PUSH0 PUSH2 0xAB3 DUP3 PUSH2 0x93A JUMP JUMPDEST SWAP2 POP PUSH2 0xABE DUP4 PUSH2 0x93A JUMP JUMPDEST SWAP3 POP DUP3 DUP3 ADD SWAP1 POP DUP1 DUP3 GT ISZERO PUSH2 0xAD6 JUMPI PUSH2 0xAD5 PUSH2 0xA7C JUMP JUMPDEST JUMPDEST SWAP3 SWAP2 POP POP JUMP JUMPDEST PUSH32 0x77696E646F7720697320636C6F73650000000000000000000000000000000000 PUSH0 DUP3 ADD MSTORE POP JUMP JUMPDEST PUSH0 PUSH2 0xB10 PUSH1 0xF DUP4 PUSH2 0x99C JUMP JUMPDEST SWAP2 POP PUSH2 0xB1B DUP3 PUSH2 0xADC JUMP JUMPDEST PUSH1 0x20 DUP3 ADD SWAP1 POP SWAP2 SWAP1 POP JUMP JUMPDEST PUSH0 PUSH1 0x20 DUP3 ADD SWAP1 POP DUP2 DUP2 SUB PUSH0 DUP4 ADD MSTORE PUSH2 0xB3D DUP2 PUSH2 0xB04 JUMP JUMPDEST SWAP1 POP SWAP2 SWAP1 POP JUMP JUMPDEST PUSH0 DUP2 SWAP1 POP SWAP3 SWAP2 POP POP JUMP JUMPDEST POP JUMP JUMPDEST PUSH0 PUSH2 0xB5C PUSH0 DUP4 PUSH2 0xB44 JUMP JUMPDEST SWAP2 POP PUSH2 0xB67 DUP3 PUSH2 0xB4E JUMP JUMPDEST PUSH0 DUP3 ADD SWAP1 POP SWAP2 SWAP1 POP JUMP JUMPDEST PUSH0 PUSH2 0xB7B DUP3 PUSH2 0xB51 JUMP JUMPDEST SWAP2 POP DUP2 SWAP1 POP SWAP2 SWAP1 POP JUMP JUMPDEST PUSH32 0x7472616E73666572207478206661696C65640000000000000000000000000000 PUSH0 DUP3 ADD MSTORE POP JUMP JUMPDEST PUSH0 PUSH2 0xBB9 PUSH1 0x12 DUP4 PUSH2 0x99C JUMP JUMPDEST SWAP2 POP PUSH2 0xBC4 DUP3 PUSH2 0xB85 JUMP JUMPDEST PUSH1 0x20 DUP3 ADD SWAP1 POP SWAP2 SWAP1 POP JUMP JUMPDEST PUSH0 PUSH1 0x20 DUP3 ADD SWAP1 POP DUP2 DUP2 SUB PUSH0 DUP4 ADD MSTORE PUSH2 0xBE6 DUP2 PUSH2 0xBAD JUMP JUMPDEST SWAP1 POP SWAP2 SWAP1 POP JUMP JUMPDEST PUSH32 0x546172676574206973206E6F7420726561636865640000000000000000000000 PUSH0 DUP3 ADD MSTORE POP JUMP JUMPDEST PUSH0 PUSH2 0xC21 PUSH1 0x15 DUP4 PUSH2 0x99C JUMP JUMPDEST SWAP2 POP PUSH2 0xC2C DUP3 PUSH2 0xBED JUMP JUMPDEST PUSH1 0x20 DUP3 ADD SWAP1 POP SWAP2 SWAP1 POP JUMP JUMPDEST PUSH0 PUSH1 0x20 DUP3 ADD SWAP1 POP DUP2 DUP2 SUB PUSH0 DUP4 ADD MSTORE PUSH2 0xC4E DUP2 PUSH2 0xC15 JUMP JUMPDEST SWAP1 POP SWAP2 SWAP1 POP JUMP JUMPDEST PUSH32 0x7468657265206973206E6F2066756E6420666F7220796F750000000000000000 PUSH0 DUP3 ADD MSTORE POP JUMP JUMPDEST PUSH0 PUSH2 0xC89 PUSH1 0x18 DUP4 PUSH2 0x99C JUMP JUMPDEST SWAP2 POP PUSH2 0xC94 DUP3 PUSH2 0xC55 JUMP JUMPDEST PUSH1 0x20 DUP3 ADD SWAP1 POP SWAP2 SWAP1 POP JUMP JUMPDEST PUSH0 PUSH1 0x20 DUP3 ADD SWAP1 POP DUP2 DUP2 SUB PUSH0 DUP4 ADD MSTORE PUSH2 0xCB6 DUP2 PUSH2 0xC7D JUMP JUMPDEST SWAP1 POP SWAP2 SWAP1 POP JUMP JUMPDEST PUSH32 0x746869732066756E6374696F6E2063616E206F6E6C792062652063616C6C6564 PUSH0 DUP3 ADD MSTORE PUSH32 0x206279206F776E65720000000000000000000000000000000000000000000000 PUSH1 0x20 DUP3 ADD MSTORE POP JUMP JUMPDEST PUSH0 PUSH2 0xD17 PUSH1 0x29 DUP4 PUSH2 0x99C JUMP JUMPDEST SWAP2 POP PUSH2 0xD22 DUP3 PUSH2 0xCBD JUMP JUMPDEST PUSH1 0x40 DUP3 ADD SWAP1 POP SWAP2 SWAP1 POP JUMP JUMPDEST PUSH0 PUSH1 0x20 DUP3 ADD SWAP1 POP DUP2 DUP2 SUB PUSH0 DUP4 ADD MSTORE PUSH2 0xD44 DUP2 PUSH2 0xD0B JUMP JUMPDEST SWAP1 POP SWAP2 SWAP1 POP JUMP JUMPDEST PUSH32 0x73656E64206D6F72652045544800000000000000000000000000000000000000 PUSH0 DUP3 ADD MSTORE POP JUMP JUMPDEST PUSH0 PUSH2 0xD7F PUSH1 0xD DUP4 PUSH2 0x99C JUMP JUMPDEST SWAP2 POP PUSH2 0xD8A DUP3 PUSH2 0xD4B JUMP JUMPDEST PUSH1 0x20 DUP3 ADD SWAP1 POP SWAP2 SWAP1 POP JUMP JUMPDEST PUSH0 PUSH1 0x20 DUP3 ADD SWAP1 POP DUP2 DUP2 SUB PUSH0 DUP4 ADD MSTORE PUSH2 0xDAC DUP2 PUSH2 0xD73 JUMP JUMPDEST SWAP1 POP SWAP2 SWAP1 POP JUMP JUMPDEST PUSH32 0x77696E646F7720736920636C6F73656400000000000000000000000000000000 PUSH0 DUP3 ADD MSTORE POP JUMP JUMPDEST PUSH0 PUSH2 0xDE7 PUSH1 0x10 DUP4 PUSH2 0x99C JUMP JUMPDEST SWAP2 POP PUSH2 0xDF2 DUP3 PUSH2 0xDB3 JUMP JUMPDEST PUSH1 0x20 DUP3 ADD SWAP1 POP SWAP2 SWAP1 POP JUMP JUMPDEST PUSH0 PUSH1 0x20 DUP3 ADD SWAP1 POP DUP2 DUP2 SUB PUSH0 DUP4 ADD MSTORE PUSH2 0xE14 DUP2 PUSH2 0xDDB JUMP JUMPDEST SWAP1 POP SWAP2 SWAP1 POP JUMP JUMPDEST PUSH0 PUSH10 0xFFFFFFFFFFFFFFFFFFFF DUP3 AND SWAP1 POP SWAP2 SWAP1 POP JUMP JUMPDEST PUSH2 0xE39 DUP2 PUSH2 0xE1B JUMP JUMPDEST DUP2 EQ PUSH2 0xE43 JUMPI PUSH0 DUP1 REVERT JUMPDEST POP JUMP JUMPDEST PUSH0 DUP2 MLOAD SWAP1 POP PUSH2 0xE54 DUP2 PUSH2 0xE30 JUMP JUMPDEST SWAP3 SWAP2 POP POP JUMP JUMPDEST PUSH2 0xE63 DUP2 PUSH2 0x96B JUMP JUMPDEST DUP2 EQ PUSH2 0xE6D JUMPI PUSH0 DUP1 REVERT JUMPDEST POP JUMP JUMPDEST PUSH0 DUP2 MLOAD SWAP1 POP PUSH2 0xE7E DUP2 PUSH2 0xE5A JUMP JUMPDEST SWAP3 SWAP2 POP POP JUMP JUMPDEST PUSH2 0xE8D DUP2 PUSH2 0x93A JUMP JUMPDEST DUP2 EQ PUSH2 0xE97 JUMPI PUSH0 DUP1 REVERT JUMPDEST POP JUMP JUMPDEST PUSH0 DUP2 MLOAD SWAP1 POP PUSH2 0xEA8 DUP2 PUSH2 0xE84 JUMP JUMPDEST SWAP3 SWAP2 POP POP JUMP JUMPDEST PUSH0 DUP1 PUSH0 DUP1 PUSH0 PUSH1 0xA0 DUP7 DUP9 SUB SLT ISZERO PUSH2 0xEC7 JUMPI PUSH2 0xEC6 PUSH2 0x8E1 JUMP JUMPDEST JUMPDEST PUSH0 PUSH2 0xED4 DUP9 DUP3 DUP10 ADD PUSH2 0xE46 JUMP JUMPDEST SWAP6 POP POP PUSH1 0x20 PUSH2 0xEE5 DUP9 DUP3 DUP10 ADD PUSH2 0xE70 JUMP JUMPDEST SWAP5 POP POP PUSH1 0x40 PUSH2 0xEF6 DUP9 DUP3 DUP10 ADD PUSH2 0xE9A JUMP JUMPDEST SWAP4 POP POP PUSH1 0x60 PUSH2 0xF07 DUP9 DUP3 DUP10 ADD PUSH2 0xE9A JUMP JUMPDEST SWAP3 POP POP PUSH1 0x80 PUSH2 0xF18 DUP9 DUP3 DUP10 ADD PUSH2 0xE46 JUMP JUMPDEST SWAP2 POP POP SWAP3 SWAP6 POP SWAP3 SWAP6 SWAP1 SWAP4 POP JUMP JUMPDEST PUSH0 PUSH2 0xF2F DUP3 PUSH2 0x93A JUMP JUMPDEST SWAP2 POP PUSH2 0xF3A DUP4 PUSH2 0x93A JUMP JUMPDEST SWAP3 POP DUP3 DUP3 MUL PUSH2 0xF48 DUP2 PUSH2 0x93A JUMP JUMPDEST SWAP2 POP DUP3 DUP3 DIV DUP5 EQ DUP4 ISZERO OR PUSH2 0xF5F JUMPI PUSH2 0xF5E PUSH2 0xA7C JUMP JUMPDEST JUMPDEST POP SWAP3 SWAP2 POP POP JUMP JUMPDEST PUSH32 0x4E487B7100000000000000000000000000000000000000000000000000000000 PUSH0 MSTORE PUSH1 0x12 PUSH1 0x4 MSTORE PUSH1 0x24 PUSH0 REVERT JUMPDEST PUSH0 PUSH2 0xF9D DUP3 PUSH2 0x93A JUMP JUMPDEST SWAP2 POP PUSH2 0xFA8 DUP4 PUSH2 0x93A JUMP JUMPDEST SWAP3 POP DUP3 PUSH2 0xFB8 JUMPI PUSH2 0xFB7 PUSH2 0xF66 JUMP JUMPDEST JUMPDEST DUP3 DUP3 DIV SWAP1 POP SWAP3 SWAP2 POP POP JUMP INVALID LOG2 PUSH5 0x6970667358 0x22 SLT KECCAK256 0xCB SWAP16 0x4E 0xD DUP9 DUP6 NOT SWAP13 0xFC 0xA8 0xD6 0xCE 0x2F TLOAD TSTORE 0x1E PUSH2 0xC44D LOG4 SWAP4 BALANCE DUP10 0xDB 0xC2 SWAP9 MSIZE DUP11 PUSH0 BYTE 0xAA NOT PUSH5 0x736F6C6343 STOP ADDMOD BYTE STOP CALLER "
				},
				"gasEstimates": {
					"creation": {
						"codeDepositCost": "817800",
						"executionCost": "infinite",
						"totalCost": "infinite"
					},
					"external": {
						"fund()": "infinite",
						"fundersToAmount(address)": "2801",
						"getChainlinkDataFeedLatestAnswer()": "infinite",
						"getFund()": "infinite",
						"owner()": "2531",
						"refund()": "infinite",
						"transferOwenerShip(address)": "26906"
					},
					"internal": {
						"convertEthToUsd(uint256)": "infinite"
					}
				},
				"methodIdentifiers": {
					"fund()": "b60d4288",
					"fundersToAmount(address)": "9f883a05",
					"getChainlinkDataFeedLatestAnswer()": "bea4dfb5",
					"getFund()": "8edd6eb6",
					"owner()": "8da5cb5b",
					"refund()": "590e1ae3",
					"transferOwenerShip(address)": "9faa1cac"
				}
			},
			"storageLayout": {
				"storage": [
					{
						"astId": 53,
						"contract": "test/fundMe.sol:FundMe",
						"label": "fundersToAmount",
						"offset": 0,
						"slot": "0",
						"type": "t_mapping(t_address,t_uint256)"
					},
					{
						"astId": 60,
						"contract": "test/fundMe.sol:FundMe",
						"label": "MINIMUM_VALUE",
						"offset": 0,
						"slot": "1",
						"type": "t_uint256"
					},
					{
						"astId": 63,
						"contract": "test/fundMe.sol:FundMe",
						"label": "dataFeed",
						"offset": 0,
						"slot": "2",
						"type": "t_contract(AggregatorV3Interface)45"
					},
					{
						"astId": 72,
						"contract": "test/fundMe.sol:FundMe",
						"label": "owner",
						"offset": 0,
						"slot": "3",
						"type": "t_address"
					},
					{
						"astId": 74,
						"contract": "test/fundMe.sol:FundMe",
						"label": "deploymentTimestamp",
						"offset": 0,
						"slot": "4",
						"type": "t_uint256"
					},
					{
						"astId": 76,
						"contract": "test/fundMe.sol:FundMe",
						"label": "lockTime",
						"offset": 0,
						"slot": "5",
						"type": "t_uint256"
					}
				],
				"types": {
					"t_address": {
						"encoding": "inplace",
						"label": "address",
						"numberOfBytes": "20"
					},
					"t_contract(AggregatorV3Interface)45": {
						"encoding": "inplace",
						"label": "contract AggregatorV3Interface",
						"numberOfBytes": "20"
					},
					"t_mapping(t_address,t_uint256)": {
						"encoding": "mapping",
						"key": "t_address",
						"label": "mapping(address => uint256)",
						"numberOfBytes": "32",
						"value": "t_uint256"
					},
					"t_uint256": {
						"encoding": "inplace",
						"label": "uint256",
						"numberOfBytes": "32"
					}
				}
			},
			"userdoc": {
				"kind": "user",
				"methods": {},
				"version": 1
			}
		}
	}
}